{
  "_format": "hh-sol-artifact-1",
  "contractName": "SaleTicket",
  "sourceName": "contracts/SaleTicket.sol",
  "abi": [
    {
      "inputs": [
        {
          "internalType": "address",
          "name": "_mintTicketAddress",
          "type": "address"
        },
        {
          "internalType": "address",
          "name": "_currencyAddress",
          "type": "address"
        }
      ],
      "stateMutability": "nonpayable",
      "type": "constructor"
    },
    {
      "inputs": [],
      "name": "erc20Contract",
      "outputs": [
        {
          "internalType": "contract IERC20",
          "name": "",
          "type": "address"
        }
      ],
      "stateMutability": "view",
      "type": "function"
    },
    {
      "inputs": [],
      "name": "getOnSaleTicketArrayLength",
      "outputs": [
        {
          "internalType": "uint256",
          "name": "",
          "type": "uint256"
        }
      ],
      "stateMutability": "view",
      "type": "function"
    },
    {
      "inputs": [],
      "name": "getSaleList",
      "outputs": [
        {
          "internalType": "uint256[]",
          "name": "",
          "type": "uint256[]"
        }
      ],
      "stateMutability": "view",
      "type": "function"
    },
    {
      "inputs": [
        {
          "internalType": "uint256",
          "name": "_tokenId",
          "type": "uint256"
        }
      ],
      "name": "getTicketPrice",
      "outputs": [
        {
          "internalType": "uint256",
          "name": "",
          "type": "uint256"
        }
      ],
      "stateMutability": "view",
      "type": "function"
    },
    {
      "inputs": [],
      "name": "mintTicketAddress",
      "outputs": [
        {
          "internalType": "contract MintTicket",
          "name": "",
          "type": "address"
        }
      ],
      "stateMutability": "view",
      "type": "function"
    },
    {
      "inputs": [
        {
          "internalType": "uint256",
          "name": "",
          "type": "uint256"
        }
      ],
      "name": "onSaleTicketArray",
      "outputs": [
        {
          "internalType": "uint256",
          "name": "",
          "type": "uint256"
        }
      ],
      "stateMutability": "view",
      "type": "function"
    },
    {
      "inputs": [
        {
          "internalType": "uint256",
          "name": "_tokenId",
          "type": "uint256"
        }
      ],
      "name": "purchaseTicket",
      "outputs": [],
      "stateMutability": "nonpayable",
      "type": "function"
    },
    {
      "inputs": [
        {
          "internalType": "uint256",
          "name": "_tokenId",
          "type": "uint256"
        },
        {
          "internalType": "uint256",
          "name": "_price",
          "type": "uint256"
        }
      ],
      "name": "setForSaleTicket",
      "outputs": [],
      "stateMutability": "nonpayable",
      "type": "function"
    },
    {
      "inputs": [
        {
          "internalType": "uint256",
          "name": "",
          "type": "uint256"
        }
      ],
      "name": "ticketPrices",
      "outputs": [
        {
          "internalType": "uint256",
          "name": "",
          "type": "uint256"
        }
      ],
      "stateMutability": "view",
      "type": "function"
    }
  ],
  "bytecode": "0x60806040523480156200001157600080fd5b506040516200121f3803806200121f8339818101604052810190620000379190620000d7565b816000806101000a81548173ffffffffffffffffffffffffffffffffffffffff021916908373ffffffffffffffffffffffffffffffffffffffff16021790555080600160006101000a81548173ffffffffffffffffffffffffffffffffffffffff021916908373ffffffffffffffffffffffffffffffffffffffff160217905550505062000166565b600081519050620000d1816200014c565b92915050565b60008060408385031215620000eb57600080fd5b6000620000fb85828601620000c0565b92505060206200010e85828601620000c0565b9150509250929050565b600062000125826200012c565b9050919050565b600073ffffffffffffffffffffffffffffffffffffffff82169050919050565b620001578162000118565b81146200016357600080fd5b50565b6110a980620001766000396000f3fe608060405234801561001057600080fd5b50600436106100935760003560e01c8063b948348c11610066578063b948348c14610120578063ba792bf81461013c578063e1faa9741461015a578063e44d311b14610178578063f06fc961146101a857610093565b80630546deac146100985780633888ec4a146100b65780633d0d5a1d146100e6578063a8f6c91314610102575b600080fd5b6100a06101d8565b6040516100ad9190610cc8565b60405180910390f35b6100d060048036038101906100cb9190610a78565b610230565b6040516100dd9190610dc0565b60405180910390f35b61010060048036038101906100fb9190610aca565b610254565b005b61010a61044f565b6040516101179190610cea565b60405180910390f35b61013a60048036038101906101359190610a78565b610475565b005b61014461096c565b6040516101519190610d05565b60405180910390f35b610162610990565b60405161016f9190610dc0565b60405180910390f35b610192600480360381019061018d9190610a78565b61099d565b60405161019f9190610dc0565b60405180910390f35b6101c260048036038101906101bd9190610a78565b6109b5565b6040516101cf9190610dc0565b60405180910390f35b6060600380548060200260200160405190810160405280929190818152602001828054801561022657602002820191906000526020600020905b815481526020019060010190808311610212575b5050505050905090565b6003818154811061024057600080fd5b906000526020600020016000915090505481565b60008060009054906101000a900473ffffffffffffffffffffffffffffffffffffffff1673ffffffffffffffffffffffffffffffffffffffff16636352211e846040518263ffffffff1660e01b81526004016102b09190610dc0565b60206040518083038186803b1580156102c857600080fd5b505afa1580156102dc573d6000803e3d6000fd5b505050506040513d601f19601f820116820180604052508101906103009190610a26565b90503373ffffffffffffffffffffffffffffffffffffffff168173ffffffffffffffffffffffffffffffffffffffff1614610370576040517f08c379a000000000000000000000000000000000000000000000000000000000815260040161036790610d20565b60405180910390fd5b60006002600085815260200190815260200160002054146103c6576040517f08c379a00000000000000000000000000000000000000000000000000000000081526004016103bd90610d80565b60405180910390fd5b60008211610409576040517f08c379a000000000000000000000000000000000000000000000000000000000815260040161040090610da0565b60405180910390fd5b8160026000858152602001908152602001600020819055506003839080600181540180825580915050600190039060005260206000200160009091909190915055505050565b600160009054906101000a900473ffffffffffffffffffffffffffffffffffffffff1681565b60006002600083815260200190815260200160002054905060008060009054906101000a900473ffffffffffffffffffffffffffffffffffffffff1673ffffffffffffffffffffffffffffffffffffffff16636352211e846040518263ffffffff1660e01b81526004016104e99190610dc0565b60206040518083038186803b15801561050157600080fd5b505afa158015610515573d6000803e3d6000fd5b505050506040513d601f19601f820116820180604052508101906105399190610a26565b905060008060009054906101000a900473ffffffffffffffffffffffffffffffffffffffff1673ffffffffffffffffffffffffffffffffffffffff166370a08231336040518263ffffffff1660e01b81526004016105979190610c76565b60206040518083038186803b1580156105af57600080fd5b505afa1580156105c3573d6000803e3d6000fd5b505050506040513d601f19601f820116820180604052508101906105e79190610aa1565b90506000831161062c576040517f08c379a000000000000000000000000000000000000000000000000000000000815260040161062390610d40565b60405180910390fd5b3373ffffffffffffffffffffffffffffffffffffffff168273ffffffffffffffffffffffffffffffffffffffff16141561069b576040517f08c379a000000000000000000000000000000000000000000000000000000000815260040161069290610d60565b60405180910390fd5b600160009054906101000a900473ffffffffffffffffffffffffffffffffffffffff1673ffffffffffffffffffffffffffffffffffffffff166323b872dd3384866040518463ffffffff1660e01b81526004016106fa93929190610c91565b602060405180830381600087803b15801561071457600080fd5b505af1158015610728573d6000803e3d6000fd5b505050506040513d601f19601f8201168201806040525081019061074c9190610a4f565b5060008054906101000a900473ffffffffffffffffffffffffffffffffffffffff1673ffffffffffffffffffffffffffffffffffffffff166342842e0e8333876040518463ffffffff1660e01b81526004016107aa93929190610c91565b600060405180830381600087803b1580156107c457600080fd5b505af11580156107d8573d6000803e3d6000fd5b505050506000600260008681526020019081526020016000208190555060005b6003805490508110156109655760006002600060038481548110610845577f4e487b7100000000000000000000000000000000000000000000000000000000600052603260045260246000fd5b9060005260206000200154815260200190815260200160002054141561095257600360016003805490506108799190610e25565b815481106108b0577f4e487b7100000000000000000000000000000000000000000000000000000000600052603260045260246000fd5b9060005260206000200154600382815481106108f5577f4e487b7100000000000000000000000000000000000000000000000000000000600052603260045260246000fd5b9060005260206000200181905550600380548061093b577f4e487b7100000000000000000000000000000000000000000000000000000000600052603160045260246000fd5b600190038181906000526020600020016000905590555b808061095d90610ee9565b9150506107f8565b5050505050565b60008054906101000a900473ffffffffffffffffffffffffffffffffffffffff1681565b6000600380549050905090565b60026020528060005260406000206000915090505481565b600060026000838152602001908152602001600020549050919050565b6000815190506109e18161102e565b92915050565b6000815190506109f681611045565b92915050565b600081359050610a0b8161105c565b92915050565b600081519050610a208161105c565b92915050565b600060208284031215610a3857600080fd5b6000610a46848285016109d2565b91505092915050565b600060208284031215610a6157600080fd5b6000610a6f848285016109e7565b91505092915050565b600060208284031215610a8a57600080fd5b6000610a98848285016109fc565b91505092915050565b600060208284031215610ab357600080fd5b6000610ac184828501610a11565b91505092915050565b60008060408385031215610add57600080fd5b6000610aeb858286016109fc565b9250506020610afc858286016109fc565b9150509250929050565b6000610b128383610c58565b60208301905092915050565b610b2781610e59565b82525050565b6000610b3882610deb565b610b428185610e03565b9350610b4d83610ddb565b8060005b83811015610b7e578151610b658882610b06565b9750610b7083610df6565b925050600181019050610b51565b5085935050505092915050565b610b9481610ea1565b82525050565b610ba381610ec5565b82525050565b6000610bb6601b83610e14565b9150610bc182610f61565b602082019050919050565b6000610bd9601083610e14565b9150610be482610f8a565b602082019050919050565b6000610bfc601783610e14565b9150610c0782610fb3565b602082019050919050565b6000610c1f601f83610e14565b9150610c2a82610fdc565b602082019050919050565b6000610c42601783610e14565b9150610c4d82611005565b602082019050919050565b610c6181610e97565b82525050565b610c7081610e97565b82525050565b6000602082019050610c8b6000830184610b1e565b92915050565b6000606082019050610ca66000830186610b1e565b610cb36020830185610b1e565b610cc06040830184610c67565b949350505050565b60006020820190508181036000830152610ce28184610b2d565b905092915050565b6000602082019050610cff6000830184610b8b565b92915050565b6000602082019050610d1a6000830184610b9a565b92915050565b60006020820190508181036000830152610d3981610ba9565b9050919050565b60006020820190508181036000830152610d5981610bcc565b9050919050565b60006020820190508181036000830152610d7981610bef565b9050919050565b60006020820190508181036000830152610d9981610c12565b9050919050565b60006020820190508181036000830152610db981610c35565b9050919050565b6000602082019050610dd56000830184610c67565b92915050565b6000819050602082019050919050565b600081519050919050565b6000602082019050919050565b600082825260208201905092915050565b600082825260208201905092915050565b6000610e3082610e97565b9150610e3b83610e97565b925082821015610e4e57610e4d610f32565b5b828203905092915050565b6000610e6482610e77565b9050919050565b60008115159050919050565b600073ffffffffffffffffffffffffffffffffffffffff82169050919050565b6000819050919050565b6000610eac82610eb3565b9050919050565b6000610ebe82610e77565b9050919050565b6000610ed082610ed7565b9050919050565b6000610ee282610e77565b9050919050565b6000610ef482610e97565b91507fffffffffffffffffffffffffffffffffffffffffffffffffffffffffffffffff821415610f2757610f26610f32565b5b600182019050919050565b7f4e487b7100000000000000000000000000000000000000000000000000000000600052601160045260246000fd5b7f43616c6c6572206973206e6f74207469636b6574206f776e65722e0000000000600082015250565b7f5469636b6574206e6f742073616c652e00000000000000000000000000000000600082015250565b7f43616c6c6572206973207469636b6574206f776e65722e000000000000000000600082015250565b7f54686973207469636b657420697320616c7265616479206f6e2073616c652e00600082015250565b7f5072696365206973207a65726f206f72206c6f7765722e000000000000000000600082015250565b61103781610e59565b811461104257600080fd5b50565b61104e81610e6b565b811461105957600080fd5b50565b61106581610e97565b811461107057600080fd5b5056fea26469706673582212202bc8055521353c8b72dce6443dadf8508a3097a1f147349319ee4193284fc07164736f6c63430008040033",
  "linkReferences": {},
  "deployedLinkReferences": {}
}