{
  "_format": "hh-sol-artifact-1",
  "contractName": "SaleTicket",
  "sourceName": "contracts/SaleTicket.sol",
  "abi": [
    {
      "inputs": [
        {
          "internalType": "address",
          "name": "_mintTicketAddress",
          "type": "address"
        },
        {
          "internalType": "address",
          "name": "_currencyAddress",
          "type": "address"
        }
      ],
      "stateMutability": "nonpayable",
      "type": "constructor"
    },
    {
      "inputs": [],
      "name": "erc20Contract",
      "outputs": [
        {
          "internalType": "contract IERC20",
          "name": "",
          "type": "address"
        }
      ],
      "stateMutability": "view",
      "type": "function"
    },
    {
      "inputs": [],
      "name": "getOnSaleTicketArrayLength",
      "outputs": [
        {
          "internalType": "uint256",
          "name": "",
          "type": "uint256"
        }
      ],
      "stateMutability": "view",
      "type": "function"
    },
    {
      "inputs": [
        {
          "internalType": "uint256",
          "name": "_tokenId",
          "type": "uint256"
        }
      ],
      "name": "getTicketPrice",
      "outputs": [
        {
          "internalType": "uint256",
          "name": "",
          "type": "uint256"
        }
      ],
      "stateMutability": "view",
      "type": "function"
    },
    {
      "inputs": [],
      "name": "mintTicketAddress",
      "outputs": [
        {
          "internalType": "contract MintTicket",
          "name": "",
          "type": "address"
        }
      ],
      "stateMutability": "view",
      "type": "function"
    },
    {
      "inputs": [
        {
          "internalType": "uint256",
          "name": "",
          "type": "uint256"
        }
      ],
      "name": "onSaleTicketArray",
      "outputs": [
        {
          "internalType": "uint256",
          "name": "",
          "type": "uint256"
        }
      ],
      "stateMutability": "view",
      "type": "function"
    },
    {
      "inputs": [
        {
          "internalType": "uint256",
          "name": "_tokenId",
          "type": "uint256"
        }
      ],
      "name": "purchaseTicket",
      "outputs": [],
      "stateMutability": "nonpayable",
      "type": "function"
    },
    {
      "inputs": [
        {
          "internalType": "uint256",
          "name": "_tokenId",
          "type": "uint256"
        },
        {
          "internalType": "uint256",
          "name": "_price",
          "type": "uint256"
        }
      ],
      "name": "setForSaleTicket",
      "outputs": [],
      "stateMutability": "nonpayable",
      "type": "function"
    },
    {
      "inputs": [
        {
          "internalType": "uint256",
          "name": "",
          "type": "uint256"
        }
      ],
      "name": "ticketPrices",
      "outputs": [
        {
          "internalType": "uint256",
          "name": "",
          "type": "uint256"
        }
      ],
      "stateMutability": "view",
      "type": "function"
    }
  ],
  "bytecode": "0x60806040523480156200001157600080fd5b506040516200116d3803806200116d8339818101604052810190620000379190620000d7565b816000806101000a81548173ffffffffffffffffffffffffffffffffffffffff021916908373ffffffffffffffffffffffffffffffffffffffff16021790555080600160006101000a81548173ffffffffffffffffffffffffffffffffffffffff021916908373ffffffffffffffffffffffffffffffffffffffff160217905550505062000166565b600081519050620000d1816200014c565b92915050565b60008060408385031215620000eb57600080fd5b6000620000fb85828601620000c0565b92505060206200010e85828601620000c0565b9150509250929050565b600062000125826200012c565b9050919050565b600073ffffffffffffffffffffffffffffffffffffffff82169050919050565b620001578162000118565b81146200016357600080fd5b50565b610ff780620001766000396000f3fe608060405234801561001057600080fd5b50600436106100885760003560e01c8063ba792bf81161005b578063ba792bf814610113578063e1faa97414610131578063e44d311b1461014f578063f06fc9611461017f57610088565b80633888ec4a1461008d5780633d0d5a1d146100bd578063a8f6c913146100d9578063b948348c146100f7575b600080fd5b6100a760048036038101906100a29190610a3a565b6101af565b6040516100b49190610d1e565b60405180910390f35b6100d760048036038101906100d29190610a8c565b6101d3565b005b6100e16103ce565b6040516100ee9190610c28565b60405180910390f35b610111600480360381019061010c9190610a3a565b6103f4565b005b61011b61092e565b6040516101289190610c43565b60405180910390f35b610139610952565b6040516101469190610d1e565b60405180910390f35b61016960048036038101906101649190610a3a565b61095f565b6040516101769190610d1e565b60405180910390f35b61019960048036038101906101949190610a3a565b610977565b6040516101a69190610d1e565b60405180910390f35b600381815481106101bf57600080fd5b906000526020600020016000915090505481565b60008060009054906101000a900473ffffffffffffffffffffffffffffffffffffffff1673ffffffffffffffffffffffffffffffffffffffff16636352211e846040518263ffffffff1660e01b815260040161022f9190610d1e565b60206040518083038186803b15801561024757600080fd5b505afa15801561025b573d6000803e3d6000fd5b505050506040513d601f19601f8201168201806040525081019061027f91906109e8565b90503373ffffffffffffffffffffffffffffffffffffffff168173ffffffffffffffffffffffffffffffffffffffff16146102ef576040517f08c379a00000000000000000000000000000000000000000000000000000000081526004016102e690610c7e565b60405180910390fd5b6000600260008581526020019081526020016000205414610345576040517f08c379a000000000000000000000000000000000000000000000000000000000815260040161033c90610cde565b60405180910390fd5b60008211610388576040517f08c379a000000000000000000000000000000000000000000000000000000000815260040161037f90610cfe565b60405180910390fd5b8160026000858152602001908152602001600020819055506003839080600181540180825580915050600190039060005260206000200160009091909190915055505050565b600160009054906101000a900473ffffffffffffffffffffffffffffffffffffffff1681565b60006002600083815260200190815260200160002054905060008060009054906101000a900473ffffffffffffffffffffffffffffffffffffffff1673ffffffffffffffffffffffffffffffffffffffff16636352211e846040518263ffffffff1660e01b81526004016104689190610d1e565b60206040518083038186803b15801561048057600080fd5b505afa158015610494573d6000803e3d6000fd5b505050506040513d601f19601f820116820180604052508101906104b891906109e8565b905060008060009054906101000a900473ffffffffffffffffffffffffffffffffffffffff1673ffffffffffffffffffffffffffffffffffffffff166370a08231336040518263ffffffff1660e01b81526004016105169190610bd6565b60206040518083038186803b15801561052e57600080fd5b505afa158015610542573d6000803e3d6000fd5b505050506040513d601f19601f820116820180604052508101906105669190610a63565b9050600081146105ab576040517f08c379a00000000000000000000000000000000000000000000000000000000081526004016105a290610c5e565b60405180910390fd5b600083116105ee576040517f08c379a00000000000000000000000000000000000000000000000000000000081526004016105e590610c9e565b60405180910390fd5b3373ffffffffffffffffffffffffffffffffffffffff168273ffffffffffffffffffffffffffffffffffffffff16141561065d576040517f08c379a000000000000000000000000000000000000000000000000000000000815260040161065490610cbe565b60405180910390fd5b600160009054906101000a900473ffffffffffffffffffffffffffffffffffffffff1673ffffffffffffffffffffffffffffffffffffffff166323b872dd3384866040518463ffffffff1660e01b81526004016106bc93929190610bf1565b602060405180830381600087803b1580156106d657600080fd5b505af11580156106ea573d6000803e3d6000fd5b505050506040513d601f19601f8201168201806040525081019061070e9190610a11565b5060008054906101000a900473ffffffffffffffffffffffffffffffffffffffff1673ffffffffffffffffffffffffffffffffffffffff166342842e0e8333876040518463ffffffff1660e01b815260040161076c93929190610bf1565b600060405180830381600087803b15801561078657600080fd5b505af115801561079a573d6000803e3d6000fd5b505050506000600260008681526020019081526020016000208190555060005b6003805490508110156109275760006002600060038481548110610807577f4e487b7100000000000000000000000000000000000000000000000000000000600052603260045260246000fd5b90600052602060002001548152602001908152602001600020541415610914576003600160038054905061083b9190610d4a565b81548110610872577f4e487b7100000000000000000000000000000000000000000000000000000000600052603260045260246000fd5b9060005260206000200154600382815481106108b7577f4e487b7100000000000000000000000000000000000000000000000000000000600052603260045260246000fd5b906000526020600020018190555060038054806108fd577f4e487b7100000000000000000000000000000000000000000000000000000000600052603160045260246000fd5b600190038181906000526020600020016000905590555b808061091f90610e0e565b9150506107ba565b5050505050565b60008054906101000a900473ffffffffffffffffffffffffffffffffffffffff1681565b6000600380549050905090565b60026020528060005260406000206000915090505481565b600060026000838152602001908152602001600020549050919050565b6000815190506109a381610f7c565b92915050565b6000815190506109b881610f93565b92915050565b6000813590506109cd81610faa565b92915050565b6000815190506109e281610faa565b92915050565b6000602082840312156109fa57600080fd5b6000610a0884828501610994565b91505092915050565b600060208284031215610a2357600080fd5b6000610a31848285016109a9565b91505092915050565b600060208284031215610a4c57600080fd5b6000610a5a848285016109be565b91505092915050565b600060208284031215610a7557600080fd5b6000610a83848285016109d3565b91505092915050565b60008060408385031215610a9f57600080fd5b6000610aad858286016109be565b9250506020610abe858286016109be565b9150509250929050565b610ad181610d7e565b82525050565b610ae081610dc6565b82525050565b610aef81610dea565b82525050565b6000610b02601c83610d39565b9150610b0d82610e86565b602082019050919050565b6000610b25601b83610d39565b9150610b3082610eaf565b602082019050919050565b6000610b48601083610d39565b9150610b5382610ed8565b602082019050919050565b6000610b6b601783610d39565b9150610b7682610f01565b602082019050919050565b6000610b8e601f83610d39565b9150610b9982610f2a565b602082019050919050565b6000610bb1601783610d39565b9150610bbc82610f53565b602082019050919050565b610bd081610dbc565b82525050565b6000602082019050610beb6000830184610ac8565b92915050565b6000606082019050610c066000830186610ac8565b610c136020830185610ac8565b610c206040830184610bc7565b949350505050565b6000602082019050610c3d6000830184610ad7565b92915050565b6000602082019050610c586000830184610ae6565b92915050565b60006020820190508181036000830152610c7781610af5565b9050919050565b60006020820190508181036000830152610c9781610b18565b9050919050565b60006020820190508181036000830152610cb781610b3b565b9050919050565b60006020820190508181036000830152610cd781610b5e565b9050919050565b60006020820190508181036000830152610cf781610b81565b9050919050565b60006020820190508181036000830152610d1781610ba4565b9050919050565b6000602082019050610d336000830184610bc7565b92915050565b600082825260208201905092915050565b6000610d5582610dbc565b9150610d6083610dbc565b925082821015610d7357610d72610e57565b5b828203905092915050565b6000610d8982610d9c565b9050919050565b60008115159050919050565b600073ffffffffffffffffffffffffffffffffffffffff82169050919050565b6000819050919050565b6000610dd182610dd8565b9050919050565b6000610de382610d9c565b9050919050565b6000610df582610dfc565b9050919050565b6000610e0782610d9c565b9050919050565b6000610e1982610dbc565b91507fffffffffffffffffffffffffffffffffffffffffffffffffffffffffffffffff821415610e4c57610e4b610e57565b5b600182019050919050565b7f4e487b7100000000000000000000000000000000000000000000000000000000600052601160045260246000fd5b7f43616c6c657220616c7265616479206861732061207469636b65742e00000000600082015250565b7f43616c6c6572206973206e6f74207469636b6574206f776e65722e0000000000600082015250565b7f5469636b6574206e6f742073616c652e00000000000000000000000000000000600082015250565b7f43616c6c6572206973207469636b6574206f776e65722e000000000000000000600082015250565b7f54686973207469636b657420697320616c7265616479206f6e2073616c652e00600082015250565b7f5072696365206973207a65726f206f72206c6f7765722e000000000000000000600082015250565b610f8581610d7e565b8114610f9057600080fd5b50565b610f9c81610d90565b8114610fa757600080fd5b50565b610fb381610dbc565b8114610fbe57600080fd5b5056fea2646970667358221220b8492ec36d662b3d0345ebb38cd39d11bfb6bb07624ec49d70a521146bef9a3c64736f6c63430008040033",
  "linkReferences": {},
  "deployedLinkReferences": {}
}