{
  "_format": "hh-sol-artifact-1",
  "contractName": "MintTicket",
  "sourceName": "contracts/MintTicket.sol",
  "abi": [
    {
      "inputs": [
        {
          "internalType": "address",
          "name": "_admin",
          "type": "address"
        },
        {
          "internalType": "uint256",
          "name": "_price",
          "type": "uint256"
        },
        {
          "internalType": "address",
          "name": "_currencyAddress",
          "type": "address"
        }
      ],
      "stateMutability": "nonpayable",
      "type": "constructor"
    },
    {
      "anonymous": false,
      "inputs": [
        {
          "indexed": true,
          "internalType": "address",
          "name": "owner",
          "type": "address"
        },
        {
          "indexed": true,
          "internalType": "address",
          "name": "approved",
          "type": "address"
        },
        {
          "indexed": true,
          "internalType": "uint256",
          "name": "tokenId",
          "type": "uint256"
        }
      ],
      "name": "Approval",
      "type": "event"
    },
    {
      "anonymous": false,
      "inputs": [
        {
          "indexed": true,
          "internalType": "address",
          "name": "owner",
          "type": "address"
        },
        {
          "indexed": true,
          "internalType": "address",
          "name": "operator",
          "type": "address"
        },
        {
          "indexed": false,
          "internalType": "bool",
          "name": "approved",
          "type": "bool"
        }
      ],
      "name": "ApprovalForAll",
      "type": "event"
    },
    {
      "anonymous": false,
      "inputs": [
        {
          "indexed": true,
          "internalType": "address",
          "name": "previousOwner",
          "type": "address"
        },
        {
          "indexed": true,
          "internalType": "address",
          "name": "newOwner",
          "type": "address"
        }
      ],
      "name": "OwnershipTransferred",
      "type": "event"
    },
    {
      "anonymous": false,
      "inputs": [
        {
          "indexed": true,
          "internalType": "address",
          "name": "from",
          "type": "address"
        },
        {
          "indexed": true,
          "internalType": "address",
          "name": "to",
          "type": "address"
        },
        {
          "indexed": true,
          "internalType": "uint256",
          "name": "tokenId",
          "type": "uint256"
        }
      ],
      "name": "Transfer",
      "type": "event"
    },
    {
      "inputs": [
        {
          "internalType": "address",
          "name": "to",
          "type": "address"
        },
        {
          "internalType": "uint256",
          "name": "tokenId",
          "type": "uint256"
        }
      ],
      "name": "approve",
      "outputs": [],
      "stateMutability": "nonpayable",
      "type": "function"
    },
    {
      "inputs": [
        {
          "internalType": "address",
          "name": "owner",
          "type": "address"
        }
      ],
      "name": "balanceOf",
      "outputs": [
        {
          "internalType": "uint256",
          "name": "",
          "type": "uint256"
        }
      ],
      "stateMutability": "view",
      "type": "function"
    },
    {
      "inputs": [
        {
          "internalType": "string",
          "name": "_tokenURI",
          "type": "string"
        }
      ],
      "name": "buyTicket",
      "outputs": [
        {
          "internalType": "uint256",
          "name": "",
          "type": "uint256"
        }
      ],
      "stateMutability": "nonpayable",
      "type": "function"
    },
    {
      "inputs": [],
      "name": "erc20Contract",
      "outputs": [
        {
          "internalType": "contract IERC20",
          "name": "",
          "type": "address"
        }
      ],
      "stateMutability": "view",
      "type": "function"
    },
    {
      "inputs": [
        {
          "internalType": "uint256",
          "name": "tokenId",
          "type": "uint256"
        }
      ],
      "name": "getApproved",
      "outputs": [
        {
          "internalType": "address",
          "name": "",
          "type": "address"
        }
      ],
      "stateMutability": "view",
      "type": "function"
    },
    {
      "inputs": [],
      "name": "getCurrencyAmount",
      "outputs": [
        {
          "internalType": "uint256",
          "name": "",
          "type": "uint256"
        }
      ],
      "stateMutability": "view",
      "type": "function"
    },
    {
      "inputs": [
        {
          "internalType": "address",
          "name": "_mintTicketOwner",
          "type": "address"
        }
      ],
      "name": "getTicketList",
      "outputs": [
        {
          "components": [
            {
              "internalType": "uint256",
              "name": "tokenId",
              "type": "uint256"
            }
          ],
          "internalType": "struct MintTicket.TicketTokenData[]",
          "name": "",
          "type": "tuple[]"
        }
      ],
      "stateMutability": "view",
      "type": "function"
    },
    {
      "inputs": [],
      "name": "getTicketPrice",
      "outputs": [
        {
          "internalType": "uint256",
          "name": "",
          "type": "uint256"
        }
      ],
      "stateMutability": "view",
      "type": "function"
    },
    {
      "inputs": [
        {
          "internalType": "address",
          "name": "owner",
          "type": "address"
        },
        {
          "internalType": "address",
          "name": "operator",
          "type": "address"
        }
      ],
      "name": "isApprovedForAll",
      "outputs": [
        {
          "internalType": "bool",
          "name": "",
          "type": "bool"
        }
      ],
      "stateMutability": "view",
      "type": "function"
    },
    {
      "inputs": [],
      "name": "name",
      "outputs": [
        {
          "internalType": "string",
          "name": "",
          "type": "string"
        }
      ],
      "stateMutability": "view",
      "type": "function"
    },
    {
      "inputs": [],
      "name": "owner",
      "outputs": [
        {
          "internalType": "address",
          "name": "",
          "type": "address"
        }
      ],
      "stateMutability": "view",
      "type": "function"
    },
    {
      "inputs": [
        {
          "internalType": "uint256",
          "name": "tokenId",
          "type": "uint256"
        }
      ],
      "name": "ownerOf",
      "outputs": [
        {
          "internalType": "address",
          "name": "",
          "type": "address"
        }
      ],
      "stateMutability": "view",
      "type": "function"
    },
    {
      "inputs": [],
      "name": "renounceOwnership",
      "outputs": [],
      "stateMutability": "nonpayable",
      "type": "function"
    },
    {
      "inputs": [
        {
          "internalType": "address",
          "name": "from",
          "type": "address"
        },
        {
          "internalType": "address",
          "name": "to",
          "type": "address"
        },
        {
          "internalType": "uint256",
          "name": "tokenId",
          "type": "uint256"
        }
      ],
      "name": "safeTransferFrom",
      "outputs": [],
      "stateMutability": "nonpayable",
      "type": "function"
    },
    {
      "inputs": [
        {
          "internalType": "address",
          "name": "from",
          "type": "address"
        },
        {
          "internalType": "address",
          "name": "to",
          "type": "address"
        },
        {
          "internalType": "uint256",
          "name": "tokenId",
          "type": "uint256"
        },
        {
          "internalType": "bytes",
          "name": "_data",
          "type": "bytes"
        }
      ],
      "name": "safeTransferFrom",
      "outputs": [],
      "stateMutability": "nonpayable",
      "type": "function"
    },
    {
      "inputs": [],
      "name": "saleContractAddress",
      "outputs": [
        {
          "internalType": "address",
          "name": "",
          "type": "address"
        }
      ],
      "stateMutability": "view",
      "type": "function"
    },
    {
      "inputs": [],
      "name": "saleTicket",
      "outputs": [
        {
          "internalType": "contract SaleTicket",
          "name": "",
          "type": "address"
        }
      ],
      "stateMutability": "view",
      "type": "function"
    },
    {
      "inputs": [
        {
          "internalType": "address",
          "name": "operator",
          "type": "address"
        },
        {
          "internalType": "bool",
          "name": "approved",
          "type": "bool"
        }
      ],
      "name": "setApprovalForAll",
      "outputs": [],
      "stateMutability": "nonpayable",
      "type": "function"
    },
    {
      "inputs": [
        {
          "internalType": "address",
          "name": "_setSaleTicket",
          "type": "address"
        }
      ],
      "name": "setSaleTicket",
      "outputs": [],
      "stateMutability": "nonpayable",
      "type": "function"
    },
    {
      "inputs": [
        {
          "internalType": "bytes4",
          "name": "interfaceId",
          "type": "bytes4"
        }
      ],
      "name": "supportsInterface",
      "outputs": [
        {
          "internalType": "bool",
          "name": "",
          "type": "bool"
        }
      ],
      "stateMutability": "view",
      "type": "function"
    },
    {
      "inputs": [],
      "name": "symbol",
      "outputs": [
        {
          "internalType": "string",
          "name": "",
          "type": "string"
        }
      ],
      "stateMutability": "view",
      "type": "function"
    },
    {
      "inputs": [
        {
          "internalType": "uint256",
          "name": "index",
          "type": "uint256"
        }
      ],
      "name": "tokenByIndex",
      "outputs": [
        {
          "internalType": "uint256",
          "name": "",
          "type": "uint256"
        }
      ],
      "stateMutability": "view",
      "type": "function"
    },
    {
      "inputs": [
        {
          "internalType": "address",
          "name": "owner",
          "type": "address"
        },
        {
          "internalType": "uint256",
          "name": "index",
          "type": "uint256"
        }
      ],
      "name": "tokenOfOwnerByIndex",
      "outputs": [
        {
          "internalType": "uint256",
          "name": "",
          "type": "uint256"
        }
      ],
      "stateMutability": "view",
      "type": "function"
    },
    {
      "inputs": [
        {
          "internalType": "uint256",
          "name": "tokenId",
          "type": "uint256"
        }
      ],
      "name": "tokenURI",
      "outputs": [
        {
          "internalType": "string",
          "name": "",
          "type": "string"
        }
      ],
      "stateMutability": "view",
      "type": "function"
    },
    {
      "inputs": [],
      "name": "totalSupply",
      "outputs": [
        {
          "internalType": "uint256",
          "name": "",
          "type": "uint256"
        }
      ],
      "stateMutability": "view",
      "type": "function"
    },
    {
      "inputs": [
        {
          "internalType": "address",
          "name": "from",
          "type": "address"
        },
        {
          "internalType": "address",
          "name": "to",
          "type": "address"
        },
        {
          "internalType": "uint256",
          "name": "tokenId",
          "type": "uint256"
        }
      ],
      "name": "transferFrom",
      "outputs": [],
      "stateMutability": "nonpayable",
      "type": "function"
    },
    {
      "inputs": [
        {
          "internalType": "address",
          "name": "newOwner",
          "type": "address"
        }
      ],
      "name": "transferOwnership",
      "outputs": [],
      "stateMutability": "nonpayable",
      "type": "function"
    }
  ],
  "bytecode": "0x60806040523480156200001157600080fd5b5060405162003cf238038062003cf2833981810160405281019062000037919062000335565b6040518060400160405280600881526020017f4d494e54204e46540000000000000000000000000000000000000000000000008152506040518060400160405280600381526020017f4d4e5400000000000000000000000000000000000000000000000000000000008152508160009080519060200190620000bb92919062000257565b508060019080519060200190620000d492919062000257565b505050620000f7620000eb6200018960201b60201c565b6200019160201b60201c565b82600d60006101000a81548173ffffffffffffffffffffffffffffffffffffffff021916908373ffffffffffffffffffffffffffffffffffffffff16021790555081600e8190555080600f60006101000a81548173ffffffffffffffffffffffffffffffffffffffff021916908373ffffffffffffffffffffffffffffffffffffffff16021790555050505062000462565b600033905090565b6000600a60009054906101000a900473ffffffffffffffffffffffffffffffffffffffff16905081600a60006101000a81548173ffffffffffffffffffffffffffffffffffffffff021916908373ffffffffffffffffffffffffffffffffffffffff1602179055508173ffffffffffffffffffffffffffffffffffffffff168173ffffffffffffffffffffffffffffffffffffffff167f8be0079c531659141344cd1fd0a4f28419497f9722a3daafe3b4186f6b6457e060405160405180910390a35050565b8280546200026590620003c9565b90600052602060002090601f016020900481019282620002895760008555620002d5565b82601f10620002a457805160ff1916838001178555620002d5565b82800160010185558215620002d5579182015b82811115620002d4578251825591602001919060010190620002b7565b5b509050620002e49190620002e8565b5090565b5b8082111562000303576000816000905550600101620002e9565b5090565b60008151905062000318816200042e565b92915050565b6000815190506200032f8162000448565b92915050565b6000806000606084860312156200034b57600080fd5b60006200035b8682870162000307565b93505060206200036e868287016200031e565b9250506040620003818682870162000307565b9150509250925092565b600062000398826200039f565b9050919050565b600073ffffffffffffffffffffffffffffffffffffffff82169050919050565b6000819050919050565b60006002820490506001821680620003e257607f821691505b60208210811415620003f957620003f8620003ff565b5b50919050565b7f4e487b7100000000000000000000000000000000000000000000000000000000600052602260045260246000fd5b62000439816200038b565b81146200044557600080fd5b50565b6200045381620003bf565b81146200045f57600080fd5b50565b61388080620004726000396000f3fe608060405234801561001057600080fd5b50600436106101a95760003560e01c806370a08231116100f9578063b88d4fde11610097578063d274eb8b11610071578063d274eb8b146104d0578063e985e9c5146104ee578063f2fde38b1461051e578063fa30b2511461053a576101a9565b8063b88d4fde14610454578063c87b56dd14610470578063cc71e05f146104a0576101a9565b80638da5cb5b116100d35780638da5cb5b146103de57806395d89b41146103fc578063a22cb4651461041a578063a8f6c91314610436576101a9565b806370a0823114610386578063715018a6146103b657806387bb7ae0146103c0576101a9565b806326dbb3e0116101665780633f31545c116101405780633f31545c146102ec57806342842e0e1461030a5780634f6ccce7146103265780636352211e14610356576101a9565b806326dbb3e0146102825780632f745c591461029e578063321328f6146102ce576101a9565b806301ffc9a7146101ae57806306fdde03146101de578063081812fc146101fc578063095ea7b31461022c57806318160ddd1461024857806323b872dd14610266575b600080fd5b6101c860048036038101906101c39190612779565b61056a565b6040516101d59190612ccf565b60405180910390f35b6101e66105e4565b6040516101f39190612d20565b60405180910390f35b6102166004803603810190610211919061280c565b610676565b6040516102239190612c0f565b60405180910390f35b61024660048036038101906102419190612714565b6106fb565b005b610250610813565b60405161025d9190612f62565b60405180910390f35b610280600480360381019061027b919061260e565b610820565b005b61029c600480360381019061029791906125a9565b610880565b005b6102b860048036038101906102b39190612714565b610905565b6040516102c59190612f62565b60405180910390f35b6102d66109aa565b6040516102e39190612c0f565b60405180910390f35b6102f46109d0565b6040516103019190612f62565b60405180910390f35b610324600480360381019061031f919061260e565b610a82565b005b610340600480360381019061033b919061280c565b610aa2565b60405161034d9190612f62565b60405180910390f35b610370600480360381019061036b919061280c565b610b39565b60405161037d9190612c0f565b60405180910390f35b6103a0600480360381019061039b91906125a9565b610beb565b6040516103ad9190612f62565b60405180910390f35b6103be610ca3565b005b6103c8610d2b565b6040516103d59190612f62565b60405180910390f35b6103e6610d35565b6040516103f39190612c0f565b60405180910390f35b610404610d5f565b6040516104119190612d20565b60405180910390f35b610434600480360381019061042f91906126d8565b610df1565b005b61043e610e07565b60405161044b9190612cea565b60405180910390f35b61046e6004803603810190610469919061265d565b610e2d565b005b61048a6004803603810190610485919061280c565b610e8f565b6040516104979190612d20565b60405180910390f35b6104ba60048036038101906104b591906125a9565b610f34565b6040516104c79190612cad565b60405180910390f35b6104d861104c565b6040516104e59190612d05565b60405180910390f35b610508600480360381019061050391906125d2565b611072565b6040516105159190612ccf565b60405180910390f35b610538600480360381019061053391906125a9565b611106565b005b610554600480360381019061054f91906127cb565b6111fe565b6040516105619190612f62565b60405180910390f35b60007f780e9d63000000000000000000000000000000000000000000000000000000007bffffffffffffffffffffffffffffffffffffffffffffffffffffffff1916827bffffffffffffffffffffffffffffffffffffffffffffffffffffffff191614806105dd57506105dc82611329565b5b9050919050565b6060600080546105f3906131fd565b80601f016020809104026020016040519081016040528092919081815260200182805461061f906131fd565b801561066c5780601f106106415761010080835404028352916020019161066c565b820191906000526020600020905b81548152906001019060200180831161064f57829003601f168201915b5050505050905090565b60006106818261140b565b6106c0576040517f08c379a00000000000000000000000000000000000000000000000000000000081526004016106b790612ec2565b60405180910390fd5b6004600083815260200190815260200160002060009054906101000a900473ffffffffffffffffffffffffffffffffffffffff169050919050565b600061070682610b39565b90508073ffffffffffffffffffffffffffffffffffffffff168373ffffffffffffffffffffffffffffffffffffffff161415610777576040517f08c379a000000000000000000000000000000000000000000000000000000000815260040161076e90612f02565b60405180910390fd5b8073ffffffffffffffffffffffffffffffffffffffff16610796611477565b73ffffffffffffffffffffffffffffffffffffffff1614806107c557506107c4816107bf611477565b611072565b5b610804576040517f08c379a00000000000000000000000000000000000000000000000000000000081526004016107fb90612e42565b60405180910390fd5b61080e838361147f565b505050565b6000600880549050905090565b61083161082b611477565b82611538565b610870576040517f08c379a000000000000000000000000000000000000000000000000000000000815260040161086790612f22565b60405180910390fd5b61087b838383611616565b505050565b80600b60006101000a81548173ffffffffffffffffffffffffffffffffffffffff021916908373ffffffffffffffffffffffffffffffffffffffff16021790555080600c60006101000a81548173ffffffffffffffffffffffffffffffffffffffff021916908373ffffffffffffffffffffffffffffffffffffffff16021790555050565b600061091083610beb565b8210610951576040517f08c379a000000000000000000000000000000000000000000000000000000000815260040161094890612d42565b60405180910390fd5b600660008473ffffffffffffffffffffffffffffffffffffffff1673ffffffffffffffffffffffffffffffffffffffff168152602001908152602001600020600083815260200190815260200160002054905092915050565b600c60009054906101000a900473ffffffffffffffffffffffffffffffffffffffff1681565b6000600f60009054906101000a900473ffffffffffffffffffffffffffffffffffffffff1673ffffffffffffffffffffffffffffffffffffffff166370a08231336040518263ffffffff1660e01b8152600401610a2d9190612c0f565b60206040518083038186803b158015610a4557600080fd5b505afa158015610a59573d6000803e3d6000fd5b505050506040513d601f19601f82011682018060405250810190610a7d9190612835565b905090565b610a9d83838360405180602001604052806000815250610e2d565b505050565b6000610aac610813565b8210610aed576040517f08c379a0000000000000000000000000000000000000000000000000000000008152600401610ae490612f42565b60405180910390fd5b60088281548110610b27577f4e487b7100000000000000000000000000000000000000000000000000000000600052603260045260246000fd5b90600052602060002001549050919050565b6000806002600084815260200190815260200160002060009054906101000a900473ffffffffffffffffffffffffffffffffffffffff169050600073ffffffffffffffffffffffffffffffffffffffff168173ffffffffffffffffffffffffffffffffffffffff161415610be2576040517f08c379a0000000000000000000000000000000000000000000000000000000008152600401610bd990612e82565b60405180910390fd5b80915050919050565b60008073ffffffffffffffffffffffffffffffffffffffff168273ffffffffffffffffffffffffffffffffffffffff161415610c5c576040517f08c379a0000000000000000000000000000000000000000000000000000000008152600401610c5390612e62565b60405180910390fd5b600360008373ffffffffffffffffffffffffffffffffffffffff1673ffffffffffffffffffffffffffffffffffffffff168152602001908152602001600020549050919050565b610cab611477565b73ffffffffffffffffffffffffffffffffffffffff16610cc9610d35565b73ffffffffffffffffffffffffffffffffffffffff1614610d1f576040517f08c379a0000000000000000000000000000000000000000000000000000000008152600401610d1690612ee2565b60405180910390fd5b610d29600061187d565b565b6000600e54905090565b6000600a60009054906101000a900473ffffffffffffffffffffffffffffffffffffffff16905090565b606060018054610d6e906131fd565b80601f0160208091040260200160405190810160405280929190818152602001828054610d9a906131fd565b8015610de75780601f10610dbc57610100808354040283529160200191610de7565b820191906000526020600020905b815481529060010190602001808311610dca57829003601f168201915b5050505050905090565b610e03610dfc611477565b8383611943565b5050565b600f60009054906101000a900473ffffffffffffffffffffffffffffffffffffffff1681565b610e3e610e38611477565b83611538565b610e7d576040517f08c379a0000000000000000000000000000000000000000000000000000000008152600401610e7490612f22565b60405180910390fd5b610e8984848484611ab0565b50505050565b6060601060008381526020019081526020016000208054610eaf906131fd565b80601f0160208091040260200160405190810160405280929190818152602001828054610edb906131fd565b8015610f285780601f10610efd57610100808354040283529160200191610f28565b820191906000526020600020905b815481529060010190602001808311610f0b57829003601f168201915b50505050509050919050565b60606000610f4183610beb565b905060008167ffffffffffffffff811115610f85577f4e487b7100000000000000000000000000000000000000000000000000000000600052604160045260246000fd5b604051908082528060200260200182016040528015610fbe57816020015b610fab612390565b815260200190600190039081610fa35790505b50905060005b82811015611041576000610fd88683610905565b9050604051806020016040528082815250838381518110611022577f4e487b7100000000000000000000000000000000000000000000000000000000600052603260045260246000fd5b602002602001018190525050808061103990613260565b915050610fc4565b508092505050919050565b600b60009054906101000a900473ffffffffffffffffffffffffffffffffffffffff1681565b6000600560008473ffffffffffffffffffffffffffffffffffffffff1673ffffffffffffffffffffffffffffffffffffffff16815260200190815260200160002060008373ffffffffffffffffffffffffffffffffffffffff1673ffffffffffffffffffffffffffffffffffffffff16815260200190815260200160002060009054906101000a900460ff16905092915050565b61110e611477565b73ffffffffffffffffffffffffffffffffffffffff1661112c610d35565b73ffffffffffffffffffffffffffffffffffffffff1614611182576040517f08c379a000000000000000000000000000000000000000000000000000000000815260040161117990612ee2565b60405180910390fd5b600073ffffffffffffffffffffffffffffffffffffffff168173ffffffffffffffffffffffffffffffffffffffff1614156111f2576040517f08c379a00000000000000000000000000000000000000000000000000000000081526004016111e990612d82565b60405180910390fd5b6111fb8161187d565b50565b6000600f60009054906101000a900473ffffffffffffffffffffffffffffffffffffffff1673ffffffffffffffffffffffffffffffffffffffff166323b872dd33600d60009054906101000a900473ffffffffffffffffffffffffffffffffffffffff16600e546040518463ffffffff1660e01b815260040161128393929190612c2a565b602060405180830381600087803b15801561129d57600080fd5b505af11580156112b1573d6000803e3d6000fd5b505050506040513d601f19601f820116820180604052508101906112d59190612750565b50600060016112e2610813565b6112ec9190613075565b90506112f83382611b0c565b8260106000838152602001908152602001600020908051906020019061131f9291906123a3565b5080915050919050565b60007f80ac58cd000000000000000000000000000000000000000000000000000000007bffffffffffffffffffffffffffffffffffffffffffffffffffffffff1916827bffffffffffffffffffffffffffffffffffffffffffffffffffffffff191614806113f457507f5b5e139f000000000000000000000000000000000000000000000000000000007bffffffffffffffffffffffffffffffffffffffffffffffffffffffff1916827bffffffffffffffffffffffffffffffffffffffffffffffffffffffff1916145b80611404575061140382611ce6565b5b9050919050565b60008073ffffffffffffffffffffffffffffffffffffffff166002600084815260200190815260200160002060009054906101000a900473ffffffffffffffffffffffffffffffffffffffff1673ffffffffffffffffffffffffffffffffffffffff1614159050919050565b600033905090565b816004600083815260200190815260200160002060006101000a81548173ffffffffffffffffffffffffffffffffffffffff021916908373ffffffffffffffffffffffffffffffffffffffff160217905550808273ffffffffffffffffffffffffffffffffffffffff166114f283610b39565b73ffffffffffffffffffffffffffffffffffffffff167f8c5be1e5ebec7d5bd14f71427d1e84f3dd0314c0f7b2291e5b200ac8c7c3b92560405160405180910390a45050565b60006115438261140b565b611582576040517f08c379a000000000000000000000000000000000000000000000000000000000815260040161157990612e22565b60405180910390fd5b600061158d83610b39565b90508073ffffffffffffffffffffffffffffffffffffffff168473ffffffffffffffffffffffffffffffffffffffff1614806115cf57506115ce8185611072565b5b8061160d57508373ffffffffffffffffffffffffffffffffffffffff166115f584610676565b73ffffffffffffffffffffffffffffffffffffffff16145b91505092915050565b8273ffffffffffffffffffffffffffffffffffffffff1661163682610b39565b73ffffffffffffffffffffffffffffffffffffffff161461168c576040517f08c379a000000000000000000000000000000000000000000000000000000000815260040161168390612da2565b60405180910390fd5b600073ffffffffffffffffffffffffffffffffffffffff168273ffffffffffffffffffffffffffffffffffffffff1614156116fc576040517f08c379a00000000000000000000000000000000000000000000000000000000081526004016116f390612de2565b60405180910390fd5b611707838383611d50565b61171260008261147f565b6001600360008573ffffffffffffffffffffffffffffffffffffffff1673ffffffffffffffffffffffffffffffffffffffff168152602001908152602001600020600082825461176291906130cb565b925050819055506001600360008473ffffffffffffffffffffffffffffffffffffffff1673ffffffffffffffffffffffffffffffffffffffff16815260200190815260200160002060008282546117b99190613075565b92505081905550816002600083815260200190815260200160002060006101000a81548173ffffffffffffffffffffffffffffffffffffffff021916908373ffffffffffffffffffffffffffffffffffffffff160217905550808273ffffffffffffffffffffffffffffffffffffffff168473ffffffffffffffffffffffffffffffffffffffff167fddf252ad1be2c89b69c2b068fc378daa952ba7f163c4a11628f55a4df523b3ef60405160405180910390a4611878838383611e64565b505050565b6000600a60009054906101000a900473ffffffffffffffffffffffffffffffffffffffff16905081600a60006101000a81548173ffffffffffffffffffffffffffffffffffffffff021916908373ffffffffffffffffffffffffffffffffffffffff1602179055508173ffffffffffffffffffffffffffffffffffffffff168173ffffffffffffffffffffffffffffffffffffffff167f8be0079c531659141344cd1fd0a4f28419497f9722a3daafe3b4186f6b6457e060405160405180910390a35050565b8173ffffffffffffffffffffffffffffffffffffffff168373ffffffffffffffffffffffffffffffffffffffff1614156119b2576040517f08c379a00000000000000000000000000000000000000000000000000000000081526004016119a990612e02565b60405180910390fd5b80600560008573ffffffffffffffffffffffffffffffffffffffff1673ffffffffffffffffffffffffffffffffffffffff16815260200190815260200160002060008473ffffffffffffffffffffffffffffffffffffffff1673ffffffffffffffffffffffffffffffffffffffff16815260200190815260200160002060006101000a81548160ff0219169083151502179055508173ffffffffffffffffffffffffffffffffffffffff168373ffffffffffffffffffffffffffffffffffffffff167f17307eab39ab6107e8899845ad3d59bd9653f200f220920489ca2b5937696c3183604051611aa39190612ccf565b60405180910390a3505050565b611abb848484611616565b611ac784848484611e69565b611b06576040517f08c379a0000000000000000000000000000000000000000000000000000000008152600401611afd90612d62565b60405180910390fd5b50505050565b600073ffffffffffffffffffffffffffffffffffffffff168273ffffffffffffffffffffffffffffffffffffffff161415611b7c576040517f08c379a0000000000000000000000000000000000000000000000000000000008152600401611b7390612ea2565b60405180910390fd5b611b858161140b565b15611bc5576040517f08c379a0000000000000000000000000000000000000000000000000000000008152600401611bbc90612dc2565b60405180910390fd5b611bd160008383611d50565b6001600360008473ffffffffffffffffffffffffffffffffffffffff1673ffffffffffffffffffffffffffffffffffffffff1681526020019081526020016000206000828254611c219190613075565b92505081905550816002600083815260200190815260200160002060006101000a81548173ffffffffffffffffffffffffffffffffffffffff021916908373ffffffffffffffffffffffffffffffffffffffff160217905550808273ffffffffffffffffffffffffffffffffffffffff16600073ffffffffffffffffffffffffffffffffffffffff167fddf252ad1be2c89b69c2b068fc378daa952ba7f163c4a11628f55a4df523b3ef60405160405180910390a4611ce260008383611e64565b5050565b60007f01ffc9a7000000000000000000000000000000000000000000000000000000007bffffffffffffffffffffffffffffffffffffffffffffffffffffffff1916827bffffffffffffffffffffffffffffffffffffffffffffffffffffffff1916149050919050565b611d5b838383612000565b600073ffffffffffffffffffffffffffffffffffffffff168373ffffffffffffffffffffffffffffffffffffffff161415611d9e57611d9981612005565b611ddd565b8173ffffffffffffffffffffffffffffffffffffffff168373ffffffffffffffffffffffffffffffffffffffff1614611ddc57611ddb838261204e565b5b5b600073ffffffffffffffffffffffffffffffffffffffff168273ffffffffffffffffffffffffffffffffffffffff161415611e2057611e1b816121bb565b611e5f565b8273ffffffffffffffffffffffffffffffffffffffff168273ffffffffffffffffffffffffffffffffffffffff1614611e5e57611e5d82826122fe565b5b5b505050565b505050565b6000611e8a8473ffffffffffffffffffffffffffffffffffffffff1661237d565b15611ff3578373ffffffffffffffffffffffffffffffffffffffff1663150b7a02611eb3611477565b8786866040518563ffffffff1660e01b8152600401611ed59493929190612c61565b602060405180830381600087803b158015611eef57600080fd5b505af1925050508015611f2057506040513d601f19601f82011682018060405250810190611f1d91906127a2565b60015b611fa3573d8060008114611f50576040519150601f19603f3d011682016040523d82523d6000602084013e611f55565b606091505b50600081511415611f9b576040517f08c379a0000000000000000000000000000000000000000000000000000000008152600401611f9290612d62565b60405180910390fd5b805181602001fd5b63150b7a0260e01b7bffffffffffffffffffffffffffffffffffffffffffffffffffffffff1916817bffffffffffffffffffffffffffffffffffffffffffffffffffffffff191614915050611ff8565b600190505b949350505050565b505050565b6008805490506009600083815260200190815260200160002081905550600881908060018154018082558091505060019003906000526020600020016000909190919091505550565b6000600161205b84610beb565b61206591906130cb565b905060006007600084815260200190815260200160002054905081811461214a576000600660008673ffffffffffffffffffffffffffffffffffffffff1673ffffffffffffffffffffffffffffffffffffffff168152602001908152602001600020600084815260200190815260200160002054905080600660008773ffffffffffffffffffffffffffffffffffffffff1673ffffffffffffffffffffffffffffffffffffffff168152602001908152602001600020600084815260200190815260200160002081905550816007600083815260200190815260200160002081905550505b6007600084815260200190815260200160002060009055600660008573ffffffffffffffffffffffffffffffffffffffff1673ffffffffffffffffffffffffffffffffffffffff16815260200190815260200160002060008381526020019081526020016000206000905550505050565b600060016008805490506121cf91906130cb565b9050600060096000848152602001908152602001600020549050600060088381548110612225577f4e487b7100000000000000000000000000000000000000000000000000000000600052603260045260246000fd5b90600052602060002001549050806008838154811061226d577f4e487b7100000000000000000000000000000000000000000000000000000000600052603260045260246000fd5b9060005260206000200181905550816009600083815260200190815260200160002081905550600960008581526020019081526020016000206000905560088054806122e2577f4e487b7100000000000000000000000000000000000000000000000000000000600052603160045260246000fd5b6001900381819060005260206000200160009055905550505050565b600061230983610beb565b905081600660008573ffffffffffffffffffffffffffffffffffffffff1673ffffffffffffffffffffffffffffffffffffffff168152602001908152602001600020600083815260200190815260200160002081905550806007600084815260200190815260200160002081905550505050565b600080823b905060008111915050919050565b6040518060200160405280600081525090565b8280546123af906131fd565b90600052602060002090601f0160209004810192826123d15760008555612418565b82601f106123ea57805160ff1916838001178555612418565b82800160010185558215612418579182015b828111156124175782518255916020019190600101906123fc565b5b5090506124259190612429565b5090565b5b8082111561244257600081600090555060010161242a565b5090565b600061245961245484612fa2565b612f7d565b90508281526020810184848401111561247157600080fd5b61247c8482856131bb565b509392505050565b600061249761249284612fd3565b612f7d565b9050828152602081018484840111156124af57600080fd5b6124ba8482856131bb565b509392505050565b6000813590506124d1816137ee565b92915050565b6000813590506124e681613805565b92915050565b6000815190506124fb81613805565b92915050565b6000813590506125108161381c565b92915050565b6000815190506125258161381c565b92915050565b600082601f83011261253c57600080fd5b813561254c848260208601612446565b91505092915050565b600082601f83011261256657600080fd5b8135612576848260208601612484565b91505092915050565b60008135905061258e81613833565b92915050565b6000815190506125a381613833565b92915050565b6000602082840312156125bb57600080fd5b60006125c9848285016124c2565b91505092915050565b600080604083850312156125e557600080fd5b60006125f3858286016124c2565b9250506020612604858286016124c2565b9150509250929050565b60008060006060848603121561262357600080fd5b6000612631868287016124c2565b9350506020612642868287016124c2565b92505060406126538682870161257f565b9150509250925092565b6000806000806080858703121561267357600080fd5b6000612681878288016124c2565b9450506020612692878288016124c2565b93505060406126a38782880161257f565b925050606085013567ffffffffffffffff8111156126c057600080fd5b6126cc8782880161252b565b91505092959194509250565b600080604083850312156126eb57600080fd5b60006126f9858286016124c2565b925050602061270a858286016124d7565b9150509250929050565b6000806040838503121561272757600080fd5b6000612735858286016124c2565b92505060206127468582860161257f565b9150509250929050565b60006020828403121561276257600080fd5b6000612770848285016124ec565b91505092915050565b60006020828403121561278b57600080fd5b600061279984828501612501565b91505092915050565b6000602082840312156127b457600080fd5b60006127c284828501612516565b91505092915050565b6000602082840312156127dd57600080fd5b600082013567ffffffffffffffff8111156127f757600080fd5b61280384828501612555565b91505092915050565b60006020828403121561281e57600080fd5b600061282c8482850161257f565b91505092915050565b60006020828403121561284757600080fd5b600061285584828501612594565b91505092915050565b600061286a8383612bd5565b60208301905092915050565b61287f816130ff565b82525050565b600061289082613014565b61289a8185613042565b93506128a583613004565b8060005b838110156128d65781516128bd888261285e565b97506128c883613035565b9250506001810190506128a9565b5085935050505092915050565b6128ec81613111565b82525050565b60006128fd8261301f565b6129078185613053565b93506129178185602086016131ca565b61292081613336565b840191505092915050565b61293481613173565b82525050565b61294381613197565b82525050565b60006129548261302a565b61295e8185613064565b935061296e8185602086016131ca565b61297781613336565b840191505092915050565b600061298f602b83613064565b915061299a82613347565b604082019050919050565b60006129b2603283613064565b91506129bd82613396565b604082019050919050565b60006129d5602683613064565b91506129e0826133e5565b604082019050919050565b60006129f8602583613064565b9150612a0382613434565b604082019050919050565b6000612a1b601c83613064565b9150612a2682613483565b602082019050919050565b6000612a3e602483613064565b9150612a49826134ac565b604082019050919050565b6000612a61601983613064565b9150612a6c826134fb565b602082019050919050565b6000612a84602c83613064565b9150612a8f82613524565b604082019050919050565b6000612aa7603883613064565b9150612ab282613573565b604082019050919050565b6000612aca602a83613064565b9150612ad5826135c2565b604082019050919050565b6000612aed602983613064565b9150612af882613611565b604082019050919050565b6000612b10602083613064565b9150612b1b82613660565b602082019050919050565b6000612b33602c83613064565b9150612b3e82613689565b604082019050919050565b6000612b56602083613064565b9150612b61826136d8565b602082019050919050565b6000612b79602183613064565b9150612b8482613701565b604082019050919050565b6000612b9c603183613064565b9150612ba782613750565b604082019050919050565b6000612bbf602c83613064565b9150612bca8261379f565b604082019050919050565b602082016000820151612beb6000850182612bf1565b50505050565b612bfa81613169565b82525050565b612c0981613169565b82525050565b6000602082019050612c246000830184612876565b92915050565b6000606082019050612c3f6000830186612876565b612c4c6020830185612876565b612c596040830184612c00565b949350505050565b6000608082019050612c766000830187612876565b612c836020830186612876565b612c906040830185612c00565b8181036060830152612ca281846128f2565b905095945050505050565b60006020820190508181036000830152612cc78184612885565b905092915050565b6000602082019050612ce460008301846128e3565b92915050565b6000602082019050612cff600083018461292b565b92915050565b6000602082019050612d1a600083018461293a565b92915050565b60006020820190508181036000830152612d3a8184612949565b905092915050565b60006020820190508181036000830152612d5b81612982565b9050919050565b60006020820190508181036000830152612d7b816129a5565b9050919050565b60006020820190508181036000830152612d9b816129c8565b9050919050565b60006020820190508181036000830152612dbb816129eb565b9050919050565b60006020820190508181036000830152612ddb81612a0e565b9050919050565b60006020820190508181036000830152612dfb81612a31565b9050919050565b60006020820190508181036000830152612e1b81612a54565b9050919050565b60006020820190508181036000830152612e3b81612a77565b9050919050565b60006020820190508181036000830152612e5b81612a9a565b9050919050565b60006020820190508181036000830152612e7b81612abd565b9050919050565b60006020820190508181036000830152612e9b81612ae0565b9050919050565b60006020820190508181036000830152612ebb81612b03565b9050919050565b60006020820190508181036000830152612edb81612b26565b9050919050565b60006020820190508181036000830152612efb81612b49565b9050919050565b60006020820190508181036000830152612f1b81612b6c565b9050919050565b60006020820190508181036000830152612f3b81612b8f565b9050919050565b60006020820190508181036000830152612f5b81612bb2565b9050919050565b6000602082019050612f776000830184612c00565b92915050565b6000612f87612f98565b9050612f93828261322f565b919050565b6000604051905090565b600067ffffffffffffffff821115612fbd57612fbc613307565b5b612fc682613336565b9050602081019050919050565b600067ffffffffffffffff821115612fee57612fed613307565b5b612ff782613336565b9050602081019050919050565b6000819050602082019050919050565b600081519050919050565b600081519050919050565b600081519050919050565b6000602082019050919050565b600082825260208201905092915050565b600082825260208201905092915050565b600082825260208201905092915050565b600061308082613169565b915061308b83613169565b9250827fffffffffffffffffffffffffffffffffffffffffffffffffffffffffffffffff038211156130c0576130bf6132a9565b5b828201905092915050565b60006130d682613169565b91506130e183613169565b9250828210156130f4576130f36132a9565b5b828203905092915050565b600061310a82613149565b9050919050565b60008115159050919050565b60007fffffffff0000000000000000000000000000000000000000000000000000000082169050919050565b600073ffffffffffffffffffffffffffffffffffffffff82169050919050565b6000819050919050565b600061317e82613185565b9050919050565b600061319082613149565b9050919050565b60006131a2826131a9565b9050919050565b60006131b482613149565b9050919050565b82818337600083830152505050565b60005b838110156131e85780820151818401526020810190506131cd565b838111156131f7576000848401525b50505050565b6000600282049050600182168061321557607f821691505b60208210811415613229576132286132d8565b5b50919050565b61323882613336565b810181811067ffffffffffffffff8211171561325757613256613307565b5b80604052505050565b600061326b82613169565b91507fffffffffffffffffffffffffffffffffffffffffffffffffffffffffffffffff82141561329e5761329d6132a9565b5b600182019050919050565b7f4e487b7100000000000000000000000000000000000000000000000000000000600052601160045260246000fd5b7f4e487b7100000000000000000000000000000000000000000000000000000000600052602260045260246000fd5b7f4e487b7100000000000000000000000000000000000000000000000000000000600052604160045260246000fd5b6000601f19601f8301169050919050565b7f455243373231456e756d657261626c653a206f776e657220696e646578206f7560008201527f74206f6620626f756e6473000000000000000000000000000000000000000000602082015250565b7f4552433732313a207472616e7366657220746f206e6f6e20455243373231526560008201527f63656976657220696d706c656d656e7465720000000000000000000000000000602082015250565b7f4f776e61626c653a206e6577206f776e657220697320746865207a65726f206160008201527f6464726573730000000000000000000000000000000000000000000000000000602082015250565b7f4552433732313a207472616e736665722066726f6d20696e636f72726563742060008201527f6f776e6572000000000000000000000000000000000000000000000000000000602082015250565b7f4552433732313a20746f6b656e20616c7265616479206d696e74656400000000600082015250565b7f4552433732313a207472616e7366657220746f20746865207a65726f2061646460008201527f7265737300000000000000000000000000000000000000000000000000000000602082015250565b7f4552433732313a20617070726f766520746f2063616c6c657200000000000000600082015250565b7f4552433732313a206f70657261746f7220717565727920666f72206e6f6e657860008201527f697374656e7420746f6b656e0000000000000000000000000000000000000000602082015250565b7f4552433732313a20617070726f76652063616c6c6572206973206e6f74206f7760008201527f6e6572206e6f7220617070726f76656420666f7220616c6c0000000000000000602082015250565b7f4552433732313a2062616c616e636520717565727920666f7220746865207a6560008201527f726f206164647265737300000000000000000000000000000000000000000000602082015250565b7f4552433732313a206f776e657220717565727920666f72206e6f6e657869737460008201527f656e7420746f6b656e0000000000000000000000000000000000000000000000602082015250565b7f4552433732313a206d696e7420746f20746865207a65726f2061646472657373600082015250565b7f4552433732313a20617070726f76656420717565727920666f72206e6f6e657860008201527f697374656e7420746f6b656e0000000000000000000000000000000000000000602082015250565b7f4f776e61626c653a2063616c6c6572206973206e6f7420746865206f776e6572600082015250565b7f4552433732313a20617070726f76616c20746f2063757272656e74206f776e6560008201527f7200000000000000000000000000000000000000000000000000000000000000602082015250565b7f4552433732313a207472616e736665722063616c6c6572206973206e6f74206f60008201527f776e6572206e6f7220617070726f766564000000000000000000000000000000602082015250565b7f455243373231456e756d657261626c653a20676c6f62616c20696e646578206f60008201527f7574206f6620626f756e64730000000000000000000000000000000000000000602082015250565b6137f7816130ff565b811461380257600080fd5b50565b61380e81613111565b811461381957600080fd5b50565b6138258161311d565b811461383057600080fd5b50565b61383c81613169565b811461384757600080fd5b5056fea26469706673582212204fba8a3708bbcd7862c28b42076f714080c7961a1d19ab1649452386bce4d20464736f6c63430008040033",
  "linkReferences": {},
  "deployedLinkReferences": {}
}