{
  "_format": "hh-sol-artifact-1",
  "contractName": "MintTicket",
  "sourceName": "contracts/MintTicket.sol",
  "abi": [
    {
      "inputs": [
        {
          "internalType": "uint256",
          "name": "_price",
          "type": "uint256"
        },
        {
          "internalType": "address",
          "name": "_currencyAddress",
          "type": "address"
        }
      ],
      "stateMutability": "nonpayable",
      "type": "constructor"
    },
    {
      "anonymous": false,
      "inputs": [
        {
          "indexed": true,
          "internalType": "address",
          "name": "owner",
          "type": "address"
        },
        {
          "indexed": true,
          "internalType": "address",
          "name": "approved",
          "type": "address"
        },
        {
          "indexed": true,
          "internalType": "uint256",
          "name": "tokenId",
          "type": "uint256"
        }
      ],
      "name": "Approval",
      "type": "event"
    },
    {
      "anonymous": false,
      "inputs": [
        {
          "indexed": true,
          "internalType": "address",
          "name": "owner",
          "type": "address"
        },
        {
          "indexed": true,
          "internalType": "address",
          "name": "operator",
          "type": "address"
        },
        {
          "indexed": false,
          "internalType": "bool",
          "name": "approved",
          "type": "bool"
        }
      ],
      "name": "ApprovalForAll",
      "type": "event"
    },
    {
      "anonymous": false,
      "inputs": [
        {
          "indexed": true,
          "internalType": "address",
          "name": "previousOwner",
          "type": "address"
        },
        {
          "indexed": true,
          "internalType": "address",
          "name": "newOwner",
          "type": "address"
        }
      ],
      "name": "OwnershipTransferred",
      "type": "event"
    },
    {
      "anonymous": false,
      "inputs": [
        {
          "indexed": true,
          "internalType": "address",
          "name": "from",
          "type": "address"
        },
        {
          "indexed": true,
          "internalType": "address",
          "name": "to",
          "type": "address"
        },
        {
          "indexed": true,
          "internalType": "uint256",
          "name": "tokenId",
          "type": "uint256"
        }
      ],
      "name": "Transfer",
      "type": "event"
    },
    {
      "inputs": [
        {
          "internalType": "address",
          "name": "to",
          "type": "address"
        },
        {
          "internalType": "uint256",
          "name": "tokenId",
          "type": "uint256"
        }
      ],
      "name": "approve",
      "outputs": [],
      "stateMutability": "nonpayable",
      "type": "function"
    },
    {
      "inputs": [
        {
          "internalType": "address",
          "name": "owner",
          "type": "address"
        }
      ],
      "name": "balanceOf",
      "outputs": [
        {
          "internalType": "uint256",
          "name": "",
          "type": "uint256"
        }
      ],
      "stateMutability": "view",
      "type": "function"
    },
    {
      "inputs": [
        {
          "internalType": "string",
          "name": "_tokenURI",
          "type": "string"
        }
      ],
      "name": "buyTicket",
      "outputs": [
        {
          "internalType": "uint256",
          "name": "",
          "type": "uint256"
        }
      ],
      "stateMutability": "nonpayable",
      "type": "function"
    },
    {
      "inputs": [
        {
          "internalType": "uint256",
          "name": "_tokenId",
          "type": "uint256"
        }
      ],
      "name": "cancelTicket",
      "outputs": [],
      "stateMutability": "nonpayable",
      "type": "function"
    },
    {
      "inputs": [],
      "name": "erc20Contract",
      "outputs": [
        {
          "internalType": "contract IERC20",
          "name": "",
          "type": "address"
        }
      ],
      "stateMutability": "view",
      "type": "function"
    },
    {
      "inputs": [
        {
          "internalType": "uint256",
          "name": "tokenId",
          "type": "uint256"
        }
      ],
      "name": "getApproved",
      "outputs": [
        {
          "internalType": "address",
          "name": "",
          "type": "address"
        }
      ],
      "stateMutability": "view",
      "type": "function"
    },
    {
      "inputs": [],
      "name": "getCurrencyAmount",
      "outputs": [
        {
          "internalType": "uint256",
          "name": "",
          "type": "uint256"
        }
      ],
      "stateMutability": "view",
      "type": "function"
    },
    {
      "inputs": [
        {
          "internalType": "address",
          "name": "_mintTicketOwner",
          "type": "address"
        }
      ],
      "name": "getTicketList",
      "outputs": [
        {
          "components": [
            {
              "internalType": "uint256",
              "name": "tokenId",
              "type": "uint256"
            }
          ],
          "internalType": "struct MintTicket.TicketTokenData[]",
          "name": "",
          "type": "tuple[]"
        }
      ],
      "stateMutability": "view",
      "type": "function"
    },
    {
      "inputs": [],
      "name": "getTicketPrice",
      "outputs": [
        {
          "internalType": "uint256",
          "name": "",
          "type": "uint256"
        }
      ],
      "stateMutability": "view",
      "type": "function"
    },
    {
      "inputs": [
        {
          "internalType": "address",
          "name": "owner",
          "type": "address"
        },
        {
          "internalType": "address",
          "name": "operator",
          "type": "address"
        }
      ],
      "name": "isApprovedForAll",
      "outputs": [
        {
          "internalType": "bool",
          "name": "",
          "type": "bool"
        }
      ],
      "stateMutability": "view",
      "type": "function"
    },
    {
      "inputs": [],
      "name": "name",
      "outputs": [
        {
          "internalType": "string",
          "name": "",
          "type": "string"
        }
      ],
      "stateMutability": "view",
      "type": "function"
    },
    {
      "inputs": [],
      "name": "owner",
      "outputs": [
        {
          "internalType": "address",
          "name": "",
          "type": "address"
        }
      ],
      "stateMutability": "view",
      "type": "function"
    },
    {
      "inputs": [
        {
          "internalType": "uint256",
          "name": "tokenId",
          "type": "uint256"
        }
      ],
      "name": "ownerOf",
      "outputs": [
        {
          "internalType": "address",
          "name": "",
          "type": "address"
        }
      ],
      "stateMutability": "view",
      "type": "function"
    },
    {
      "inputs": [],
      "name": "renounceOwnership",
      "outputs": [],
      "stateMutability": "nonpayable",
      "type": "function"
    },
    {
      "inputs": [
        {
          "internalType": "address",
          "name": "from",
          "type": "address"
        },
        {
          "internalType": "address",
          "name": "to",
          "type": "address"
        },
        {
          "internalType": "uint256",
          "name": "tokenId",
          "type": "uint256"
        }
      ],
      "name": "safeTransferFrom",
      "outputs": [],
      "stateMutability": "nonpayable",
      "type": "function"
    },
    {
      "inputs": [
        {
          "internalType": "address",
          "name": "from",
          "type": "address"
        },
        {
          "internalType": "address",
          "name": "to",
          "type": "address"
        },
        {
          "internalType": "uint256",
          "name": "tokenId",
          "type": "uint256"
        },
        {
          "internalType": "bytes",
          "name": "_data",
          "type": "bytes"
        }
      ],
      "name": "safeTransferFrom",
      "outputs": [],
      "stateMutability": "nonpayable",
      "type": "function"
    },
    {
      "inputs": [],
      "name": "saleContractAddress",
      "outputs": [
        {
          "internalType": "address",
          "name": "",
          "type": "address"
        }
      ],
      "stateMutability": "view",
      "type": "function"
    },
    {
      "inputs": [],
      "name": "saleTicket",
      "outputs": [
        {
          "internalType": "contract SaleTicket",
          "name": "",
          "type": "address"
        }
      ],
      "stateMutability": "view",
      "type": "function"
    },
    {
      "inputs": [
        {
          "internalType": "address",
          "name": "operator",
          "type": "address"
        },
        {
          "internalType": "bool",
          "name": "approved",
          "type": "bool"
        }
      ],
      "name": "setApprovalForAll",
      "outputs": [],
      "stateMutability": "nonpayable",
      "type": "function"
    },
    {
      "inputs": [
        {
          "internalType": "address",
          "name": "_setSaleTicket",
          "type": "address"
        }
      ],
      "name": "setSaleTicket",
      "outputs": [],
      "stateMutability": "nonpayable",
      "type": "function"
    },
    {
      "inputs": [
        {
          "internalType": "bytes4",
          "name": "interfaceId",
          "type": "bytes4"
        }
      ],
      "name": "supportsInterface",
      "outputs": [
        {
          "internalType": "bool",
          "name": "",
          "type": "bool"
        }
      ],
      "stateMutability": "view",
      "type": "function"
    },
    {
      "inputs": [],
      "name": "symbol",
      "outputs": [
        {
          "internalType": "string",
          "name": "",
          "type": "string"
        }
      ],
      "stateMutability": "view",
      "type": "function"
    },
    {
      "inputs": [
        {
          "internalType": "uint256",
          "name": "index",
          "type": "uint256"
        }
      ],
      "name": "tokenByIndex",
      "outputs": [
        {
          "internalType": "uint256",
          "name": "",
          "type": "uint256"
        }
      ],
      "stateMutability": "view",
      "type": "function"
    },
    {
      "inputs": [
        {
          "internalType": "address",
          "name": "owner",
          "type": "address"
        },
        {
          "internalType": "uint256",
          "name": "index",
          "type": "uint256"
        }
      ],
      "name": "tokenOfOwnerByIndex",
      "outputs": [
        {
          "internalType": "uint256",
          "name": "",
          "type": "uint256"
        }
      ],
      "stateMutability": "view",
      "type": "function"
    },
    {
      "inputs": [
        {
          "internalType": "uint256",
          "name": "tokenId",
          "type": "uint256"
        }
      ],
      "name": "tokenURI",
      "outputs": [
        {
          "internalType": "string",
          "name": "",
          "type": "string"
        }
      ],
      "stateMutability": "view",
      "type": "function"
    },
    {
      "inputs": [],
      "name": "totalSupply",
      "outputs": [
        {
          "internalType": "uint256",
          "name": "",
          "type": "uint256"
        }
      ],
      "stateMutability": "view",
      "type": "function"
    },
    {
      "inputs": [
        {
          "internalType": "address",
          "name": "from",
          "type": "address"
        },
        {
          "internalType": "address",
          "name": "to",
          "type": "address"
        },
        {
          "internalType": "uint256",
          "name": "tokenId",
          "type": "uint256"
        }
      ],
      "name": "transferFrom",
      "outputs": [],
      "stateMutability": "nonpayable",
      "type": "function"
    },
    {
      "inputs": [
        {
          "internalType": "address",
          "name": "newOwner",
          "type": "address"
        }
      ],
      "name": "transferOwnership",
      "outputs": [],
      "stateMutability": "nonpayable",
      "type": "function"
    },
    {
      "inputs": [],
      "name": "withdraw",
      "outputs": [],
      "stateMutability": "nonpayable",
      "type": "function"
    }
  ],
  "bytecode": "0x60806040523480156200001157600080fd5b506040516200472c3803806200472c833981810160405281019062000037919062000375565b6040518060400160405280600881526020017f4d494e54204e46540000000000000000000000000000000000000000000000008152506040518060400160405280600381526020017f4d4e5400000000000000000000000000000000000000000000000000000000008152508160009080519060200190620000bb92919062000297565b508060019080519060200190620000d492919062000297565b505050620000f7620000eb620001c960201b60201c565b620001d160201b60201c565b30600d60006101000a81548173ffffffffffffffffffffffffffffffffffffffff021916908373ffffffffffffffffffffffffffffffffffffffff16021790555033600e60006101000a81548173ffffffffffffffffffffffffffffffffffffffff021916908373ffffffffffffffffffffffffffffffffffffffff16021790555081600f8190555080601060006101000a81548173ffffffffffffffffffffffffffffffffffffffff021916908373ffffffffffffffffffffffffffffffffffffffff16021790555050506200048d565b600033905090565b6000600a60009054906101000a900473ffffffffffffffffffffffffffffffffffffffff16905081600a60006101000a81548173ffffffffffffffffffffffffffffffffffffffff021916908373ffffffffffffffffffffffffffffffffffffffff1602179055508173ffffffffffffffffffffffffffffffffffffffff168173ffffffffffffffffffffffffffffffffffffffff167f8be0079c531659141344cd1fd0a4f28419497f9722a3daafe3b4186f6b6457e060405160405180910390a35050565b828054620002a590620003f4565b90600052602060002090601f016020900481019282620002c9576000855562000315565b82601f10620002e457805160ff191683800117855562000315565b8280016001018555821562000315579182015b8281111562000314578251825591602001919060010190620002f7565b5b50905062000324919062000328565b5090565b5b808211156200034357600081600090555060010162000329565b5090565b600081519050620003588162000459565b92915050565b6000815190506200036f8162000473565b92915050565b600080604083850312156200038957600080fd5b600062000399858286016200035e565b9250506020620003ac8582860162000347565b9150509250929050565b6000620003c382620003ca565b9050919050565b600073ffffffffffffffffffffffffffffffffffffffff82169050919050565b6000819050919050565b600060028204905060018216806200040d57607f821691505b602082108114156200042457620004236200042a565b5b50919050565b7f4e487b7100000000000000000000000000000000000000000000000000000000600052602260045260246000fd5b6200046481620003b6565b81146200047057600080fd5b50565b6200047e81620003ea565b81146200048a57600080fd5b50565b61428f806200049d6000396000f3fe608060405234801561001057600080fd5b50600436106101cf5760003560e01c806370a0823111610104578063b88d4fde116100a2578063e985e9c511610071578063e985e9c51461051e578063ee355b1f1461054e578063f2fde38b1461056a578063fa30b25114610586576101cf565b8063b88d4fde14610484578063c87b56dd146104a0578063cc71e05f146104d0578063d274eb8b14610500576101cf565b80638da5cb5b116100de5780638da5cb5b1461040e57806395d89b411461042c578063a22cb4651461044a578063a8f6c91314610466576101cf565b806370a08231146103b6578063715018a6146103e657806387bb7ae0146103f0576101cf565b80632f745c59116101715780633f31545c1161014b5780633f31545c1461031c57806342842e0e1461033a5780634f6ccce7146103565780636352211e14610386576101cf565b80632f745c59146102c4578063321328f6146102f45780633ccfd60b14610312576101cf565b8063095ea7b3116101ad578063095ea7b31461025257806318160ddd1461026e57806323b872dd1461028c57806326dbb3e0146102a8576101cf565b806301ffc9a7146101d457806306fdde0314610204578063081812fc14610222575b600080fd5b6101ee60048036038101906101e99190612f43565b6105b6565b6040516101fb9190613571565b60405180910390f35b61020c610630565b60405161021991906135c2565b60405180910390f35b61023c60048036038101906102379190612fd6565b6106c2565b6040516102499190613488565b60405180910390f35b61026c60048036038101906102679190612ede565b610747565b005b61027661085f565b60405161028391906138a4565b60405180910390f35b6102a660048036038101906102a19190612dd8565b61086c565b005b6102c260048036038101906102bd9190612d73565b6108cc565b005b6102de60048036038101906102d99190612ede565b610951565b6040516102eb91906138a4565b60405180910390f35b6102fc6109f6565b6040516103099190613488565b60405180910390f35b61031a610a1c565b005b610324610d8b565b60405161033191906138a4565b60405180910390f35b610354600480360381019061034f9190612dd8565b610e3d565b005b610370600480360381019061036b9190612fd6565b610e5d565b60405161037d91906138a4565b60405180910390f35b6103a0600480360381019061039b9190612fd6565b610ef4565b6040516103ad9190613488565b60405180910390f35b6103d060048036038101906103cb9190612d73565b610fa6565b6040516103dd91906138a4565b60405180910390f35b6103ee61105e565b005b6103f86110e6565b60405161040591906138a4565b60405180910390f35b6104166110f0565b6040516104239190613488565b60405180910390f35b61043461111a565b60405161044191906135c2565b60405180910390f35b610464600480360381019061045f9190612ea2565b6111ac565b005b61046e6111c2565b60405161047b919061358c565b60405180910390f35b61049e60048036038101906104999190612e27565b6111e8565b005b6104ba60048036038101906104b59190612fd6565b61124a565b6040516104c791906135c2565b60405180910390f35b6104ea60048036038101906104e59190612d73565b6112ef565b6040516104f7919061354f565b60405180910390f35b61050861144b565b60405161051591906135a7565b60405180910390f35b61053860048036038101906105339190612d9c565b611471565b6040516105459190613571565b60405180910390f35b61056860048036038101906105639190612fd6565b611505565b005b610584600480360381019061057f9190612d73565b611737565b005b6105a0600480360381019061059b9190612f95565b61182f565b6040516105ad91906138a4565b60405180910390f35b60007f780e9d63000000000000000000000000000000000000000000000000000000007bffffffffffffffffffffffffffffffffffffffffffffffffffffffff1916827bffffffffffffffffffffffffffffffffffffffffffffffffffffffff191614806106295750610628826119d6565b5b9050919050565b60606000805461063f90613b3f565b80601f016020809104026020016040519081016040528092919081815260200182805461066b90613b3f565b80156106b85780601f1061068d576101008083540402835291602001916106b8565b820191906000526020600020905b81548152906001019060200180831161069b57829003601f168201915b5050505050905090565b60006106cd82611ab8565b61070c576040517f08c379a0000000000000000000000000000000000000000000000000000000008152600401610703906137a4565b60405180910390fd5b6004600083815260200190815260200160002060009054906101000a900473ffffffffffffffffffffffffffffffffffffffff169050919050565b600061075282610ef4565b90508073ffffffffffffffffffffffffffffffffffffffff168373ffffffffffffffffffffffffffffffffffffffff1614156107c3576040517f08c379a00000000000000000000000000000000000000000000000000000000081526004016107ba906137e4565b60405180910390fd5b8073ffffffffffffffffffffffffffffffffffffffff166107e2611b24565b73ffffffffffffffffffffffffffffffffffffffff16148061081157506108108161080b611b24565b611471565b5b610850576040517f08c379a000000000000000000000000000000000000000000000000000000000815260040161084790613724565b60405180910390fd5b61085a8383611b2c565b505050565b6000600880549050905090565b61087d610877611b24565b82611be5565b6108bc576040517f08c379a00000000000000000000000000000000000000000000000000000000081526004016108b390613804565b60405180910390fd5b6108c7838383611cc3565b505050565b80600b60006101000a81548173ffffffffffffffffffffffffffffffffffffffff021916908373ffffffffffffffffffffffffffffffffffffffff16021790555080600c60006101000a81548173ffffffffffffffffffffffffffffffffffffffff021916908373ffffffffffffffffffffffffffffffffffffffff16021790555050565b600061095c83610fa6565b821061099d576040517f08c379a000000000000000000000000000000000000000000000000000000000815260040161099490613604565b60405180910390fd5b600660008473ffffffffffffffffffffffffffffffffffffffff1673ffffffffffffffffffffffffffffffffffffffff168152602001908152602001600020600083815260200190815260200160002054905092915050565b600c60009054906101000a900473ffffffffffffffffffffffffffffffffffffffff1681565b6000601060009054906101000a900473ffffffffffffffffffffffffffffffffffffffff1673ffffffffffffffffffffffffffffffffffffffff166370a08231600d60009054906101000a900473ffffffffffffffffffffffffffffffffffffffff166040518263ffffffff1660e01b8152600401610a9b9190613488565b60206040518083038186803b158015610ab357600080fd5b505afa158015610ac7573d6000803e3d6000fd5b505050506040513d601f19601f82011682018060405250810190610aeb9190612fff565b90503373ffffffffffffffffffffffffffffffffffffffff16600e60009054906101000a900473ffffffffffffffffffffffffffffffffffffffff1673ffffffffffffffffffffffffffffffffffffffff1614610b7d576040517f08c379a0000000000000000000000000000000000000000000000000000000008152600401610b7490613884565b60405180910390fd5b60008111610bc0576040517f08c379a0000000000000000000000000000000000000000000000000000000008152600401610bb790613864565b60405180910390fd5b601060009054906101000a900473ffffffffffffffffffffffffffffffffffffffff1673ffffffffffffffffffffffffffffffffffffffff1663095ea7b3600d60009054906101000a900473ffffffffffffffffffffffffffffffffffffffff16836040518363ffffffff1660e01b8152600401610c3f929190613526565b602060405180830381600087803b158015610c5957600080fd5b505af1158015610c6d573d6000803e3d6000fd5b505050506040513d601f19601f82011682018060405250810190610c919190612f1a565b50601060009054906101000a900473ffffffffffffffffffffffffffffffffffffffff1673ffffffffffffffffffffffffffffffffffffffff166323b872dd600d60009054906101000a900473ffffffffffffffffffffffffffffffffffffffff16600e60009054906101000a900473ffffffffffffffffffffffffffffffffffffffff16846040518463ffffffff1660e01b8152600401610d35939291906134a3565b602060405180830381600087803b158015610d4f57600080fd5b505af1158015610d63573d6000803e3d6000fd5b505050506040513d601f19601f82011682018060405250810190610d879190612f1a565b5050565b6000601060009054906101000a900473ffffffffffffffffffffffffffffffffffffffff1673ffffffffffffffffffffffffffffffffffffffff166370a08231336040518263ffffffff1660e01b8152600401610de89190613488565b60206040518083038186803b158015610e0057600080fd5b505afa158015610e14573d6000803e3d6000fd5b505050506040513d601f19601f82011682018060405250810190610e389190612fff565b905090565b610e58838383604051806020016040528060008152506111e8565b505050565b6000610e6761085f565b8210610ea8576040517f08c379a0000000000000000000000000000000000000000000000000000000008152600401610e9f90613824565b60405180910390fd5b60088281548110610ee2577f4e487b7100000000000000000000000000000000000000000000000000000000600052603260045260246000fd5b90600052602060002001549050919050565b6000806002600084815260200190815260200160002060009054906101000a900473ffffffffffffffffffffffffffffffffffffffff169050600073ffffffffffffffffffffffffffffffffffffffff168173ffffffffffffffffffffffffffffffffffffffff161415610f9d576040517f08c379a0000000000000000000000000000000000000000000000000000000008152600401610f9490613764565b60405180910390fd5b80915050919050565b60008073ffffffffffffffffffffffffffffffffffffffff168273ffffffffffffffffffffffffffffffffffffffff161415611017576040517f08c379a000000000000000000000000000000000000000000000000000000000815260040161100e90613744565b60405180910390fd5b600360008373ffffffffffffffffffffffffffffffffffffffff1673ffffffffffffffffffffffffffffffffffffffff168152602001908152602001600020549050919050565b611066611b24565b73ffffffffffffffffffffffffffffffffffffffff166110846110f0565b73ffffffffffffffffffffffffffffffffffffffff16146110da576040517f08c379a00000000000000000000000000000000000000000000000000000000081526004016110d1906137c4565b60405180910390fd5b6110e46000611f2a565b565b6000600f54905090565b6000600a60009054906101000a900473ffffffffffffffffffffffffffffffffffffffff16905090565b60606001805461112990613b3f565b80601f016020809104026020016040519081016040528092919081815260200182805461115590613b3f565b80156111a25780601f10611177576101008083540402835291602001916111a2565b820191906000526020600020905b81548152906001019060200180831161118557829003601f168201915b5050505050905090565b6111be6111b7611b24565b8383611ff0565b5050565b601060009054906101000a900473ffffffffffffffffffffffffffffffffffffffff1681565b6111f96111f3611b24565b83611be5565b611238576040517f08c379a000000000000000000000000000000000000000000000000000000000815260040161122f90613804565b60405180910390fd5b6112448484848461215d565b50505050565b606060116000838152602001908152602001600020805461126a90613b3f565b80601f016020809104026020016040519081016040528092919081815260200182805461129690613b3f565b80156112e35780601f106112b8576101008083540402835291602001916112e3565b820191906000526020600020905b8154815290600101906020018083116112c657829003601f168201915b50505050509050919050565b606060006112fc83610fa6565b90506000811415611342576040517f08c379a000000000000000000000000000000000000000000000000000000000815260040161133990613844565b60405180910390fd5b60008167ffffffffffffffff811115611384577f4e487b7100000000000000000000000000000000000000000000000000000000600052604160045260246000fd5b6040519080825280602002602001820160405280156113bd57816020015b6113aa612b5a565b8152602001906001900390816113a25790505b50905060005b828110156114405760006113d78683610951565b9050604051806020016040528082815250838381518110611421577f4e487b7100000000000000000000000000000000000000000000000000000000600052603260045260246000fd5b602002602001018190525050808061143890613ba2565b9150506113c3565b508092505050919050565b600b60009054906101000a900473ffffffffffffffffffffffffffffffffffffffff1681565b6000600560008473ffffffffffffffffffffffffffffffffffffffff1673ffffffffffffffffffffffffffffffffffffffff16815260200190815260200160002060008373ffffffffffffffffffffffffffffffffffffffff1673ffffffffffffffffffffffffffffffffffffffff16815260200190815260200160002060009054906101000a900460ff16905092915050565b600061151082610ef4565b90503373ffffffffffffffffffffffffffffffffffffffff168173ffffffffffffffffffffffffffffffffffffffff1614611580576040517f08c379a000000000000000000000000000000000000000000000000000000000815260040161157790613664565b60405180910390fd5b611589826121b9565b601060009054906101000a900473ffffffffffffffffffffffffffffffffffffffff1673ffffffffffffffffffffffffffffffffffffffff1663095ea7b3600d60009054906101000a900473ffffffffffffffffffffffffffffffffffffffff16600f546040518363ffffffff1660e01b815260040161160a929190613526565b602060405180830381600087803b15801561162457600080fd5b505af1158015611638573d6000803e3d6000fd5b505050506040513d601f19601f8201168201806040525081019061165c9190612f1a565b50601060009054906101000a900473ffffffffffffffffffffffffffffffffffffffff1673ffffffffffffffffffffffffffffffffffffffff166323b872dd600d60009054906101000a900473ffffffffffffffffffffffffffffffffffffffff1633600f546040518463ffffffff1660e01b81526004016116e0939291906134a3565b602060405180830381600087803b1580156116fa57600080fd5b505af115801561170e573d6000803e3d6000fd5b505050506040513d601f19601f820116820180604052508101906117329190612f1a565b505050565b61173f611b24565b73ffffffffffffffffffffffffffffffffffffffff1661175d6110f0565b73ffffffffffffffffffffffffffffffffffffffff16146117b3576040517f08c379a00000000000000000000000000000000000000000000000000000000081526004016117aa906137c4565b60405180910390fd5b600073ffffffffffffffffffffffffffffffffffffffff168173ffffffffffffffffffffffffffffffffffffffff161415611823576040517f08c379a000000000000000000000000000000000000000000000000000000000815260040161181a90613644565b60405180910390fd5b61182c81611f2a565b50565b600080600161183c61085f565b61184691906139b7565b9050600061185333610fa6565b905060008114611898576040517f08c379a000000000000000000000000000000000000000000000000000000000815260040161188f906135e4565b60405180910390fd5b601060009054906101000a900473ffffffffffffffffffffffffffffffffffffffff1673ffffffffffffffffffffffffffffffffffffffff166323b872dd33600d60009054906101000a900473ffffffffffffffffffffffffffffffffffffffff16600f546040518463ffffffff1660e01b815260040161191b939291906134a3565b602060405180830381600087803b15801561193557600080fd5b505af1158015611949573d6000803e3d6000fd5b505050506040513d601f19601f8201168201806040525081019061196d9190612f1a565b5061197833836122d6565b8360116000848152602001908152602001600020908051906020019061199f929190612b6d565b506119cc600c60009054906101000a900473ffffffffffffffffffffffffffffffffffffffff1683610747565b8192505050919050565b60007f80ac58cd000000000000000000000000000000000000000000000000000000007bffffffffffffffffffffffffffffffffffffffffffffffffffffffff1916827bffffffffffffffffffffffffffffffffffffffffffffffffffffffff19161480611aa157507f5b5e139f000000000000000000000000000000000000000000000000000000007bffffffffffffffffffffffffffffffffffffffffffffffffffffffff1916827bffffffffffffffffffffffffffffffffffffffffffffffffffffffff1916145b80611ab15750611ab0826124b0565b5b9050919050565b60008073ffffffffffffffffffffffffffffffffffffffff166002600084815260200190815260200160002060009054906101000a900473ffffffffffffffffffffffffffffffffffffffff1673ffffffffffffffffffffffffffffffffffffffff1614159050919050565b600033905090565b816004600083815260200190815260200160002060006101000a81548173ffffffffffffffffffffffffffffffffffffffff021916908373ffffffffffffffffffffffffffffffffffffffff160217905550808273ffffffffffffffffffffffffffffffffffffffff16611b9f83610ef4565b73ffffffffffffffffffffffffffffffffffffffff167f8c5be1e5ebec7d5bd14f71427d1e84f3dd0314c0f7b2291e5b200ac8c7c3b92560405160405180910390a45050565b6000611bf082611ab8565b611c2f576040517f08c379a0000000000000000000000000000000000000000000000000000000008152600401611c2690613704565b60405180910390fd5b6000611c3a83610ef4565b90508073ffffffffffffffffffffffffffffffffffffffff168473ffffffffffffffffffffffffffffffffffffffff161480611c7c5750611c7b8185611471565b5b80611cba57508373ffffffffffffffffffffffffffffffffffffffff16611ca2846106c2565b73ffffffffffffffffffffffffffffffffffffffff16145b91505092915050565b8273ffffffffffffffffffffffffffffffffffffffff16611ce382610ef4565b73ffffffffffffffffffffffffffffffffffffffff1614611d39576040517f08c379a0000000000000000000000000000000000000000000000000000000008152600401611d3090613684565b60405180910390fd5b600073ffffffffffffffffffffffffffffffffffffffff168273ffffffffffffffffffffffffffffffffffffffff161415611da9576040517f08c379a0000000000000000000000000000000000000000000000000000000008152600401611da0906136c4565b60405180910390fd5b611db483838361251a565b611dbf600082611b2c565b6001600360008573ffffffffffffffffffffffffffffffffffffffff1673ffffffffffffffffffffffffffffffffffffffff1681526020019081526020016000206000828254611e0f9190613a0d565b925050819055506001600360008473ffffffffffffffffffffffffffffffffffffffff1673ffffffffffffffffffffffffffffffffffffffff1681526020019081526020016000206000828254611e6691906139b7565b92505081905550816002600083815260200190815260200160002060006101000a81548173ffffffffffffffffffffffffffffffffffffffff021916908373ffffffffffffffffffffffffffffffffffffffff160217905550808273ffffffffffffffffffffffffffffffffffffffff168473ffffffffffffffffffffffffffffffffffffffff167fddf252ad1be2c89b69c2b068fc378daa952ba7f163c4a11628f55a4df523b3ef60405160405180910390a4611f2583838361262e565b505050565b6000600a60009054906101000a900473ffffffffffffffffffffffffffffffffffffffff16905081600a60006101000a81548173ffffffffffffffffffffffffffffffffffffffff021916908373ffffffffffffffffffffffffffffffffffffffff1602179055508173ffffffffffffffffffffffffffffffffffffffff168173ffffffffffffffffffffffffffffffffffffffff167f8be0079c531659141344cd1fd0a4f28419497f9722a3daafe3b4186f6b6457e060405160405180910390a35050565b8173ffffffffffffffffffffffffffffffffffffffff168373ffffffffffffffffffffffffffffffffffffffff16141561205f576040517f08c379a0000000000000000000000000000000000000000000000000000000008152600401612056906136e4565b60405180910390fd5b80600560008573ffffffffffffffffffffffffffffffffffffffff1673ffffffffffffffffffffffffffffffffffffffff16815260200190815260200160002060008473ffffffffffffffffffffffffffffffffffffffff1673ffffffffffffffffffffffffffffffffffffffff16815260200190815260200160002060006101000a81548160ff0219169083151502179055508173ffffffffffffffffffffffffffffffffffffffff168373ffffffffffffffffffffffffffffffffffffffff167f17307eab39ab6107e8899845ad3d59bd9653f200f220920489ca2b5937696c31836040516121509190613571565b60405180910390a3505050565b612168848484611cc3565b61217484848484612633565b6121b3576040517f08c379a00000000000000000000000000000000000000000000000000000000081526004016121aa90613624565b60405180910390fd5b50505050565b60006121c482610ef4565b90506121d28160008461251a565b6121dd600083611b2c565b6001600360008373ffffffffffffffffffffffffffffffffffffffff1673ffffffffffffffffffffffffffffffffffffffff168152602001908152602001600020600082825461222d9190613a0d565b925050819055506002600083815260200190815260200160002060006101000a81549073ffffffffffffffffffffffffffffffffffffffff021916905581600073ffffffffffffffffffffffffffffffffffffffff168273ffffffffffffffffffffffffffffffffffffffff167fddf252ad1be2c89b69c2b068fc378daa952ba7f163c4a11628f55a4df523b3ef60405160405180910390a46122d28160008461262e565b5050565b600073ffffffffffffffffffffffffffffffffffffffff168273ffffffffffffffffffffffffffffffffffffffff161415612346576040517f08c379a000000000000000000000000000000000000000000000000000000000815260040161233d90613784565b60405180910390fd5b61234f81611ab8565b1561238f576040517f08c379a0000000000000000000000000000000000000000000000000000000008152600401612386906136a4565b60405180910390fd5b61239b6000838361251a565b6001600360008473ffffffffffffffffffffffffffffffffffffffff1673ffffffffffffffffffffffffffffffffffffffff16815260200190815260200160002060008282546123eb91906139b7565b92505081905550816002600083815260200190815260200160002060006101000a81548173ffffffffffffffffffffffffffffffffffffffff021916908373ffffffffffffffffffffffffffffffffffffffff160217905550808273ffffffffffffffffffffffffffffffffffffffff16600073ffffffffffffffffffffffffffffffffffffffff167fddf252ad1be2c89b69c2b068fc378daa952ba7f163c4a11628f55a4df523b3ef60405160405180910390a46124ac6000838361262e565b5050565b60007f01ffc9a7000000000000000000000000000000000000000000000000000000007bffffffffffffffffffffffffffffffffffffffffffffffffffffffff1916827bffffffffffffffffffffffffffffffffffffffffffffffffffffffff1916149050919050565b6125258383836127ca565b600073ffffffffffffffffffffffffffffffffffffffff168373ffffffffffffffffffffffffffffffffffffffff16141561256857612563816127cf565b6125a7565b8173ffffffffffffffffffffffffffffffffffffffff168373ffffffffffffffffffffffffffffffffffffffff16146125a6576125a58382612818565b5b5b600073ffffffffffffffffffffffffffffffffffffffff168273ffffffffffffffffffffffffffffffffffffffff1614156125ea576125e581612985565b612629565b8273ffffffffffffffffffffffffffffffffffffffff168273ffffffffffffffffffffffffffffffffffffffff1614612628576126278282612ac8565b5b5b505050565b505050565b60006126548473ffffffffffffffffffffffffffffffffffffffff16612b47565b156127bd578373ffffffffffffffffffffffffffffffffffffffff1663150b7a0261267d611b24565b8786866040518563ffffffff1660e01b815260040161269f94939291906134da565b602060405180830381600087803b1580156126b957600080fd5b505af19250505080156126ea57506040513d601f19601f820116820180604052508101906126e79190612f6c565b60015b61276d573d806000811461271a576040519150601f19603f3d011682016040523d82523d6000602084013e61271f565b606091505b50600081511415612765576040517f08c379a000000000000000000000000000000000000000000000000000000000815260040161275c90613624565b60405180910390fd5b805181602001fd5b63150b7a0260e01b7bffffffffffffffffffffffffffffffffffffffffffffffffffffffff1916817bffffffffffffffffffffffffffffffffffffffffffffffffffffffff1916149150506127c2565b600190505b949350505050565b505050565b6008805490506009600083815260200190815260200160002081905550600881908060018154018082558091505060019003906000526020600020016000909190919091505550565b6000600161282584610fa6565b61282f9190613a0d565b9050600060076000848152602001908152602001600020549050818114612914576000600660008673ffffffffffffffffffffffffffffffffffffffff1673ffffffffffffffffffffffffffffffffffffffff168152602001908152602001600020600084815260200190815260200160002054905080600660008773ffffffffffffffffffffffffffffffffffffffff1673ffffffffffffffffffffffffffffffffffffffff168152602001908152602001600020600084815260200190815260200160002081905550816007600083815260200190815260200160002081905550505b6007600084815260200190815260200160002060009055600660008573ffffffffffffffffffffffffffffffffffffffff1673ffffffffffffffffffffffffffffffffffffffff16815260200190815260200160002060008381526020019081526020016000206000905550505050565b600060016008805490506129999190613a0d565b90506000600960008481526020019081526020016000205490506000600883815481106129ef577f4e487b7100000000000000000000000000000000000000000000000000000000600052603260045260246000fd5b906000526020600020015490508060088381548110612a37577f4e487b7100000000000000000000000000000000000000000000000000000000600052603260045260246000fd5b906000526020600020018190555081600960008381526020019081526020016000208190555060096000858152602001908152602001600020600090556008805480612aac577f4e487b7100000000000000000000000000000000000000000000000000000000600052603160045260246000fd5b6001900381819060005260206000200160009055905550505050565b6000612ad383610fa6565b905081600660008573ffffffffffffffffffffffffffffffffffffffff1673ffffffffffffffffffffffffffffffffffffffff168152602001908152602001600020600083815260200190815260200160002081905550806007600084815260200190815260200160002081905550505050565b600080823b905060008111915050919050565b6040518060200160405280600081525090565b828054612b7990613b3f565b90600052602060002090601f016020900481019282612b9b5760008555612be2565b82601f10612bb457805160ff1916838001178555612be2565b82800160010185558215612be2579182015b82811115612be1578251825591602001919060010190612bc6565b5b509050612bef9190612bf3565b5090565b5b80821115612c0c576000816000905550600101612bf4565b5090565b6000612c23612c1e846138e4565b6138bf565b905082815260208101848484011115612c3b57600080fd5b612c46848285613afd565b509392505050565b6000612c61612c5c84613915565b6138bf565b905082815260208101848484011115612c7957600080fd5b612c84848285613afd565b509392505050565b600081359050612c9b816141fd565b92915050565b600081359050612cb081614214565b92915050565b600081519050612cc581614214565b92915050565b600081359050612cda8161422b565b92915050565b600081519050612cef8161422b565b92915050565b600082601f830112612d0657600080fd5b8135612d16848260208601612c10565b91505092915050565b600082601f830112612d3057600080fd5b8135612d40848260208601612c4e565b91505092915050565b600081359050612d5881614242565b92915050565b600081519050612d6d81614242565b92915050565b600060208284031215612d8557600080fd5b6000612d9384828501612c8c565b91505092915050565b60008060408385031215612daf57600080fd5b6000612dbd85828601612c8c565b9250506020612dce85828601612c8c565b9150509250929050565b600080600060608486031215612ded57600080fd5b6000612dfb86828701612c8c565b9350506020612e0c86828701612c8c565b9250506040612e1d86828701612d49565b9150509250925092565b60008060008060808587031215612e3d57600080fd5b6000612e4b87828801612c8c565b9450506020612e5c87828801612c8c565b9350506040612e6d87828801612d49565b925050606085013567ffffffffffffffff811115612e8a57600080fd5b612e9687828801612cf5565b91505092959194509250565b60008060408385031215612eb557600080fd5b6000612ec385828601612c8c565b9250506020612ed485828601612ca1565b9150509250929050565b60008060408385031215612ef157600080fd5b6000612eff85828601612c8c565b9250506020612f1085828601612d49565b9150509250929050565b600060208284031215612f2c57600080fd5b6000612f3a84828501612cb6565b91505092915050565b600060208284031215612f5557600080fd5b6000612f6384828501612ccb565b91505092915050565b600060208284031215612f7e57600080fd5b6000612f8c84828501612ce0565b91505092915050565b600060208284031215612fa757600080fd5b600082013567ffffffffffffffff811115612fc157600080fd5b612fcd84828501612d1f565b91505092915050565b600060208284031215612fe857600080fd5b6000612ff684828501612d49565b91505092915050565b60006020828403121561301157600080fd5b600061301f84828501612d5e565b91505092915050565b6000613034838361344e565b60208301905092915050565b61304981613a41565b82525050565b600061305a82613956565b6130648185613984565b935061306f83613946565b8060005b838110156130a05781516130878882613028565b975061309283613977565b925050600181019050613073565b5085935050505092915050565b6130b681613a53565b82525050565b60006130c782613961565b6130d18185613995565b93506130e1818560208601613b0c565b6130ea81613c78565b840191505092915050565b6130fe81613ab5565b82525050565b61310d81613ad9565b82525050565b600061311e8261396c565b61312881856139a6565b9350613138818560208601613b0c565b61314181613c78565b840191505092915050565b6000613159601c836139a6565b915061316482613c89565b602082019050919050565b600061317c602b836139a6565b915061318782613cb2565b604082019050919050565b600061319f6032836139a6565b91506131aa82613d01565b604082019050919050565b60006131c26026836139a6565b91506131cd82613d50565b604082019050919050565b60006131e5601b836139a6565b91506131f082613d9f565b602082019050919050565b60006132086025836139a6565b915061321382613dc8565b604082019050919050565b600061322b601c836139a6565b915061323682613e17565b602082019050919050565b600061324e6024836139a6565b915061325982613e40565b604082019050919050565b60006132716019836139a6565b915061327c82613e8f565b602082019050919050565b6000613294602c836139a6565b915061329f82613eb8565b604082019050919050565b60006132b76038836139a6565b91506132c282613f07565b604082019050919050565b60006132da602a836139a6565b91506132e582613f56565b604082019050919050565b60006132fd6029836139a6565b915061330882613fa5565b604082019050919050565b60006133206020836139a6565b915061332b82613ff4565b602082019050919050565b6000613343602c836139a6565b915061334e8261401d565b604082019050919050565b60006133666020836139a6565b91506133718261406c565b602082019050919050565b60006133896021836139a6565b915061339482614095565b604082019050919050565b60006133ac6031836139a6565b91506133b7826140e4565b604082019050919050565b60006133cf602c836139a6565b91506133da82614133565b604082019050919050565b60006133f2601a836139a6565b91506133fd82614182565b602082019050919050565b6000613415601e836139a6565b9150613420826141ab565b602082019050919050565b60006134386014836139a6565b9150613443826141d4565b602082019050919050565b602082016000820151613464600085018261346a565b50505050565b61347381613aab565b82525050565b61348281613aab565b82525050565b600060208201905061349d6000830184613040565b92915050565b60006060820190506134b86000830186613040565b6134c56020830185613040565b6134d26040830184613479565b949350505050565b60006080820190506134ef6000830187613040565b6134fc6020830186613040565b6135096040830185613479565b818103606083015261351b81846130bc565b905095945050505050565b600060408201905061353b6000830185613040565b6135486020830184613479565b9392505050565b60006020820190508181036000830152613569818461304f565b905092915050565b600060208201905061358660008301846130ad565b92915050565b60006020820190506135a160008301846130f5565b92915050565b60006020820190506135bc6000830184613104565b92915050565b600060208201905081810360008301526135dc8184613113565b905092915050565b600060208201905081810360008301526135fd8161314c565b9050919050565b6000602082019050818103600083015261361d8161316f565b9050919050565b6000602082019050818103600083015261363d81613192565b9050919050565b6000602082019050818103600083015261365d816131b5565b9050919050565b6000602082019050818103600083015261367d816131d8565b9050919050565b6000602082019050818103600083015261369d816131fb565b9050919050565b600060208201905081810360008301526136bd8161321e565b9050919050565b600060208201905081810360008301526136dd81613241565b9050919050565b600060208201905081810360008301526136fd81613264565b9050919050565b6000602082019050818103600083015261371d81613287565b9050919050565b6000602082019050818103600083015261373d816132aa565b9050919050565b6000602082019050818103600083015261375d816132cd565b9050919050565b6000602082019050818103600083015261377d816132f0565b9050919050565b6000602082019050818103600083015261379d81613313565b9050919050565b600060208201905081810360008301526137bd81613336565b9050919050565b600060208201905081810360008301526137dd81613359565b9050919050565b600060208201905081810360008301526137fd8161337c565b9050919050565b6000602082019050818103600083015261381d8161339f565b9050919050565b6000602082019050818103600083015261383d816133c2565b9050919050565b6000602082019050818103600083015261385d816133e5565b9050919050565b6000602082019050818103600083015261387d81613408565b9050919050565b6000602082019050818103600083015261389d8161342b565b9050919050565b60006020820190506138b96000830184613479565b92915050565b60006138c96138da565b90506138d58282613b71565b919050565b6000604051905090565b600067ffffffffffffffff8211156138ff576138fe613c49565b5b61390882613c78565b9050602081019050919050565b600067ffffffffffffffff8211156139305761392f613c49565b5b61393982613c78565b9050602081019050919050565b6000819050602082019050919050565b600081519050919050565b600081519050919050565b600081519050919050565b6000602082019050919050565b600082825260208201905092915050565b600082825260208201905092915050565b600082825260208201905092915050565b60006139c282613aab565b91506139cd83613aab565b9250827fffffffffffffffffffffffffffffffffffffffffffffffffffffffffffffffff03821115613a0257613a01613beb565b5b828201905092915050565b6000613a1882613aab565b9150613a2383613aab565b925082821015613a3657613a35613beb565b5b828203905092915050565b6000613a4c82613a8b565b9050919050565b60008115159050919050565b60007fffffffff0000000000000000000000000000000000000000000000000000000082169050919050565b600073ffffffffffffffffffffffffffffffffffffffff82169050919050565b6000819050919050565b6000613ac082613ac7565b9050919050565b6000613ad282613a8b565b9050919050565b6000613ae482613aeb565b9050919050565b6000613af682613a8b565b9050919050565b82818337600083830152505050565b60005b83811015613b2a578082015181840152602081019050613b0f565b83811115613b39576000848401525b50505050565b60006002820490506001821680613b5757607f821691505b60208210811415613b6b57613b6a613c1a565b5b50919050565b613b7a82613c78565b810181811067ffffffffffffffff82111715613b9957613b98613c49565b5b80604052505050565b6000613bad82613aab565b91507fffffffffffffffffffffffffffffffffffffffffffffffffffffffffffffffff821415613be057613bdf613beb565b5b600182019050919050565b7f4e487b7100000000000000000000000000000000000000000000000000000000600052601160045260246000fd5b7f4e487b7100000000000000000000000000000000000000000000000000000000600052602260045260246000fd5b7f4e487b7100000000000000000000000000000000000000000000000000000000600052604160045260246000fd5b6000601f19601f8301169050919050565b7f43616c6c657220616c7265616479206861732061207469636b65742e00000000600082015250565b7f455243373231456e756d657261626c653a206f776e657220696e646578206f7560008201527f74206f6620626f756e6473000000000000000000000000000000000000000000602082015250565b7f4552433732313a207472616e7366657220746f206e6f6e20455243373231526560008201527f63656976657220696d706c656d656e7465720000000000000000000000000000602082015250565b7f4f776e61626c653a206e6577206f776e657220697320746865207a65726f206160008201527f6464726573730000000000000000000000000000000000000000000000000000602082015250565b7f43616c6c6572206973206e6f74207469636b6574206f776e65722e0000000000600082015250565b7f4552433732313a207472616e736665722066726f6d20696e636f72726563742060008201527f6f776e6572000000000000000000000000000000000000000000000000000000602082015250565b7f4552433732313a20746f6b656e20616c7265616479206d696e74656400000000600082015250565b7f4552433732313a207472616e7366657220746f20746865207a65726f2061646460008201527f7265737300000000000000000000000000000000000000000000000000000000602082015250565b7f4552433732313a20617070726f766520746f2063616c6c657200000000000000600082015250565b7f4552433732313a206f70657261746f7220717565727920666f72206e6f6e657860008201527f697374656e7420746f6b656e0000000000000000000000000000000000000000602082015250565b7f4552433732313a20617070726f76652063616c6c6572206973206e6f74206f7760008201527f6e6572206e6f7220617070726f76656420666f7220616c6c0000000000000000602082015250565b7f4552433732313a2062616c616e636520717565727920666f7220746865207a6560008201527f726f206164647265737300000000000000000000000000000000000000000000602082015250565b7f4552433732313a206f776e657220717565727920666f72206e6f6e657869737460008201527f656e7420746f6b656e0000000000000000000000000000000000000000000000602082015250565b7f4552433732313a206d696e7420746f20746865207a65726f2061646472657373600082015250565b7f4552433732313a20617070726f76656420717565727920666f72206e6f6e657860008201527f697374656e7420746f6b656e0000000000000000000000000000000000000000602082015250565b7f4f776e61626c653a2063616c6c6572206973206e6f7420746865206f776e6572600082015250565b7f4552433732313a20617070726f76616c20746f2063757272656e74206f776e6560008201527f7200000000000000000000000000000000000000000000000000000000000000602082015250565b7f4552433732313a207472616e736665722063616c6c6572206973206e6f74206f60008201527f776e6572206e6f7220617070726f766564000000000000000000000000000000602082015250565b7f455243373231456e756d657261626c653a20676c6f62616c20696e646578206f60008201527f7574206f6620626f756e64730000000000000000000000000000000000000000602082015250565b7f4f776e657220646f65736e27742068617665207469636b65742e000000000000600082015250565b7f5468657265206973206e6f2072656d61696e696e672062616c616e63652e0000600082015250565b7f43616c6c6572206973206e6f742061646d696e2e000000000000000000000000600082015250565b61420681613a41565b811461421157600080fd5b50565b61421d81613a53565b811461422857600080fd5b50565b61423481613a5f565b811461423f57600080fd5b50565b61424b81613aab565b811461425657600080fd5b5056fea2646970667358221220772f1daade0c7d627e231d38356211035ecbae9e835b16857aca9fc05a51a77364736f6c63430008040033",
  "linkReferences": {},
  "deployedLinkReferences": {}
}