{
  "_format": "hh-sol-artifact-1",
  "contractName": "MintTicket",
  "sourceName": "contracts/MintTicket.sol",
  "abi": [
    {
      "inputs": [
        {
          "internalType": "uint256",
          "name": "_price",
          "type": "uint256"
        }
      ],
      "stateMutability": "payable",
      "type": "constructor"
    },
    {
      "anonymous": false,
      "inputs": [
        {
          "indexed": true,
          "internalType": "address",
          "name": "owner",
          "type": "address"
        },
        {
          "indexed": true,
          "internalType": "address",
          "name": "approved",
          "type": "address"
        },
        {
          "indexed": true,
          "internalType": "uint256",
          "name": "tokenId",
          "type": "uint256"
        }
      ],
      "name": "Approval",
      "type": "event"
    },
    {
      "anonymous": false,
      "inputs": [
        {
          "indexed": true,
          "internalType": "address",
          "name": "owner",
          "type": "address"
        },
        {
          "indexed": true,
          "internalType": "address",
          "name": "operator",
          "type": "address"
        },
        {
          "indexed": false,
          "internalType": "bool",
          "name": "approved",
          "type": "bool"
        }
      ],
      "name": "ApprovalForAll",
      "type": "event"
    },
    {
      "anonymous": false,
      "inputs": [
        {
          "indexed": true,
          "internalType": "address",
          "name": "from",
          "type": "address"
        },
        {
          "indexed": true,
          "internalType": "address",
          "name": "to",
          "type": "address"
        },
        {
          "indexed": true,
          "internalType": "uint256",
          "name": "tokenId",
          "type": "uint256"
        }
      ],
      "name": "Transfer",
      "type": "event"
    },
    {
      "inputs": [
        {
          "internalType": "address",
          "name": "to",
          "type": "address"
        },
        {
          "internalType": "uint256",
          "name": "tokenId",
          "type": "uint256"
        }
      ],
      "name": "approve",
      "outputs": [],
      "stateMutability": "nonpayable",
      "type": "function"
    },
    {
      "inputs": [
        {
          "internalType": "address",
          "name": "owner",
          "type": "address"
        }
      ],
      "name": "balanceOf",
      "outputs": [
        {
          "internalType": "uint256",
          "name": "",
          "type": "uint256"
        }
      ],
      "stateMutability": "view",
      "type": "function"
    },
    {
      "inputs": [
        {
          "internalType": "string",
          "name": "_tokenURI",
          "type": "string"
        },
        {
          "internalType": "address",
          "name": "_operator",
          "type": "address"
        }
      ],
      "name": "buyTicket",
      "outputs": [
        {
          "internalType": "uint256",
          "name": "",
          "type": "uint256"
        }
      ],
      "stateMutability": "payable",
      "type": "function"
    },
    {
      "inputs": [
        {
          "internalType": "uint256",
          "name": "tokenId",
          "type": "uint256"
        }
      ],
      "name": "getApproved",
      "outputs": [
        {
          "internalType": "address",
          "name": "",
          "type": "address"
        }
      ],
      "stateMutability": "view",
      "type": "function"
    },
    {
      "inputs": [
        {
          "internalType": "address",
          "name": "_mintTicketOwner",
          "type": "address"
        }
      ],
      "name": "getTicketList",
      "outputs": [
        {
          "components": [
            {
              "internalType": "uint256",
              "name": "tokenId",
              "type": "uint256"
            }
          ],
          "internalType": "struct MintTicket.TicketTokenData[]",
          "name": "",
          "type": "tuple[]"
        }
      ],
      "stateMutability": "view",
      "type": "function"
    },
    {
      "inputs": [],
      "name": "getTicketPrice",
      "outputs": [
        {
          "internalType": "uint256",
          "name": "",
          "type": "uint256"
        }
      ],
      "stateMutability": "view",
      "type": "function"
    },
    {
      "inputs": [
        {
          "internalType": "address",
          "name": "owner",
          "type": "address"
        },
        {
          "internalType": "address",
          "name": "operator",
          "type": "address"
        }
      ],
      "name": "isApprovedForAll",
      "outputs": [
        {
          "internalType": "bool",
          "name": "",
          "type": "bool"
        }
      ],
      "stateMutability": "view",
      "type": "function"
    },
    {
      "inputs": [],
      "name": "name",
      "outputs": [
        {
          "internalType": "string",
          "name": "",
          "type": "string"
        }
      ],
      "stateMutability": "view",
      "type": "function"
    },
    {
      "inputs": [],
      "name": "owner",
      "outputs": [
        {
          "internalType": "address payable",
          "name": "",
          "type": "address"
        }
      ],
      "stateMutability": "view",
      "type": "function"
    },
    {
      "inputs": [
        {
          "internalType": "uint256",
          "name": "tokenId",
          "type": "uint256"
        }
      ],
      "name": "ownerOf",
      "outputs": [
        {
          "internalType": "address",
          "name": "",
          "type": "address"
        }
      ],
      "stateMutability": "view",
      "type": "function"
    },
    {
      "inputs": [
        {
          "internalType": "address",
          "name": "from",
          "type": "address"
        },
        {
          "internalType": "address",
          "name": "to",
          "type": "address"
        },
        {
          "internalType": "uint256",
          "name": "tokenId",
          "type": "uint256"
        }
      ],
      "name": "safeTransferFrom",
      "outputs": [],
      "stateMutability": "nonpayable",
      "type": "function"
    },
    {
      "inputs": [
        {
          "internalType": "address",
          "name": "from",
          "type": "address"
        },
        {
          "internalType": "address",
          "name": "to",
          "type": "address"
        },
        {
          "internalType": "uint256",
          "name": "tokenId",
          "type": "uint256"
        },
        {
          "internalType": "bytes",
          "name": "_data",
          "type": "bytes"
        }
      ],
      "name": "safeTransferFrom",
      "outputs": [],
      "stateMutability": "nonpayable",
      "type": "function"
    },
    {
      "inputs": [],
      "name": "saleContractAddress",
      "outputs": [
        {
          "internalType": "address",
          "name": "",
          "type": "address"
        }
      ],
      "stateMutability": "view",
      "type": "function"
    },
    {
      "inputs": [],
      "name": "saleTicket",
      "outputs": [
        {
          "internalType": "contract SaleTicket",
          "name": "",
          "type": "address"
        }
      ],
      "stateMutability": "view",
      "type": "function"
    },
    {
      "inputs": [
        {
          "internalType": "address",
          "name": "operator",
          "type": "address"
        },
        {
          "internalType": "bool",
          "name": "approved",
          "type": "bool"
        }
      ],
      "name": "setApprovalForAll",
      "outputs": [],
      "stateMutability": "nonpayable",
      "type": "function"
    },
    {
      "inputs": [
        {
          "internalType": "address",
          "name": "_setSaleTicket",
          "type": "address"
        }
      ],
      "name": "setSaleTicket",
      "outputs": [],
      "stateMutability": "nonpayable",
      "type": "function"
    },
    {
      "inputs": [
        {
          "internalType": "bytes4",
          "name": "interfaceId",
          "type": "bytes4"
        }
      ],
      "name": "supportsInterface",
      "outputs": [
        {
          "internalType": "bool",
          "name": "",
          "type": "bool"
        }
      ],
      "stateMutability": "view",
      "type": "function"
    },
    {
      "inputs": [],
      "name": "symbol",
      "outputs": [
        {
          "internalType": "string",
          "name": "",
          "type": "string"
        }
      ],
      "stateMutability": "view",
      "type": "function"
    },
    {
      "inputs": [
        {
          "internalType": "uint256",
          "name": "index",
          "type": "uint256"
        }
      ],
      "name": "tokenByIndex",
      "outputs": [
        {
          "internalType": "uint256",
          "name": "",
          "type": "uint256"
        }
      ],
      "stateMutability": "view",
      "type": "function"
    },
    {
      "inputs": [
        {
          "internalType": "address",
          "name": "owner",
          "type": "address"
        },
        {
          "internalType": "uint256",
          "name": "index",
          "type": "uint256"
        }
      ],
      "name": "tokenOfOwnerByIndex",
      "outputs": [
        {
          "internalType": "uint256",
          "name": "",
          "type": "uint256"
        }
      ],
      "stateMutability": "view",
      "type": "function"
    },
    {
      "inputs": [
        {
          "internalType": "uint256",
          "name": "tokenId",
          "type": "uint256"
        }
      ],
      "name": "tokenURI",
      "outputs": [
        {
          "internalType": "string",
          "name": "",
          "type": "string"
        }
      ],
      "stateMutability": "view",
      "type": "function"
    },
    {
      "inputs": [],
      "name": "totalSupply",
      "outputs": [
        {
          "internalType": "uint256",
          "name": "",
          "type": "uint256"
        }
      ],
      "stateMutability": "view",
      "type": "function"
    },
    {
      "inputs": [
        {
          "internalType": "address",
          "name": "from",
          "type": "address"
        },
        {
          "internalType": "address",
          "name": "to",
          "type": "address"
        },
        {
          "internalType": "uint256",
          "name": "tokenId",
          "type": "uint256"
        }
      ],
      "name": "transferFrom",
      "outputs": [],
      "stateMutability": "nonpayable",
      "type": "function"
    },
    {
      "inputs": [],
      "name": "withdraw",
      "outputs": [],
      "stateMutability": "nonpayable",
      "type": "function"
    }
  ],
  "bytecode": "0x608060405260405162003860380380620038608339818101604052810190620000299190620001df565b6040518060400160405280600881526020017f4d494e54204e46540000000000000000000000000000000000000000000000008152506040518060400160405280600381526020017f4d4e5400000000000000000000000000000000000000000000000000000000008152508160009080519060200190620000ad92919062000118565b508060019080519060200190620000c692919062000118565b50505033600c60006101000a81548173ffffffffffffffffffffffffffffffffffffffff021916908373ffffffffffffffffffffffffffffffffffffffff16021790555080600d819055505062000294565b828054620001269062000215565b90600052602060002090601f0160209004810192826200014a576000855562000196565b82601f106200016557805160ff191683800117855562000196565b8280016001018555821562000196579182015b828111156200019557825182559160200191906001019062000178565b5b509050620001a59190620001a9565b5090565b5b80821115620001c4576000816000905550600101620001aa565b5090565b600081519050620001d9816200027a565b92915050565b600060208284031215620001f257600080fd5b60006200020284828501620001c8565b91505092915050565b6000819050919050565b600060028204905060018216806200022e57607f821691505b602082108114156200024557620002446200024b565b5b50919050565b7f4e487b7100000000000000000000000000000000000000000000000000000000600052602260045260246000fd5b62000285816200020b565b81146200029157600080fd5b50565b6135bc80620002a46000396000f3fe60806040526004361061014b5760003560e01c80636352211e116100b6578063a22cb4651161006f578063a22cb465146104ab578063b88d4fde146104d4578063c87b56dd146104fd578063cc71e05f1461053a578063d274eb8b14610577578063e985e9c5146105a25761014b565b80636352211e1461038057806369e3ae20146103bd57806370a08231146103ed57806387bb7ae01461042a5780638da5cb5b1461045557806395d89b41146104805761014b565b806326dbb3e01161010857806326dbb3e0146102725780632f745c591461029b578063321328f6146102d85780633ccfd60b1461030357806342842e0e1461031a5780634f6ccce7146103435761014b565b806301ffc9a71461015057806306fdde031461018d578063081812fc146101b8578063095ea7b3146101f557806318160ddd1461021e57806323b872dd14610249575b600080fd5b34801561015c57600080fd5b50610177600480360381019061017291906124f4565b6105df565b6040516101849190612a50565b60405180910390f35b34801561019957600080fd5b506101a2610659565b6040516101af9190612a86565b60405180910390f35b3480156101c457600080fd5b506101df60048036038101906101da919061259a565b6106eb565b6040516101ec91906129ac565b60405180910390f35b34801561020157600080fd5b5061021c600480360381019061021791906124b8565b610770565b005b34801561022a57600080fd5b50610233610888565b6040516102409190612cc8565b60405180910390f35b34801561025557600080fd5b50610270600480360381019061026b91906123b2565b610895565b005b34801561027e57600080fd5b506102996004803603810190610294919061234d565b6108f5565b005b3480156102a757600080fd5b506102c260048036038101906102bd91906124b8565b61097a565b6040516102cf9190612cc8565b60405180910390f35b3480156102e457600080fd5b506102ed610a1f565b6040516102fa91906129ac565b60405180910390f35b34801561030f57600080fd5b50610318610a45565b005b34801561032657600080fd5b50610341600480360381019061033c91906123b2565b610b1c565b005b34801561034f57600080fd5b5061036a6004803603810190610365919061259a565b610b3c565b6040516103779190612cc8565b60405180910390f35b34801561038c57600080fd5b506103a760048036038101906103a2919061259a565b610bd3565b6040516103b491906129ac565b60405180910390f35b6103d760048036038101906103d29190612546565b610c85565b6040516103e49190612cc8565b60405180910390f35b3480156103f957600080fd5b50610414600480360381019061040f919061234d565b610d10565b6040516104219190612cc8565b60405180910390f35b34801561043657600080fd5b5061043f610dc8565b60405161044c9190612cc8565b60405180910390f35b34801561046157600080fd5b5061046a610dd2565b60405161047791906129c7565b60405180910390f35b34801561048c57600080fd5b50610495610df8565b6040516104a29190612a86565b60405180910390f35b3480156104b757600080fd5b506104d260048036038101906104cd919061247c565b610e8a565b005b3480156104e057600080fd5b506104fb60048036038101906104f69190612401565b610ea0565b005b34801561050957600080fd5b50610524600480360381019061051f919061259a565b610f02565b6040516105319190612a86565b60405180910390f35b34801561054657600080fd5b50610561600480360381019061055c919061234d565b610fa7565b60405161056e9190612a2e565b60405180910390f35b34801561058357600080fd5b5061058c611103565b6040516105999190612a6b565b60405180910390f35b3480156105ae57600080fd5b506105c960048036038101906105c49190612376565b611129565b6040516105d69190612a50565b60405180910390f35b60007f780e9d63000000000000000000000000000000000000000000000000000000007bffffffffffffffffffffffffffffffffffffffffffffffffffffffff1916827bffffffffffffffffffffffffffffffffffffffffffffffffffffffff191614806106525750610651826111bd565b5b9050919050565b60606000805461066890612f5c565b80601f016020809104026020016040519081016040528092919081815260200182805461069490612f5c565b80156106e15780601f106106b6576101008083540402835291602001916106e1565b820191906000526020600020905b8154815290600101906020018083116106c457829003601f168201915b5050505050905090565b60006106f68261129f565b610735576040517f08c379a000000000000000000000000000000000000000000000000000000000815260040161072c90612c28565b60405180910390fd5b6004600083815260200190815260200160002060009054906101000a900473ffffffffffffffffffffffffffffffffffffffff169050919050565b600061077b82610bd3565b90508073ffffffffffffffffffffffffffffffffffffffff168373ffffffffffffffffffffffffffffffffffffffff1614156107ec576040517f08c379a00000000000000000000000000000000000000000000000000000000081526004016107e390612c48565b60405180910390fd5b8073ffffffffffffffffffffffffffffffffffffffff1661080b61130b565b73ffffffffffffffffffffffffffffffffffffffff16148061083a57506108398161083461130b565b611129565b5b610879576040517f08c379a000000000000000000000000000000000000000000000000000000000815260040161087090612ba8565b60405180910390fd5b6108838383611313565b505050565b6000600880549050905090565b6108a66108a061130b565b826113cc565b6108e5576040517f08c379a00000000000000000000000000000000000000000000000000000000081526004016108dc90612c68565b60405180910390fd5b6108f08383836114aa565b505050565b80600a60006101000a81548173ffffffffffffffffffffffffffffffffffffffff021916908373ffffffffffffffffffffffffffffffffffffffff16021790555080600b60006101000a81548173ffffffffffffffffffffffffffffffffffffffff021916908373ffffffffffffffffffffffffffffffffffffffff16021790555050565b600061098583610d10565b82106109c6576040517f08c379a00000000000000000000000000000000000000000000000000000000081526004016109bd90612aa8565b60405180910390fd5b600660008473ffffffffffffffffffffffffffffffffffffffff1673ffffffffffffffffffffffffffffffffffffffff168152602001908152602001600020600083815260200190815260200160002054905092915050565b600b60009054906101000a900473ffffffffffffffffffffffffffffffffffffffff1681565b60004790506000600c60009054906101000a900473ffffffffffffffffffffffffffffffffffffffff1673ffffffffffffffffffffffffffffffffffffffff1682604051610a9290612997565b60006040518083038185875af1925050503d8060008114610acf576040519150601f19603f3d011682016040523d82523d6000602084013e610ad4565b606091505b5050905080610b18576040517f08c379a0000000000000000000000000000000000000000000000000000000008152600401610b0f90612b28565b60405180910390fd5b5050565b610b3783838360405180602001604052806000815250610ea0565b505050565b6000610b46610888565b8210610b87576040517f08c379a0000000000000000000000000000000000000000000000000000000008152600401610b7e90612c88565b60405180910390fd5b60088281548110610bc1577f4e487b7100000000000000000000000000000000000000000000000000000000600052603260045260246000fd5b90600052602060002001549050919050565b6000806002600084815260200190815260200160002060009054906101000a900473ffffffffffffffffffffffffffffffffffffffff169050600073ffffffffffffffffffffffffffffffffffffffff168173ffffffffffffffffffffffffffffffffffffffff161415610c7c576040517f08c379a0000000000000000000000000000000000000000000000000000000008152600401610c7390612be8565b60405180910390fd5b80915050919050565b6000806001610c92610888565b610c9c9190612de6565b9050610ca83382611711565b83600e60008381526020019081526020016000209080519060200190610ccf92919061215e565b50610cda8382610770565b610d06600b60009054906101000a900473ffffffffffffffffffffffffffffffffffffffff1682610770565b8091505092915050565b60008073ffffffffffffffffffffffffffffffffffffffff168273ffffffffffffffffffffffffffffffffffffffff161415610d81576040517f08c379a0000000000000000000000000000000000000000000000000000000008152600401610d7890612bc8565b60405180910390fd5b600360008373ffffffffffffffffffffffffffffffffffffffff1673ffffffffffffffffffffffffffffffffffffffff168152602001908152602001600020549050919050565b6000600d54905090565b600c60009054906101000a900473ffffffffffffffffffffffffffffffffffffffff1681565b606060018054610e0790612f5c565b80601f0160208091040260200160405190810160405280929190818152602001828054610e3390612f5c565b8015610e805780601f10610e5557610100808354040283529160200191610e80565b820191906000526020600020905b815481529060010190602001808311610e6357829003601f168201915b5050505050905090565b610e9c610e9561130b565b83836118eb565b5050565b610eb1610eab61130b565b836113cc565b610ef0576040517f08c379a0000000000000000000000000000000000000000000000000000000008152600401610ee790612c68565b60405180910390fd5b610efc84848484611a58565b50505050565b6060600e60008381526020019081526020016000208054610f2290612f5c565b80601f0160208091040260200160405190810160405280929190818152602001828054610f4e90612f5c565b8015610f9b5780601f10610f7057610100808354040283529160200191610f9b565b820191906000526020600020905b815481529060010190602001808311610f7e57829003601f168201915b50505050509050919050565b60606000610fb483610d10565b90506000811415610ffa576040517f08c379a0000000000000000000000000000000000000000000000000000000008152600401610ff190612ca8565b60405180910390fd5b60008167ffffffffffffffff81111561103c577f4e487b7100000000000000000000000000000000000000000000000000000000600052604160045260246000fd5b60405190808252806020026020018201604052801561107557816020015b6110626121e4565b81526020019060019003908161105a5790505b50905060005b828110156110f857600061108f868361097a565b90506040518060200160405280828152508383815181106110d9577f4e487b7100000000000000000000000000000000000000000000000000000000600052603260045260246000fd5b60200260200101819052505080806110f090612fbf565b91505061107b565b508092505050919050565b600a60009054906101000a900473ffffffffffffffffffffffffffffffffffffffff1681565b6000600560008473ffffffffffffffffffffffffffffffffffffffff1673ffffffffffffffffffffffffffffffffffffffff16815260200190815260200160002060008373ffffffffffffffffffffffffffffffffffffffff1673ffffffffffffffffffffffffffffffffffffffff16815260200190815260200160002060009054906101000a900460ff16905092915050565b60007f80ac58cd000000000000000000000000000000000000000000000000000000007bffffffffffffffffffffffffffffffffffffffffffffffffffffffff1916827bffffffffffffffffffffffffffffffffffffffffffffffffffffffff1916148061128857507f5b5e139f000000000000000000000000000000000000000000000000000000007bffffffffffffffffffffffffffffffffffffffffffffffffffffffff1916827bffffffffffffffffffffffffffffffffffffffffffffffffffffffff1916145b80611298575061129782611ab4565b5b9050919050565b60008073ffffffffffffffffffffffffffffffffffffffff166002600084815260200190815260200160002060009054906101000a900473ffffffffffffffffffffffffffffffffffffffff1673ffffffffffffffffffffffffffffffffffffffff1614159050919050565b600033905090565b816004600083815260200190815260200160002060006101000a81548173ffffffffffffffffffffffffffffffffffffffff021916908373ffffffffffffffffffffffffffffffffffffffff160217905550808273ffffffffffffffffffffffffffffffffffffffff1661138683610bd3565b73ffffffffffffffffffffffffffffffffffffffff167f8c5be1e5ebec7d5bd14f71427d1e84f3dd0314c0f7b2291e5b200ac8c7c3b92560405160405180910390a45050565b60006113d78261129f565b611416576040517f08c379a000000000000000000000000000000000000000000000000000000000815260040161140d90612b88565b60405180910390fd5b600061142183610bd3565b90508073ffffffffffffffffffffffffffffffffffffffff168473ffffffffffffffffffffffffffffffffffffffff16148061146357506114628185611129565b5b806114a157508373ffffffffffffffffffffffffffffffffffffffff16611489846106eb565b73ffffffffffffffffffffffffffffffffffffffff16145b91505092915050565b8273ffffffffffffffffffffffffffffffffffffffff166114ca82610bd3565b73ffffffffffffffffffffffffffffffffffffffff1614611520576040517f08c379a000000000000000000000000000000000000000000000000000000000815260040161151790612ae8565b60405180910390fd5b600073ffffffffffffffffffffffffffffffffffffffff168273ffffffffffffffffffffffffffffffffffffffff161415611590576040517f08c379a000000000000000000000000000000000000000000000000000000000815260040161158790612b48565b60405180910390fd5b61159b838383611b1e565b6115a6600082611313565b6001600360008573ffffffffffffffffffffffffffffffffffffffff1673ffffffffffffffffffffffffffffffffffffffff16815260200190815260200160002060008282546115f69190612e3c565b925050819055506001600360008473ffffffffffffffffffffffffffffffffffffffff1673ffffffffffffffffffffffffffffffffffffffff168152602001908152602001600020600082825461164d9190612de6565b92505081905550816002600083815260200190815260200160002060006101000a81548173ffffffffffffffffffffffffffffffffffffffff021916908373ffffffffffffffffffffffffffffffffffffffff160217905550808273ffffffffffffffffffffffffffffffffffffffff168473ffffffffffffffffffffffffffffffffffffffff167fddf252ad1be2c89b69c2b068fc378daa952ba7f163c4a11628f55a4df523b3ef60405160405180910390a461170c838383611c32565b505050565b600073ffffffffffffffffffffffffffffffffffffffff168273ffffffffffffffffffffffffffffffffffffffff161415611781576040517f08c379a000000000000000000000000000000000000000000000000000000000815260040161177890612c08565b60405180910390fd5b61178a8161129f565b156117ca576040517f08c379a00000000000000000000000000000000000000000000000000000000081526004016117c190612b08565b60405180910390fd5b6117d660008383611b1e565b6001600360008473ffffffffffffffffffffffffffffffffffffffff1673ffffffffffffffffffffffffffffffffffffffff16815260200190815260200160002060008282546118269190612de6565b92505081905550816002600083815260200190815260200160002060006101000a81548173ffffffffffffffffffffffffffffffffffffffff021916908373ffffffffffffffffffffffffffffffffffffffff160217905550808273ffffffffffffffffffffffffffffffffffffffff16600073ffffffffffffffffffffffffffffffffffffffff167fddf252ad1be2c89b69c2b068fc378daa952ba7f163c4a11628f55a4df523b3ef60405160405180910390a46118e760008383611c32565b5050565b8173ffffffffffffffffffffffffffffffffffffffff168373ffffffffffffffffffffffffffffffffffffffff16141561195a576040517f08c379a000000000000000000000000000000000000000000000000000000000815260040161195190612b68565b60405180910390fd5b80600560008573ffffffffffffffffffffffffffffffffffffffff1673ffffffffffffffffffffffffffffffffffffffff16815260200190815260200160002060008473ffffffffffffffffffffffffffffffffffffffff1673ffffffffffffffffffffffffffffffffffffffff16815260200190815260200160002060006101000a81548160ff0219169083151502179055508173ffffffffffffffffffffffffffffffffffffffff168373ffffffffffffffffffffffffffffffffffffffff167f17307eab39ab6107e8899845ad3d59bd9653f200f220920489ca2b5937696c3183604051611a4b9190612a50565b60405180910390a3505050565b611a638484846114aa565b611a6f84848484611c37565b611aae576040517f08c379a0000000000000000000000000000000000000000000000000000000008152600401611aa590612ac8565b60405180910390fd5b50505050565b60007f01ffc9a7000000000000000000000000000000000000000000000000000000007bffffffffffffffffffffffffffffffffffffffffffffffffffffffff1916827bffffffffffffffffffffffffffffffffffffffffffffffffffffffff1916149050919050565b611b29838383611dce565b600073ffffffffffffffffffffffffffffffffffffffff168373ffffffffffffffffffffffffffffffffffffffff161415611b6c57611b6781611dd3565b611bab565b8173ffffffffffffffffffffffffffffffffffffffff168373ffffffffffffffffffffffffffffffffffffffff1614611baa57611ba98382611e1c565b5b5b600073ffffffffffffffffffffffffffffffffffffffff168273ffffffffffffffffffffffffffffffffffffffff161415611bee57611be981611f89565b611c2d565b8273ffffffffffffffffffffffffffffffffffffffff168273ffffffffffffffffffffffffffffffffffffffff1614611c2c57611c2b82826120cc565b5b5b505050565b505050565b6000611c588473ffffffffffffffffffffffffffffffffffffffff1661214b565b15611dc1578373ffffffffffffffffffffffffffffffffffffffff1663150b7a02611c8161130b565b8786866040518563ffffffff1660e01b8152600401611ca394939291906129e2565b602060405180830381600087803b158015611cbd57600080fd5b505af1925050508015611cee57506040513d601f19601f82011682018060405250810190611ceb919061251d565b60015b611d71573d8060008114611d1e576040519150601f19603f3d011682016040523d82523d6000602084013e611d23565b606091505b50600081511415611d69576040517f08c379a0000000000000000000000000000000000000000000000000000000008152600401611d6090612ac8565b60405180910390fd5b805181602001fd5b63150b7a0260e01b7bffffffffffffffffffffffffffffffffffffffffffffffffffffffff1916817bffffffffffffffffffffffffffffffffffffffffffffffffffffffff191614915050611dc6565b600190505b949350505050565b505050565b6008805490506009600083815260200190815260200160002081905550600881908060018154018082558091505060019003906000526020600020016000909190919091505550565b60006001611e2984610d10565b611e339190612e3c565b9050600060076000848152602001908152602001600020549050818114611f18576000600660008673ffffffffffffffffffffffffffffffffffffffff1673ffffffffffffffffffffffffffffffffffffffff168152602001908152602001600020600084815260200190815260200160002054905080600660008773ffffffffffffffffffffffffffffffffffffffff1673ffffffffffffffffffffffffffffffffffffffff168152602001908152602001600020600084815260200190815260200160002081905550816007600083815260200190815260200160002081905550505b6007600084815260200190815260200160002060009055600660008573ffffffffffffffffffffffffffffffffffffffff1673ffffffffffffffffffffffffffffffffffffffff16815260200190815260200160002060008381526020019081526020016000206000905550505050565b60006001600880549050611f9d9190612e3c565b9050600060096000848152602001908152602001600020549050600060088381548110611ff3577f4e487b7100000000000000000000000000000000000000000000000000000000600052603260045260246000fd5b90600052602060002001549050806008838154811061203b577f4e487b7100000000000000000000000000000000000000000000000000000000600052603260045260246000fd5b9060005260206000200181905550816009600083815260200190815260200160002081905550600960008581526020019081526020016000206000905560088054806120b0577f4e487b7100000000000000000000000000000000000000000000000000000000600052603160045260246000fd5b6001900381819060005260206000200160009055905550505050565b60006120d783610d10565b905081600660008573ffffffffffffffffffffffffffffffffffffffff1673ffffffffffffffffffffffffffffffffffffffff168152602001908152602001600020600083815260200190815260200160002081905550806007600084815260200190815260200160002081905550505050565b600080823b905060008111915050919050565b82805461216a90612f5c565b90600052602060002090601f01602090048101928261218c57600085556121d3565b82601f106121a557805160ff19168380011785556121d3565b828001600101855582156121d3579182015b828111156121d25782518255916020019190600101906121b7565b5b5090506121e091906121f7565b5090565b6040518060200160405280600081525090565b5b808211156122105760008160009055506001016121f8565b5090565b600061222761222284612d08565b612ce3565b90508281526020810184848401111561223f57600080fd5b61224a848285612f1a565b509392505050565b600061226561226084612d39565b612ce3565b90508281526020810184848401111561227d57600080fd5b612288848285612f1a565b509392505050565b60008135905061229f8161352a565b92915050565b6000813590506122b481613541565b92915050565b6000813590506122c981613558565b92915050565b6000815190506122de81613558565b92915050565b600082601f8301126122f557600080fd5b8135612305848260208601612214565b91505092915050565b600082601f83011261231f57600080fd5b813561232f848260208601612252565b91505092915050565b6000813590506123478161356f565b92915050565b60006020828403121561235f57600080fd5b600061236d84828501612290565b91505092915050565b6000806040838503121561238957600080fd5b600061239785828601612290565b92505060206123a885828601612290565b9150509250929050565b6000806000606084860312156123c757600080fd5b60006123d586828701612290565b93505060206123e686828701612290565b92505060406123f786828701612338565b9150509250925092565b6000806000806080858703121561241757600080fd5b600061242587828801612290565b945050602061243687828801612290565b935050604061244787828801612338565b925050606085013567ffffffffffffffff81111561246457600080fd5b612470878288016122e4565b91505092959194509250565b6000806040838503121561248f57600080fd5b600061249d85828601612290565b92505060206124ae858286016122a5565b9150509250929050565b600080604083850312156124cb57600080fd5b60006124d985828601612290565b92505060206124ea85828601612338565b9150509250929050565b60006020828403121561250657600080fd5b6000612514848285016122ba565b91505092915050565b60006020828403121561252f57600080fd5b600061253d848285016122cf565b91505092915050565b6000806040838503121561255957600080fd5b600083013567ffffffffffffffff81111561257357600080fd5b61257f8582860161230e565b925050602061259085828601612290565b9150509250929050565b6000602082840312156125ac57600080fd5b60006125ba84828501612338565b91505092915050565b60006125cf838361295d565b60208301905092915050565b6125e481612e82565b82525050565b6125f381612e70565b82525050565b600061260482612d7a565b61260e8185612da8565b935061261983612d6a565b8060005b8381101561264a57815161263188826125c3565b975061263c83612d9b565b92505060018101905061261d565b5085935050505092915050565b61266081612e94565b82525050565b600061267182612d85565b61267b8185612db9565b935061268b818560208601612f29565b61269481613095565b840191505092915050565b6126a881612ef6565b82525050565b60006126b982612d90565b6126c38185612dd5565b93506126d3818560208601612f29565b6126dc81613095565b840191505092915050565b60006126f4602b83612dd5565b91506126ff826130a6565b604082019050919050565b6000612717603283612dd5565b9150612722826130f5565b604082019050919050565b600061273a602583612dd5565b915061274582613144565b604082019050919050565b600061275d601c83612dd5565b915061276882613193565b602082019050919050565b6000612780601483612dd5565b915061278b826131bc565b602082019050919050565b60006127a3602483612dd5565b91506127ae826131e5565b604082019050919050565b60006127c6601983612dd5565b91506127d182613234565b602082019050919050565b60006127e9602c83612dd5565b91506127f48261325d565b604082019050919050565b600061280c603883612dd5565b9150612817826132ac565b604082019050919050565b600061282f602a83612dd5565b915061283a826132fb565b604082019050919050565b6000612852602983612dd5565b915061285d8261334a565b604082019050919050565b6000612875602083612dd5565b915061288082613399565b602082019050919050565b6000612898602c83612dd5565b91506128a3826133c2565b604082019050919050565b60006128bb602183612dd5565b91506128c682613411565b604082019050919050565b60006128de600083612dca565b91506128e982613460565b600082019050919050565b6000612901603183612dd5565b915061290c82613463565b604082019050919050565b6000612924602c83612dd5565b915061292f826134b2565b604082019050919050565b6000612947601a83612dd5565b915061295282613501565b602082019050919050565b6020820160008201516129736000850182612979565b50505050565b61298281612eec565b82525050565b61299181612eec565b82525050565b60006129a2826128d1565b9150819050919050565b60006020820190506129c160008301846125ea565b92915050565b60006020820190506129dc60008301846125db565b92915050565b60006080820190506129f760008301876125ea565b612a0460208301866125ea565b612a116040830185612988565b8181036060830152612a238184612666565b905095945050505050565b60006020820190508181036000830152612a4881846125f9565b905092915050565b6000602082019050612a656000830184612657565b92915050565b6000602082019050612a80600083018461269f565b92915050565b60006020820190508181036000830152612aa081846126ae565b905092915050565b60006020820190508181036000830152612ac1816126e7565b9050919050565b60006020820190508181036000830152612ae18161270a565b9050919050565b60006020820190508181036000830152612b018161272d565b9050919050565b60006020820190508181036000830152612b2181612750565b9050919050565b60006020820190508181036000830152612b4181612773565b9050919050565b60006020820190508181036000830152612b6181612796565b9050919050565b60006020820190508181036000830152612b81816127b9565b9050919050565b60006020820190508181036000830152612ba1816127dc565b9050919050565b60006020820190508181036000830152612bc1816127ff565b9050919050565b60006020820190508181036000830152612be181612822565b9050919050565b60006020820190508181036000830152612c0181612845565b9050919050565b60006020820190508181036000830152612c2181612868565b9050919050565b60006020820190508181036000830152612c418161288b565b9050919050565b60006020820190508181036000830152612c61816128ae565b9050919050565b60006020820190508181036000830152612c81816128f4565b9050919050565b60006020820190508181036000830152612ca181612917565b9050919050565b60006020820190508181036000830152612cc18161293a565b9050919050565b6000602082019050612cdd6000830184612988565b92915050565b6000612ced612cfe565b9050612cf98282612f8e565b919050565b6000604051905090565b600067ffffffffffffffff821115612d2357612d22613066565b5b612d2c82613095565b9050602081019050919050565b600067ffffffffffffffff821115612d5457612d53613066565b5b612d5d82613095565b9050602081019050919050565b6000819050602082019050919050565b600081519050919050565b600081519050919050565b600081519050919050565b6000602082019050919050565b600082825260208201905092915050565b600082825260208201905092915050565b600081905092915050565b600082825260208201905092915050565b6000612df182612eec565b9150612dfc83612eec565b9250827fffffffffffffffffffffffffffffffffffffffffffffffffffffffffffffffff03821115612e3157612e30613008565b5b828201905092915050565b6000612e4782612eec565b9150612e5283612eec565b925082821015612e6557612e64613008565b5b828203905092915050565b6000612e7b82612ecc565b9050919050565b6000612e8d82612ecc565b9050919050565b60008115159050919050565b60007fffffffff0000000000000000000000000000000000000000000000000000000082169050919050565b600073ffffffffffffffffffffffffffffffffffffffff82169050919050565b6000819050919050565b6000612f0182612f08565b9050919050565b6000612f1382612ecc565b9050919050565b82818337600083830152505050565b60005b83811015612f47578082015181840152602081019050612f2c565b83811115612f56576000848401525b50505050565b60006002820490506001821680612f7457607f821691505b60208210811415612f8857612f87613037565b5b50919050565b612f9782613095565b810181811067ffffffffffffffff82111715612fb657612fb5613066565b5b80604052505050565b6000612fca82612eec565b91507fffffffffffffffffffffffffffffffffffffffffffffffffffffffffffffffff821415612ffd57612ffc613008565b5b600182019050919050565b7f4e487b7100000000000000000000000000000000000000000000000000000000600052601160045260246000fd5b7f4e487b7100000000000000000000000000000000000000000000000000000000600052602260045260246000fd5b7f4e487b7100000000000000000000000000000000000000000000000000000000600052604160045260246000fd5b6000601f19601f8301169050919050565b7f455243373231456e756d657261626c653a206f776e657220696e646578206f7560008201527f74206f6620626f756e6473000000000000000000000000000000000000000000602082015250565b7f4552433732313a207472616e7366657220746f206e6f6e20455243373231526560008201527f63656976657220696d706c656d656e7465720000000000000000000000000000602082015250565b7f4552433732313a207472616e736665722066726f6d20696e636f72726563742060008201527f6f776e6572000000000000000000000000000000000000000000000000000000602082015250565b7f4552433732313a20746f6b656e20616c7265616479206d696e74656400000000600082015250565b7f4661696c656420746f2073656e64204574686572000000000000000000000000600082015250565b7f4552433732313a207472616e7366657220746f20746865207a65726f2061646460008201527f7265737300000000000000000000000000000000000000000000000000000000602082015250565b7f4552433732313a20617070726f766520746f2063616c6c657200000000000000600082015250565b7f4552433732313a206f70657261746f7220717565727920666f72206e6f6e657860008201527f697374656e7420746f6b656e0000000000000000000000000000000000000000602082015250565b7f4552433732313a20617070726f76652063616c6c6572206973206e6f74206f7760008201527f6e6572206e6f7220617070726f76656420666f7220616c6c0000000000000000602082015250565b7f4552433732313a2062616c616e636520717565727920666f7220746865207a6560008201527f726f206164647265737300000000000000000000000000000000000000000000602082015250565b7f4552433732313a206f776e657220717565727920666f72206e6f6e657869737460008201527f656e7420746f6b656e0000000000000000000000000000000000000000000000602082015250565b7f4552433732313a206d696e7420746f20746865207a65726f2061646472657373600082015250565b7f4552433732313a20617070726f76656420717565727920666f72206e6f6e657860008201527f697374656e7420746f6b656e0000000000000000000000000000000000000000602082015250565b7f4552433732313a20617070726f76616c20746f2063757272656e74206f776e6560008201527f7200000000000000000000000000000000000000000000000000000000000000602082015250565b50565b7f4552433732313a207472616e736665722063616c6c6572206973206e6f74206f60008201527f776e6572206e6f7220617070726f766564000000000000000000000000000000602082015250565b7f455243373231456e756d657261626c653a20676c6f62616c20696e646578206f60008201527f7574206f6620626f756e64730000000000000000000000000000000000000000602082015250565b7f4f776e657220646f65736e27742068617665207469636b65742e000000000000600082015250565b61353381612e70565b811461353e57600080fd5b50565b61354a81612e94565b811461355557600080fd5b50565b61356181612ea0565b811461356c57600080fd5b50565b61357881612eec565b811461358357600080fd5b5056fea26469706673582212204b870ddd4ca2b1771c63b46bb44477dad4252a69387a0a21dd93bb028b71f79664736f6c63430008040033",
  "linkReferences": {},
  "deployedLinkReferences": {}
}