{
  "_format": "hh-sol-artifact-1",
  "contractName": "MintTicket",
  "sourceName": "contracts/MintTicket.sol",
  "abi": [
    {
      "inputs": [
        {
          "internalType": "uint256",
          "name": "_price",
          "type": "uint256"
        }
      ],
      "stateMutability": "payable",
      "type": "constructor"
    },
    {
      "anonymous": false,
      "inputs": [
        {
          "indexed": true,
          "internalType": "address",
          "name": "owner",
          "type": "address"
        },
        {
          "indexed": true,
          "internalType": "address",
          "name": "approved",
          "type": "address"
        },
        {
          "indexed": true,
          "internalType": "uint256",
          "name": "tokenId",
          "type": "uint256"
        }
      ],
      "name": "Approval",
      "type": "event"
    },
    {
      "anonymous": false,
      "inputs": [
        {
          "indexed": true,
          "internalType": "address",
          "name": "owner",
          "type": "address"
        },
        {
          "indexed": true,
          "internalType": "address",
          "name": "operator",
          "type": "address"
        },
        {
          "indexed": false,
          "internalType": "bool",
          "name": "approved",
          "type": "bool"
        }
      ],
      "name": "ApprovalForAll",
      "type": "event"
    },
    {
      "anonymous": false,
      "inputs": [
        {
          "indexed": true,
          "internalType": "address",
          "name": "from",
          "type": "address"
        },
        {
          "indexed": true,
          "internalType": "address",
          "name": "to",
          "type": "address"
        },
        {
          "indexed": true,
          "internalType": "uint256",
          "name": "tokenId",
          "type": "uint256"
        }
      ],
      "name": "Transfer",
      "type": "event"
    },
    {
      "inputs": [
        {
          "internalType": "address",
          "name": "to",
          "type": "address"
        },
        {
          "internalType": "uint256",
          "name": "tokenId",
          "type": "uint256"
        }
      ],
      "name": "approve",
      "outputs": [],
      "stateMutability": "nonpayable",
      "type": "function"
    },
    {
      "inputs": [
        {
          "internalType": "address",
          "name": "owner",
          "type": "address"
        }
      ],
      "name": "balanceOf",
      "outputs": [
        {
          "internalType": "uint256",
          "name": "",
          "type": "uint256"
        }
      ],
      "stateMutability": "view",
      "type": "function"
    },
    {
      "inputs": [
        {
          "internalType": "string",
          "name": "_tokenURI",
          "type": "string"
        }
      ],
      "name": "buyTicket",
      "outputs": [
        {
          "internalType": "uint256",
          "name": "",
          "type": "uint256"
        }
      ],
      "stateMutability": "payable",
      "type": "function"
    },
    {
      "inputs": [
        {
          "internalType": "uint256",
          "name": "tokenId",
          "type": "uint256"
        }
      ],
      "name": "getApproved",
      "outputs": [
        {
          "internalType": "address",
          "name": "",
          "type": "address"
        }
      ],
      "stateMutability": "view",
      "type": "function"
    },
    {
      "inputs": [
        {
          "internalType": "address",
          "name": "_mintTicketOwner",
          "type": "address"
        }
      ],
      "name": "getTicketList",
      "outputs": [
        {
          "components": [
            {
              "internalType": "uint256",
              "name": "tokenId",
              "type": "uint256"
            }
          ],
          "internalType": "struct MintTicket.TicketTokenData[]",
          "name": "",
          "type": "tuple[]"
        }
      ],
      "stateMutability": "view",
      "type": "function"
    },
    {
      "inputs": [],
      "name": "getTicketPrice",
      "outputs": [
        {
          "internalType": "uint256",
          "name": "",
          "type": "uint256"
        }
      ],
      "stateMutability": "view",
      "type": "function"
    },
    {
      "inputs": [
        {
          "internalType": "address",
          "name": "owner",
          "type": "address"
        },
        {
          "internalType": "address",
          "name": "operator",
          "type": "address"
        }
      ],
      "name": "isApprovedForAll",
      "outputs": [
        {
          "internalType": "bool",
          "name": "",
          "type": "bool"
        }
      ],
      "stateMutability": "view",
      "type": "function"
    },
    {
      "inputs": [],
      "name": "name",
      "outputs": [
        {
          "internalType": "string",
          "name": "",
          "type": "string"
        }
      ],
      "stateMutability": "view",
      "type": "function"
    },
    {
      "inputs": [],
      "name": "owner",
      "outputs": [
        {
          "internalType": "address payable",
          "name": "",
          "type": "address"
        }
      ],
      "stateMutability": "view",
      "type": "function"
    },
    {
      "inputs": [
        {
          "internalType": "uint256",
          "name": "tokenId",
          "type": "uint256"
        }
      ],
      "name": "ownerOf",
      "outputs": [
        {
          "internalType": "address",
          "name": "",
          "type": "address"
        }
      ],
      "stateMutability": "view",
      "type": "function"
    },
    {
      "inputs": [
        {
          "internalType": "address",
          "name": "from",
          "type": "address"
        },
        {
          "internalType": "address",
          "name": "to",
          "type": "address"
        },
        {
          "internalType": "uint256",
          "name": "tokenId",
          "type": "uint256"
        }
      ],
      "name": "safeTransferFrom",
      "outputs": [],
      "stateMutability": "nonpayable",
      "type": "function"
    },
    {
      "inputs": [
        {
          "internalType": "address",
          "name": "from",
          "type": "address"
        },
        {
          "internalType": "address",
          "name": "to",
          "type": "address"
        },
        {
          "internalType": "uint256",
          "name": "tokenId",
          "type": "uint256"
        },
        {
          "internalType": "bytes",
          "name": "_data",
          "type": "bytes"
        }
      ],
      "name": "safeTransferFrom",
      "outputs": [],
      "stateMutability": "nonpayable",
      "type": "function"
    },
    {
      "inputs": [
        {
          "internalType": "address",
          "name": "operator",
          "type": "address"
        },
        {
          "internalType": "bool",
          "name": "approved",
          "type": "bool"
        }
      ],
      "name": "setApprovalForAll",
      "outputs": [],
      "stateMutability": "nonpayable",
      "type": "function"
    },
    {
      "inputs": [
        {
          "internalType": "bytes4",
          "name": "interfaceId",
          "type": "bytes4"
        }
      ],
      "name": "supportsInterface",
      "outputs": [
        {
          "internalType": "bool",
          "name": "",
          "type": "bool"
        }
      ],
      "stateMutability": "view",
      "type": "function"
    },
    {
      "inputs": [],
      "name": "symbol",
      "outputs": [
        {
          "internalType": "string",
          "name": "",
          "type": "string"
        }
      ],
      "stateMutability": "view",
      "type": "function"
    },
    {
      "inputs": [
        {
          "internalType": "uint256",
          "name": "index",
          "type": "uint256"
        }
      ],
      "name": "tokenByIndex",
      "outputs": [
        {
          "internalType": "uint256",
          "name": "",
          "type": "uint256"
        }
      ],
      "stateMutability": "view",
      "type": "function"
    },
    {
      "inputs": [
        {
          "internalType": "address",
          "name": "owner",
          "type": "address"
        },
        {
          "internalType": "uint256",
          "name": "index",
          "type": "uint256"
        }
      ],
      "name": "tokenOfOwnerByIndex",
      "outputs": [
        {
          "internalType": "uint256",
          "name": "",
          "type": "uint256"
        }
      ],
      "stateMutability": "view",
      "type": "function"
    },
    {
      "inputs": [
        {
          "internalType": "uint256",
          "name": "tokenId",
          "type": "uint256"
        }
      ],
      "name": "tokenURI",
      "outputs": [
        {
          "internalType": "string",
          "name": "",
          "type": "string"
        }
      ],
      "stateMutability": "view",
      "type": "function"
    },
    {
      "inputs": [],
      "name": "totalSupply",
      "outputs": [
        {
          "internalType": "uint256",
          "name": "",
          "type": "uint256"
        }
      ],
      "stateMutability": "view",
      "type": "function"
    },
    {
      "inputs": [
        {
          "internalType": "address",
          "name": "from",
          "type": "address"
        },
        {
          "internalType": "address",
          "name": "to",
          "type": "address"
        },
        {
          "internalType": "uint256",
          "name": "tokenId",
          "type": "uint256"
        }
      ],
      "name": "transferFrom",
      "outputs": [],
      "stateMutability": "nonpayable",
      "type": "function"
    },
    {
      "inputs": [],
      "name": "withdraw",
      "outputs": [],
      "stateMutability": "nonpayable",
      "type": "function"
    }
  ],
  "bytecode": "0x608060405260405162003706380380620037068339818101604052810190620000299190620001df565b6040518060400160405280600881526020017f4d494e54204e46540000000000000000000000000000000000000000000000008152506040518060400160405280600381526020017f4d4e5400000000000000000000000000000000000000000000000000000000008152508160009080519060200190620000ad92919062000118565b508060019080519060200190620000c692919062000118565b50505033600a60006101000a81548173ffffffffffffffffffffffffffffffffffffffff021916908373ffffffffffffffffffffffffffffffffffffffff16021790555080600b819055505062000294565b828054620001269062000215565b90600052602060002090601f0160209004810192826200014a576000855562000196565b82601f106200016557805160ff191683800117855562000196565b8280016001018555821562000196579182015b828111156200019557825182559160200191906001019062000178565b5b509050620001a59190620001a9565b5090565b5b80821115620001c4576000816000905550600101620001aa565b5090565b600081519050620001d9816200027a565b92915050565b600060208284031215620001f257600080fd5b60006200020284828501620001c8565b91505092915050565b6000819050919050565b600060028204905060018216806200022e57607f821691505b602082108114156200024557620002446200024b565b5b50919050565b7f4e487b7100000000000000000000000000000000000000000000000000000000600052602260045260246000fd5b62000285816200020b565b81146200029157600080fd5b50565b61346280620002a46000396000f3fe60806040526004361061012a5760003560e01c80636352211e116100ab578063a22cb4651161006f578063a22cb46514610406578063b88d4fde1461042f578063c87b56dd14610458578063cc71e05f14610495578063e985e9c5146104d2578063fa30b2511461050f5761012a565b80636352211e1461030b57806370a082311461034857806387bb7ae0146103855780638da5cb5b146103b057806395d89b41146103db5761012a565b806323b872dd116100f257806323b872dd146102285780632f745c59146102515780633ccfd60b1461028e57806342842e0e146102a55780634f6ccce7146102ce5761012a565b806301ffc9a71461012f57806306fdde031461016c578063081812fc14610197578063095ea7b3146101d457806318160ddd146101fd575b600080fd5b34801561013b57600080fd5b506101566004803603810190610151919061238f565b61053f565b60405161016391906128ec565b60405180910390f35b34801561017857600080fd5b506101816105b9565b60405161018e9190612907565b60405180910390f35b3480156101a357600080fd5b506101be60048036038101906101b99190612422565b61064b565b6040516101cb9190612848565b60405180910390f35b3480156101e057600080fd5b506101fb60048036038101906101f69190612353565b6106d0565b005b34801561020957600080fd5b506102126107e8565b60405161021f9190612b69565b60405180910390f35b34801561023457600080fd5b5061024f600480360381019061024a919061224d565b6107f5565b005b34801561025d57600080fd5b5061027860048036038101906102739190612353565b610855565b6040516102859190612b69565b60405180910390f35b34801561029a57600080fd5b506102a36108fa565b005b3480156102b157600080fd5b506102cc60048036038101906102c7919061224d565b6109d1565b005b3480156102da57600080fd5b506102f560048036038101906102f09190612422565b6109f1565b6040516103029190612b69565b60405180910390f35b34801561031757600080fd5b50610332600480360381019061032d9190612422565b610a88565b60405161033f9190612848565b60405180910390f35b34801561035457600080fd5b5061036f600480360381019061036a91906121e8565b610b3a565b60405161037c9190612b69565b60405180910390f35b34801561039157600080fd5b5061039a610bf2565b6040516103a79190612b69565b60405180910390f35b3480156103bc57600080fd5b506103c5610bfc565b6040516103d29190612863565b60405180910390f35b3480156103e757600080fd5b506103f0610c22565b6040516103fd9190612907565b60405180910390f35b34801561041257600080fd5b5061042d60048036038101906104289190612317565b610cb4565b005b34801561043b57600080fd5b506104566004803603810190610451919061229c565b610cca565b005b34801561046457600080fd5b5061047f600480360381019061047a9190612422565b610d2c565b60405161048c9190612907565b60405180910390f35b3480156104a157600080fd5b506104bc60048036038101906104b791906121e8565b610dd1565b6040516104c991906128ca565b60405180910390f35b3480156104de57600080fd5b506104f960048036038101906104f49190612211565b610f2d565b60405161050691906128ec565b60405180910390f35b610529600480360381019061052491906123e1565b610fc1565b6040516105369190612b69565b60405180910390f35b60007f780e9d63000000000000000000000000000000000000000000000000000000007bffffffffffffffffffffffffffffffffffffffffffffffffffffffff1916827bffffffffffffffffffffffffffffffffffffffffffffffffffffffff191614806105b257506105b182611058565b5b9050919050565b6060600080546105c890612dd9565b80601f01602080910402602001604051908101604052809291908181526020018280546105f490612dd9565b80156106415780601f1061061657610100808354040283529160200191610641565b820191906000526020600020905b81548152906001019060200180831161062457829003601f168201915b5050505050905090565b60006106568261113a565b610695576040517f08c379a000000000000000000000000000000000000000000000000000000000815260040161068c90612aa9565b60405180910390fd5b6004600083815260200190815260200160002060009054906101000a900473ffffffffffffffffffffffffffffffffffffffff169050919050565b60006106db82610a88565b90508073ffffffffffffffffffffffffffffffffffffffff168373ffffffffffffffffffffffffffffffffffffffff16141561074c576040517f08c379a000000000000000000000000000000000000000000000000000000000815260040161074390612ac9565b60405180910390fd5b8073ffffffffffffffffffffffffffffffffffffffff1661076b6111a6565b73ffffffffffffffffffffffffffffffffffffffff16148061079a5750610799816107946111a6565b610f2d565b5b6107d9576040517f08c379a00000000000000000000000000000000000000000000000000000000081526004016107d090612a29565b60405180910390fd5b6107e383836111ae565b505050565b6000600880549050905090565b6108066108006111a6565b82611267565b610845576040517f08c379a000000000000000000000000000000000000000000000000000000000815260040161083c90612ae9565b60405180910390fd5b610850838383611345565b505050565b600061086083610b3a565b82106108a1576040517f08c379a000000000000000000000000000000000000000000000000000000000815260040161089890612929565b60405180910390fd5b600660008473ffffffffffffffffffffffffffffffffffffffff1673ffffffffffffffffffffffffffffffffffffffff168152602001908152602001600020600083815260200190815260200160002054905092915050565b60004790506000600a60009054906101000a900473ffffffffffffffffffffffffffffffffffffffff1673ffffffffffffffffffffffffffffffffffffffff168260405161094790612833565b60006040518083038185875af1925050503d8060008114610984576040519150601f19603f3d011682016040523d82523d6000602084013e610989565b606091505b50509050806109cd576040517f08c379a00000000000000000000000000000000000000000000000000000000081526004016109c4906129a9565b60405180910390fd5b5050565b6109ec83838360405180602001604052806000815250610cca565b505050565b60006109fb6107e8565b8210610a3c576040517f08c379a0000000000000000000000000000000000000000000000000000000008152600401610a3390612b29565b60405180910390fd5b60088281548110610a76577f4e487b7100000000000000000000000000000000000000000000000000000000600052603260045260246000fd5b90600052602060002001549050919050565b6000806002600084815260200190815260200160002060009054906101000a900473ffffffffffffffffffffffffffffffffffffffff169050600073ffffffffffffffffffffffffffffffffffffffff168173ffffffffffffffffffffffffffffffffffffffff161415610b31576040517f08c379a0000000000000000000000000000000000000000000000000000000008152600401610b2890612a69565b60405180910390fd5b80915050919050565b60008073ffffffffffffffffffffffffffffffffffffffff168273ffffffffffffffffffffffffffffffffffffffff161415610bab576040517f08c379a0000000000000000000000000000000000000000000000000000000008152600401610ba290612a49565b60405180910390fd5b600360008373ffffffffffffffffffffffffffffffffffffffff1673ffffffffffffffffffffffffffffffffffffffff168152602001908152602001600020549050919050565b6000600b54905090565b600a60009054906101000a900473ffffffffffffffffffffffffffffffffffffffff1681565b606060018054610c3190612dd9565b80601f0160208091040260200160405190810160405280929190818152602001828054610c5d90612dd9565b8015610caa5780601f10610c7f57610100808354040283529160200191610caa565b820191906000526020600020905b815481529060010190602001808311610c8d57829003601f168201915b5050505050905090565b610cc6610cbf6111a6565b83836115ac565b5050565b610cdb610cd56111a6565b83611267565b610d1a576040517f08c379a0000000000000000000000000000000000000000000000000000000008152600401610d1190612ae9565b60405180910390fd5b610d2684848484611719565b50505050565b6060600c60008381526020019081526020016000208054610d4c90612dd9565b80601f0160208091040260200160405190810160405280929190818152602001828054610d7890612dd9565b8015610dc55780601f10610d9a57610100808354040283529160200191610dc5565b820191906000526020600020905b815481529060010190602001808311610da857829003601f168201915b50505050509050919050565b60606000610dde83610b3a565b90506000811415610e24576040517f08c379a0000000000000000000000000000000000000000000000000000000008152600401610e1b90612b49565b60405180910390fd5b60008167ffffffffffffffff811115610e66577f4e487b7100000000000000000000000000000000000000000000000000000000600052604160045260246000fd5b604051908082528060200260200182016040528015610e9f57816020015b610e8c611ff9565b815260200190600190039081610e845790505b50905060005b82811015610f22576000610eb98683610855565b9050604051806020016040528082815250838381518110610f03577f4e487b7100000000000000000000000000000000000000000000000000000000600052603260045260246000fd5b6020026020010181905250508080610f1a90612e3c565b915050610ea5565b508092505050919050565b6000600560008473ffffffffffffffffffffffffffffffffffffffff1673ffffffffffffffffffffffffffffffffffffffff16815260200190815260200160002060008373ffffffffffffffffffffffffffffffffffffffff1673ffffffffffffffffffffffffffffffffffffffff16815260200190815260200160002060009054906101000a900460ff16905092915050565b6000803411611005576040517f08c379a0000000000000000000000000000000000000000000000000000000008152600401610ffc90612b09565b60405180910390fd5b600060016110116107e8565b61101b9190612c87565b90506110273382611775565b82600c6000838152602001908152602001600020908051906020019061104e92919061200c565b5080915050919050565b60007f80ac58cd000000000000000000000000000000000000000000000000000000007bffffffffffffffffffffffffffffffffffffffffffffffffffffffff1916827bffffffffffffffffffffffffffffffffffffffffffffffffffffffff1916148061112357507f5b5e139f000000000000000000000000000000000000000000000000000000007bffffffffffffffffffffffffffffffffffffffffffffffffffffffff1916827bffffffffffffffffffffffffffffffffffffffffffffffffffffffff1916145b8061113357506111328261194f565b5b9050919050565b60008073ffffffffffffffffffffffffffffffffffffffff166002600084815260200190815260200160002060009054906101000a900473ffffffffffffffffffffffffffffffffffffffff1673ffffffffffffffffffffffffffffffffffffffff1614159050919050565b600033905090565b816004600083815260200190815260200160002060006101000a81548173ffffffffffffffffffffffffffffffffffffffff021916908373ffffffffffffffffffffffffffffffffffffffff160217905550808273ffffffffffffffffffffffffffffffffffffffff1661122183610a88565b73ffffffffffffffffffffffffffffffffffffffff167f8c5be1e5ebec7d5bd14f71427d1e84f3dd0314c0f7b2291e5b200ac8c7c3b92560405160405180910390a45050565b60006112728261113a565b6112b1576040517f08c379a00000000000000000000000000000000000000000000000000000000081526004016112a890612a09565b60405180910390fd5b60006112bc83610a88565b90508073ffffffffffffffffffffffffffffffffffffffff168473ffffffffffffffffffffffffffffffffffffffff1614806112fe57506112fd8185610f2d565b5b8061133c57508373ffffffffffffffffffffffffffffffffffffffff166113248461064b565b73ffffffffffffffffffffffffffffffffffffffff16145b91505092915050565b8273ffffffffffffffffffffffffffffffffffffffff1661136582610a88565b73ffffffffffffffffffffffffffffffffffffffff16146113bb576040517f08c379a00000000000000000000000000000000000000000000000000000000081526004016113b290612969565b60405180910390fd5b600073ffffffffffffffffffffffffffffffffffffffff168273ffffffffffffffffffffffffffffffffffffffff16141561142b576040517f08c379a0000000000000000000000000000000000000000000000000000000008152600401611422906129c9565b60405180910390fd5b6114368383836119b9565b6114416000826111ae565b6001600360008573ffffffffffffffffffffffffffffffffffffffff1673ffffffffffffffffffffffffffffffffffffffff16815260200190815260200160002060008282546114919190612cdd565b925050819055506001600360008473ffffffffffffffffffffffffffffffffffffffff1673ffffffffffffffffffffffffffffffffffffffff16815260200190815260200160002060008282546114e89190612c87565b92505081905550816002600083815260200190815260200160002060006101000a81548173ffffffffffffffffffffffffffffffffffffffff021916908373ffffffffffffffffffffffffffffffffffffffff160217905550808273ffffffffffffffffffffffffffffffffffffffff168473ffffffffffffffffffffffffffffffffffffffff167fddf252ad1be2c89b69c2b068fc378daa952ba7f163c4a11628f55a4df523b3ef60405160405180910390a46115a7838383611acd565b505050565b8173ffffffffffffffffffffffffffffffffffffffff168373ffffffffffffffffffffffffffffffffffffffff16141561161b576040517f08c379a0000000000000000000000000000000000000000000000000000000008152600401611612906129e9565b60405180910390fd5b80600560008573ffffffffffffffffffffffffffffffffffffffff1673ffffffffffffffffffffffffffffffffffffffff16815260200190815260200160002060008473ffffffffffffffffffffffffffffffffffffffff1673ffffffffffffffffffffffffffffffffffffffff16815260200190815260200160002060006101000a81548160ff0219169083151502179055508173ffffffffffffffffffffffffffffffffffffffff168373ffffffffffffffffffffffffffffffffffffffff167f17307eab39ab6107e8899845ad3d59bd9653f200f220920489ca2b5937696c318360405161170c91906128ec565b60405180910390a3505050565b611724848484611345565b61173084848484611ad2565b61176f576040517f08c379a000000000000000000000000000000000000000000000000000000000815260040161176690612949565b60405180910390fd5b50505050565b600073ffffffffffffffffffffffffffffffffffffffff168273ffffffffffffffffffffffffffffffffffffffff1614156117e5576040517f08c379a00000000000000000000000000000000000000000000000000000000081526004016117dc90612a89565b60405180910390fd5b6117ee8161113a565b1561182e576040517f08c379a000000000000000000000000000000000000000000000000000000000815260040161182590612989565b60405180910390fd5b61183a600083836119b9565b6001600360008473ffffffffffffffffffffffffffffffffffffffff1673ffffffffffffffffffffffffffffffffffffffff168152602001908152602001600020600082825461188a9190612c87565b92505081905550816002600083815260200190815260200160002060006101000a81548173ffffffffffffffffffffffffffffffffffffffff021916908373ffffffffffffffffffffffffffffffffffffffff160217905550808273ffffffffffffffffffffffffffffffffffffffff16600073ffffffffffffffffffffffffffffffffffffffff167fddf252ad1be2c89b69c2b068fc378daa952ba7f163c4a11628f55a4df523b3ef60405160405180910390a461194b60008383611acd565b5050565b60007f01ffc9a7000000000000000000000000000000000000000000000000000000007bffffffffffffffffffffffffffffffffffffffffffffffffffffffff1916827bffffffffffffffffffffffffffffffffffffffffffffffffffffffff1916149050919050565b6119c4838383611c69565b600073ffffffffffffffffffffffffffffffffffffffff168373ffffffffffffffffffffffffffffffffffffffff161415611a0757611a0281611c6e565b611a46565b8173ffffffffffffffffffffffffffffffffffffffff168373ffffffffffffffffffffffffffffffffffffffff1614611a4557611a448382611cb7565b5b5b600073ffffffffffffffffffffffffffffffffffffffff168273ffffffffffffffffffffffffffffffffffffffff161415611a8957611a8481611e24565b611ac8565b8273ffffffffffffffffffffffffffffffffffffffff168273ffffffffffffffffffffffffffffffffffffffff1614611ac757611ac68282611f67565b5b5b505050565b505050565b6000611af38473ffffffffffffffffffffffffffffffffffffffff16611fe6565b15611c5c578373ffffffffffffffffffffffffffffffffffffffff1663150b7a02611b1c6111a6565b8786866040518563ffffffff1660e01b8152600401611b3e949392919061287e565b602060405180830381600087803b158015611b5857600080fd5b505af1925050508015611b8957506040513d601f19601f82011682018060405250810190611b8691906123b8565b60015b611c0c573d8060008114611bb9576040519150601f19603f3d011682016040523d82523d6000602084013e611bbe565b606091505b50600081511415611c04576040517f08c379a0000000000000000000000000000000000000000000000000000000008152600401611bfb90612949565b60405180910390fd5b805181602001fd5b63150b7a0260e01b7bffffffffffffffffffffffffffffffffffffffffffffffffffffffff1916817bffffffffffffffffffffffffffffffffffffffffffffffffffffffff191614915050611c61565b600190505b949350505050565b505050565b6008805490506009600083815260200190815260200160002081905550600881908060018154018082558091505060019003906000526020600020016000909190919091505550565b60006001611cc484610b3a565b611cce9190612cdd565b9050600060076000848152602001908152602001600020549050818114611db3576000600660008673ffffffffffffffffffffffffffffffffffffffff1673ffffffffffffffffffffffffffffffffffffffff168152602001908152602001600020600084815260200190815260200160002054905080600660008773ffffffffffffffffffffffffffffffffffffffff1673ffffffffffffffffffffffffffffffffffffffff168152602001908152602001600020600084815260200190815260200160002081905550816007600083815260200190815260200160002081905550505b6007600084815260200190815260200160002060009055600660008573ffffffffffffffffffffffffffffffffffffffff1673ffffffffffffffffffffffffffffffffffffffff16815260200190815260200160002060008381526020019081526020016000206000905550505050565b60006001600880549050611e389190612cdd565b9050600060096000848152602001908152602001600020549050600060088381548110611e8e577f4e487b7100000000000000000000000000000000000000000000000000000000600052603260045260246000fd5b906000526020600020015490508060088381548110611ed6577f4e487b7100000000000000000000000000000000000000000000000000000000600052603260045260246000fd5b906000526020600020018190555081600960008381526020019081526020016000208190555060096000858152602001908152602001600020600090556008805480611f4b577f4e487b7100000000000000000000000000000000000000000000000000000000600052603160045260246000fd5b6001900381819060005260206000200160009055905550505050565b6000611f7283610b3a565b905081600660008573ffffffffffffffffffffffffffffffffffffffff1673ffffffffffffffffffffffffffffffffffffffff168152602001908152602001600020600083815260200190815260200160002081905550806007600084815260200190815260200160002081905550505050565b600080823b905060008111915050919050565b6040518060200160405280600081525090565b82805461201890612dd9565b90600052602060002090601f01602090048101928261203a5760008555612081565b82601f1061205357805160ff1916838001178555612081565b82800160010185558215612081579182015b82811115612080578251825591602001919060010190612065565b5b50905061208e9190612092565b5090565b5b808211156120ab576000816000905550600101612093565b5090565b60006120c26120bd84612ba9565b612b84565b9050828152602081018484840111156120da57600080fd5b6120e5848285612d97565b509392505050565b60006121006120fb84612bda565b612b84565b90508281526020810184848401111561211857600080fd5b612123848285612d97565b509392505050565b60008135905061213a816133d0565b92915050565b60008135905061214f816133e7565b92915050565b600081359050612164816133fe565b92915050565b600081519050612179816133fe565b92915050565b600082601f83011261219057600080fd5b81356121a08482602086016120af565b91505092915050565b600082601f8301126121ba57600080fd5b81356121ca8482602086016120ed565b91505092915050565b6000813590506121e281613415565b92915050565b6000602082840312156121fa57600080fd5b60006122088482850161212b565b91505092915050565b6000806040838503121561222457600080fd5b60006122328582860161212b565b92505060206122438582860161212b565b9150509250929050565b60008060006060848603121561226257600080fd5b60006122708682870161212b565b93505060206122818682870161212b565b9250506040612292868287016121d3565b9150509250925092565b600080600080608085870312156122b257600080fd5b60006122c08782880161212b565b94505060206122d18782880161212b565b93505060406122e2878288016121d3565b925050606085013567ffffffffffffffff8111156122ff57600080fd5b61230b8782880161217f565b91505092959194509250565b6000806040838503121561232a57600080fd5b60006123388582860161212b565b925050602061234985828601612140565b9150509250929050565b6000806040838503121561236657600080fd5b60006123748582860161212b565b9250506020612385858286016121d3565b9150509250929050565b6000602082840312156123a157600080fd5b60006123af84828501612155565b91505092915050565b6000602082840312156123ca57600080fd5b60006123d88482850161216a565b91505092915050565b6000602082840312156123f357600080fd5b600082013567ffffffffffffffff81111561240d57600080fd5b612419848285016121a9565b91505092915050565b60006020828403121561243457600080fd5b6000612442848285016121d3565b91505092915050565b600061245783836127f9565b60208301905092915050565b61246c81612d23565b82525050565b61247b81612d11565b82525050565b600061248c82612c1b565b6124968185612c49565b93506124a183612c0b565b8060005b838110156124d25781516124b9888261244b565b97506124c483612c3c565b9250506001810190506124a5565b5085935050505092915050565b6124e881612d35565b82525050565b60006124f982612c26565b6125038185612c5a565b9350612513818560208601612da6565b61251c81612f12565b840191505092915050565b600061253282612c31565b61253c8185612c76565b935061254c818560208601612da6565b61255581612f12565b840191505092915050565b600061256d602b83612c76565b915061257882612f23565b604082019050919050565b6000612590603283612c76565b915061259b82612f72565b604082019050919050565b60006125b3602583612c76565b91506125be82612fc1565b604082019050919050565b60006125d6601c83612c76565b91506125e182613010565b602082019050919050565b60006125f9601483612c76565b915061260482613039565b602082019050919050565b600061261c602483612c76565b915061262782613062565b604082019050919050565b600061263f601983612c76565b915061264a826130b1565b602082019050919050565b6000612662602c83612c76565b915061266d826130da565b604082019050919050565b6000612685603883612c76565b915061269082613129565b604082019050919050565b60006126a8602a83612c76565b91506126b382613178565b604082019050919050565b60006126cb602983612c76565b91506126d6826131c7565b604082019050919050565b60006126ee602083612c76565b91506126f982613216565b602082019050919050565b6000612711602c83612c76565b915061271c8261323f565b604082019050919050565b6000612734602183612c76565b915061273f8261328e565b604082019050919050565b6000612757600083612c6b565b9150612762826132dd565b600082019050919050565b600061277a603183612c76565b9150612785826132e0565b604082019050919050565b600061279d601683612c76565b91506127a88261332f565b602082019050919050565b60006127c0602c83612c76565b91506127cb82613358565b604082019050919050565b60006127e3601a83612c76565b91506127ee826133a7565b602082019050919050565b60208201600082015161280f6000850182612815565b50505050565b61281e81612d8d565b82525050565b61282d81612d8d565b82525050565b600061283e8261274a565b9150819050919050565b600060208201905061285d6000830184612472565b92915050565b60006020820190506128786000830184612463565b92915050565b60006080820190506128936000830187612472565b6128a06020830186612472565b6128ad6040830185612824565b81810360608301526128bf81846124ee565b905095945050505050565b600060208201905081810360008301526128e48184612481565b905092915050565b600060208201905061290160008301846124df565b92915050565b600060208201905081810360008301526129218184612527565b905092915050565b6000602082019050818103600083015261294281612560565b9050919050565b6000602082019050818103600083015261296281612583565b9050919050565b60006020820190508181036000830152612982816125a6565b9050919050565b600060208201905081810360008301526129a2816125c9565b9050919050565b600060208201905081810360008301526129c2816125ec565b9050919050565b600060208201905081810360008301526129e28161260f565b9050919050565b60006020820190508181036000830152612a0281612632565b9050919050565b60006020820190508181036000830152612a2281612655565b9050919050565b60006020820190508181036000830152612a4281612678565b9050919050565b60006020820190508181036000830152612a628161269b565b9050919050565b60006020820190508181036000830152612a82816126be565b9050919050565b60006020820190508181036000830152612aa2816126e1565b9050919050565b60006020820190508181036000830152612ac281612704565b9050919050565b60006020820190508181036000830152612ae281612727565b9050919050565b60006020820190508181036000830152612b028161276d565b9050919050565b60006020820190508181036000830152612b2281612790565b9050919050565b60006020820190508181036000830152612b42816127b3565b9050919050565b60006020820190508181036000830152612b62816127d6565b9050919050565b6000602082019050612b7e6000830184612824565b92915050565b6000612b8e612b9f565b9050612b9a8282612e0b565b919050565b6000604051905090565b600067ffffffffffffffff821115612bc457612bc3612ee3565b5b612bcd82612f12565b9050602081019050919050565b600067ffffffffffffffff821115612bf557612bf4612ee3565b5b612bfe82612f12565b9050602081019050919050565b6000819050602082019050919050565b600081519050919050565b600081519050919050565b600081519050919050565b6000602082019050919050565b600082825260208201905092915050565b600082825260208201905092915050565b600081905092915050565b600082825260208201905092915050565b6000612c9282612d8d565b9150612c9d83612d8d565b9250827fffffffffffffffffffffffffffffffffffffffffffffffffffffffffffffffff03821115612cd257612cd1612e85565b5b828201905092915050565b6000612ce882612d8d565b9150612cf383612d8d565b925082821015612d0657612d05612e85565b5b828203905092915050565b6000612d1c82612d6d565b9050919050565b6000612d2e82612d6d565b9050919050565b60008115159050919050565b60007fffffffff0000000000000000000000000000000000000000000000000000000082169050919050565b600073ffffffffffffffffffffffffffffffffffffffff82169050919050565b6000819050919050565b82818337600083830152505050565b60005b83811015612dc4578082015181840152602081019050612da9565b83811115612dd3576000848401525b50505050565b60006002820490506001821680612df157607f821691505b60208210811415612e0557612e04612eb4565b5b50919050565b612e1482612f12565b810181811067ffffffffffffffff82111715612e3357612e32612ee3565b5b80604052505050565b6000612e4782612d8d565b91507fffffffffffffffffffffffffffffffffffffffffffffffffffffffffffffffff821415612e7a57612e79612e85565b5b600182019050919050565b7f4e487b7100000000000000000000000000000000000000000000000000000000600052601160045260246000fd5b7f4e487b7100000000000000000000000000000000000000000000000000000000600052602260045260246000fd5b7f4e487b7100000000000000000000000000000000000000000000000000000000600052604160045260246000fd5b6000601f19601f8301169050919050565b7f455243373231456e756d657261626c653a206f776e657220696e646578206f7560008201527f74206f6620626f756e6473000000000000000000000000000000000000000000602082015250565b7f4552433732313a207472616e7366657220746f206e6f6e20455243373231526560008201527f63656976657220696d706c656d656e7465720000000000000000000000000000602082015250565b7f4552433732313a207472616e736665722066726f6d20696e636f72726563742060008201527f6f776e6572000000000000000000000000000000000000000000000000000000602082015250565b7f4552433732313a20746f6b656e20616c7265616479206d696e74656400000000600082015250565b7f4661696c656420746f2073656e64204574686572000000000000000000000000600082015250565b7f4552433732313a207472616e7366657220746f20746865207a65726f2061646460008201527f7265737300000000000000000000000000000000000000000000000000000000602082015250565b7f4552433732313a20617070726f766520746f2063616c6c657200000000000000600082015250565b7f4552433732313a206f70657261746f7220717565727920666f72206e6f6e657860008201527f697374656e7420746f6b656e0000000000000000000000000000000000000000602082015250565b7f4552433732313a20617070726f76652063616c6c6572206973206e6f74206f7760008201527f6e6572206e6f7220617070726f76656420666f7220616c6c0000000000000000602082015250565b7f4552433732313a2062616c616e636520717565727920666f7220746865207a6560008201527f726f206164647265737300000000000000000000000000000000000000000000602082015250565b7f4552433732313a206f776e657220717565727920666f72206e6f6e657869737460008201527f656e7420746f6b656e0000000000000000000000000000000000000000000000602082015250565b7f4552433732313a206d696e7420746f20746865207a65726f2061646472657373600082015250565b7f4552433732313a20617070726f76656420717565727920666f72206e6f6e657860008201527f697374656e7420746f6b656e0000000000000000000000000000000000000000602082015250565b7f4552433732313a20617070726f76616c20746f2063757272656e74206f776e6560008201527f7200000000000000000000000000000000000000000000000000000000000000602082015250565b50565b7f4552433732313a207472616e736665722063616c6c6572206973206e6f74206f60008201527f776e6572206e6f7220617070726f766564000000000000000000000000000000602082015250565b7f43616c6c65722073656e74207a65726f20657468657200000000000000000000600082015250565b7f455243373231456e756d657261626c653a20676c6f62616c20696e646578206f60008201527f7574206f6620626f756e64730000000000000000000000000000000000000000602082015250565b7f4f776e657220646f65736e27742068617665207469636b65742e000000000000600082015250565b6133d981612d11565b81146133e457600080fd5b50565b6133f081612d35565b81146133fb57600080fd5b50565b61340781612d41565b811461341257600080fd5b50565b61341e81612d8d565b811461342957600080fd5b5056fea26469706673582212200fcc1a049112ddcb05a9a1b5ebe51ea2e26b4d162becfaf2d4fa38acbd8b021664736f6c63430008040033",
  "linkReferences": {},
  "deployedLinkReferences": {}
}