{
  "_format": "hh-sol-artifact-1",
  "contractName": "MintTicket",
  "sourceName": "contracts/MintTicket.sol",
  "abi": [
    {
      "inputs": [],
      "stateMutability": "nonpayable",
      "type": "constructor"
    },
    {
      "anonymous": false,
      "inputs": [
        {
          "indexed": true,
          "internalType": "address",
          "name": "owner",
          "type": "address"
        },
        {
          "indexed": true,
          "internalType": "address",
          "name": "approved",
          "type": "address"
        },
        {
          "indexed": true,
          "internalType": "uint256",
          "name": "tokenId",
          "type": "uint256"
        }
      ],
      "name": "Approval",
      "type": "event"
    },
    {
      "anonymous": false,
      "inputs": [
        {
          "indexed": true,
          "internalType": "address",
          "name": "owner",
          "type": "address"
        },
        {
          "indexed": true,
          "internalType": "address",
          "name": "operator",
          "type": "address"
        },
        {
          "indexed": false,
          "internalType": "bool",
          "name": "approved",
          "type": "bool"
        }
      ],
      "name": "ApprovalForAll",
      "type": "event"
    },
    {
      "anonymous": false,
      "inputs": [
        {
          "indexed": true,
          "internalType": "address",
          "name": "from",
          "type": "address"
        },
        {
          "indexed": true,
          "internalType": "address",
          "name": "to",
          "type": "address"
        },
        {
          "indexed": true,
          "internalType": "uint256",
          "name": "tokenId",
          "type": "uint256"
        }
      ],
      "name": "Transfer",
      "type": "event"
    },
    {
      "inputs": [
        {
          "internalType": "address",
          "name": "to",
          "type": "address"
        },
        {
          "internalType": "uint256",
          "name": "tokenId",
          "type": "uint256"
        }
      ],
      "name": "approve",
      "outputs": [],
      "stateMutability": "nonpayable",
      "type": "function"
    },
    {
      "inputs": [
        {
          "internalType": "address",
          "name": "owner",
          "type": "address"
        }
      ],
      "name": "balanceOf",
      "outputs": [
        {
          "internalType": "uint256",
          "name": "",
          "type": "uint256"
        }
      ],
      "stateMutability": "view",
      "type": "function"
    },
    {
      "inputs": [
        {
          "internalType": "address",
          "name": "to",
          "type": "address"
        },
        {
          "internalType": "string",
          "name": "_tokenURI",
          "type": "string"
        }
      ],
      "name": "create",
      "outputs": [
        {
          "internalType": "uint256",
          "name": "",
          "type": "uint256"
        }
      ],
      "stateMutability": "nonpayable",
      "type": "function"
    },
    {
      "inputs": [
        {
          "internalType": "uint256",
          "name": "tokenId",
          "type": "uint256"
        }
      ],
      "name": "getApproved",
      "outputs": [
        {
          "internalType": "address",
          "name": "",
          "type": "address"
        }
      ],
      "stateMutability": "view",
      "type": "function"
    },
    {
      "inputs": [
        {
          "internalType": "address",
          "name": "owner",
          "type": "address"
        },
        {
          "internalType": "address",
          "name": "operator",
          "type": "address"
        }
      ],
      "name": "isApprovedForAll",
      "outputs": [
        {
          "internalType": "bool",
          "name": "",
          "type": "bool"
        }
      ],
      "stateMutability": "view",
      "type": "function"
    },
    {
      "inputs": [],
      "name": "name",
      "outputs": [
        {
          "internalType": "string",
          "name": "",
          "type": "string"
        }
      ],
      "stateMutability": "view",
      "type": "function"
    },
    {
      "inputs": [
        {
          "internalType": "uint256",
          "name": "tokenId",
          "type": "uint256"
        }
      ],
      "name": "ownerOf",
      "outputs": [
        {
          "internalType": "address",
          "name": "",
          "type": "address"
        }
      ],
      "stateMutability": "view",
      "type": "function"
    },
    {
      "inputs": [
        {
          "internalType": "address",
          "name": "from",
          "type": "address"
        },
        {
          "internalType": "address",
          "name": "to",
          "type": "address"
        },
        {
          "internalType": "uint256",
          "name": "tokenId",
          "type": "uint256"
        }
      ],
      "name": "safeTransferFrom",
      "outputs": [],
      "stateMutability": "nonpayable",
      "type": "function"
    },
    {
      "inputs": [
        {
          "internalType": "address",
          "name": "from",
          "type": "address"
        },
        {
          "internalType": "address",
          "name": "to",
          "type": "address"
        },
        {
          "internalType": "uint256",
          "name": "tokenId",
          "type": "uint256"
        },
        {
          "internalType": "bytes",
          "name": "_data",
          "type": "bytes"
        }
      ],
      "name": "safeTransferFrom",
      "outputs": [],
      "stateMutability": "nonpayable",
      "type": "function"
    },
    {
      "inputs": [
        {
          "internalType": "address",
          "name": "operator",
          "type": "address"
        },
        {
          "internalType": "bool",
          "name": "approved",
          "type": "bool"
        }
      ],
      "name": "setApprovalForAll",
      "outputs": [],
      "stateMutability": "nonpayable",
      "type": "function"
    },
    {
      "inputs": [
        {
          "internalType": "bytes4",
          "name": "interfaceId",
          "type": "bytes4"
        }
      ],
      "name": "supportsInterface",
      "outputs": [
        {
          "internalType": "bool",
          "name": "",
          "type": "bool"
        }
      ],
      "stateMutability": "view",
      "type": "function"
    },
    {
      "inputs": [],
      "name": "symbol",
      "outputs": [
        {
          "internalType": "string",
          "name": "",
          "type": "string"
        }
      ],
      "stateMutability": "view",
      "type": "function"
    },
    {
      "inputs": [
        {
          "internalType": "uint256",
          "name": "index",
          "type": "uint256"
        }
      ],
      "name": "tokenByIndex",
      "outputs": [
        {
          "internalType": "uint256",
          "name": "",
          "type": "uint256"
        }
      ],
      "stateMutability": "view",
      "type": "function"
    },
    {
      "inputs": [
        {
          "internalType": "address",
          "name": "owner",
          "type": "address"
        },
        {
          "internalType": "uint256",
          "name": "index",
          "type": "uint256"
        }
      ],
      "name": "tokenOfOwnerByIndex",
      "outputs": [
        {
          "internalType": "uint256",
          "name": "",
          "type": "uint256"
        }
      ],
      "stateMutability": "view",
      "type": "function"
    },
    {
      "inputs": [
        {
          "internalType": "uint256",
          "name": "tokenId",
          "type": "uint256"
        }
      ],
      "name": "tokenURI",
      "outputs": [
        {
          "internalType": "string",
          "name": "",
          "type": "string"
        }
      ],
      "stateMutability": "view",
      "type": "function"
    },
    {
      "inputs": [],
      "name": "totalSupply",
      "outputs": [
        {
          "internalType": "uint256",
          "name": "",
          "type": "uint256"
        }
      ],
      "stateMutability": "view",
      "type": "function"
    },
    {
      "inputs": [
        {
          "internalType": "address",
          "name": "from",
          "type": "address"
        },
        {
          "internalType": "address",
          "name": "to",
          "type": "address"
        },
        {
          "internalType": "uint256",
          "name": "tokenId",
          "type": "uint256"
        }
      ],
      "name": "transferFrom",
      "outputs": [],
      "stateMutability": "nonpayable",
      "type": "function"
    }
  ],
  "bytecode": "0x60806040523480156200001157600080fd5b506040518060400160405280600881526020017f4d494e54204e46540000000000000000000000000000000000000000000000008152506040518060400160405280600381526020017f4d4e540000000000000000000000000000000000000000000000000000000000815250816000908051906020019062000096929190620000b8565b508060019080519060200190620000af929190620000b8565b505050620001cd565b828054620000c69062000168565b90600052602060002090601f016020900481019282620000ea576000855562000136565b82601f106200010557805160ff191683800117855562000136565b8280016001018555821562000136579182015b828111156200013557825182559160200191906001019062000118565b5b50905062000145919062000149565b5090565b5b80821115620001645760008160009055506001016200014a565b5090565b600060028204905060018216806200018157607f821691505b602082108114156200019857620001976200019e565b5b50919050565b7f4e487b7100000000000000000000000000000000000000000000000000000000600052602260045260246000fd5b612d1980620001dd6000396000f3fe608060405234801561001057600080fd5b506004361061010b5760003560e01c80634f6ccce7116100a2578063a15ab08d11610071578063a15ab08d146102de578063a22cb4651461030e578063b88d4fde1461032a578063c87b56dd14610346578063e985e9c5146103765761010b565b80634f6ccce7146102305780636352211e1461026057806370a082311461029057806395d89b41146102c05761010b565b806318160ddd116100de57806318160ddd146101aa57806323b872dd146101c85780632f745c59146101e457806342842e0e146102145761010b565b806301ffc9a71461011057806306fdde0314610140578063081812fc1461015e578063095ea7b31461018e575b600080fd5b61012a60048036038101906101259190611f92565b6103a6565b6040516101379190612320565b60405180910390f35b610148610420565b604051610155919061233b565b60405180910390f35b61017860048036038101906101739190611fe4565b6104b2565b60405161018591906122b9565b60405180910390f35b6101a860048036038101906101a39190611f56565b610537565b005b6101b261064f565b6040516101bf919061253d565b60405180910390f35b6101e260048036038101906101dd9190611dfc565b61065c565b005b6101fe60048036038101906101f99190611f56565b6106bc565b60405161020b919061253d565b60405180910390f35b61022e60048036038101906102299190611dfc565b610761565b005b61024a60048036038101906102459190611fe4565b610781565b604051610257919061253d565b60405180910390f35b61027a60048036038101906102759190611fe4565b610818565b60405161028791906122b9565b60405180910390f35b6102aa60048036038101906102a59190611d97565b6108ca565b6040516102b7919061253d565b60405180910390f35b6102c8610982565b6040516102d5919061233b565b60405180910390f35b6102f860048036038101906102f39190611f02565b610a14565b604051610305919061253d565b60405180910390f35b61032860048036038101906103239190611ec6565b610a69565b005b610344600480360381019061033f9190611e4b565b610a7f565b005b610360600480360381019061035b9190611fe4565b610ae1565b60405161036d919061233b565b60405180910390f35b610390600480360381019061038b9190611dc0565b610b86565b60405161039d9190612320565b60405180910390f35b60007f780e9d63000000000000000000000000000000000000000000000000000000007bffffffffffffffffffffffffffffffffffffffffffffffffffffffff1916827bffffffffffffffffffffffffffffffffffffffffffffffffffffffff19161480610419575061041882610c1a565b5b9050919050565b60606000805461042f90612757565b80601f016020809104026020016040519081016040528092919081815260200182805461045b90612757565b80156104a85780601f1061047d576101008083540402835291602001916104a8565b820191906000526020600020905b81548152906001019060200180831161048b57829003601f168201915b5050505050905090565b60006104bd82610cfc565b6104fc576040517f08c379a00000000000000000000000000000000000000000000000000000000081526004016104f3906124bd565b60405180910390fd5b6004600083815260200190815260200160002060009054906101000a900473ffffffffffffffffffffffffffffffffffffffff169050919050565b600061054282610818565b90508073ffffffffffffffffffffffffffffffffffffffff168373ffffffffffffffffffffffffffffffffffffffff1614156105b3576040517f08c379a00000000000000000000000000000000000000000000000000000000081526004016105aa906124dd565b60405180910390fd5b8073ffffffffffffffffffffffffffffffffffffffff166105d2610d68565b73ffffffffffffffffffffffffffffffffffffffff1614806106015750610600816105fb610d68565b610b86565b5b610640576040517f08c379a00000000000000000000000000000000000000000000000000000000081526004016106379061243d565b60405180910390fd5b61064a8383610d70565b505050565b6000600880549050905090565b61066d610667610d68565b82610e29565b6106ac576040517f08c379a00000000000000000000000000000000000000000000000000000000081526004016106a3906124fd565b60405180910390fd5b6106b7838383610f07565b505050565b60006106c7836108ca565b8210610708576040517f08c379a00000000000000000000000000000000000000000000000000000000081526004016106ff9061235d565b60405180910390fd5b600660008473ffffffffffffffffffffffffffffffffffffffff1673ffffffffffffffffffffffffffffffffffffffff168152602001908152602001600020600083815260200190815260200160002054905092915050565b61077c83838360405180602001604052806000815250610a7f565b505050565b600061078b61064f565b82106107cc576040517f08c379a00000000000000000000000000000000000000000000000000000000081526004016107c39061251d565b60405180910390fd5b60088281548110610806577f4e487b7100000000000000000000000000000000000000000000000000000000600052603260045260246000fd5b90600052602060002001549050919050565b6000806002600084815260200190815260200160002060009054906101000a900473ffffffffffffffffffffffffffffffffffffffff169050600073ffffffffffffffffffffffffffffffffffffffff168173ffffffffffffffffffffffffffffffffffffffff1614156108c1576040517f08c379a00000000000000000000000000000000000000000000000000000000081526004016108b89061247d565b60405180910390fd5b80915050919050565b60008073ffffffffffffffffffffffffffffffffffffffff168273ffffffffffffffffffffffffffffffffffffffff16141561093b576040517f08c379a00000000000000000000000000000000000000000000000000000000081526004016109329061245d565b60405180910390fd5b600360008373ffffffffffffffffffffffffffffffffffffffff1673ffffffffffffffffffffffffffffffffffffffff168152602001908152602001600020549050919050565b60606001805461099190612757565b80601f01602080910402602001604051908101604052809291908181526020018280546109bd90612757565b8015610a0a5780601f106109df57610100808354040283529160200191610a0a565b820191906000526020600020905b8154815290600101906020018083116109ed57829003601f168201915b5050505050905090565b6000806001610a2161064f565b610a2b9190612617565b9050610a37848261116e565b82600a60008381526020019081526020016000209080519060200190610a5e929190611bbb565b508091505092915050565b610a7b610a74610d68565b8383611348565b5050565b610a90610a8a610d68565b83610e29565b610acf576040517f08c379a0000000000000000000000000000000000000000000000000000000008152600401610ac6906124fd565b60405180910390fd5b610adb848484846114b5565b50505050565b6060600a60008381526020019081526020016000208054610b0190612757565b80601f0160208091040260200160405190810160405280929190818152602001828054610b2d90612757565b8015610b7a5780601f10610b4f57610100808354040283529160200191610b7a565b820191906000526020600020905b815481529060010190602001808311610b5d57829003601f168201915b50505050509050919050565b6000600560008473ffffffffffffffffffffffffffffffffffffffff1673ffffffffffffffffffffffffffffffffffffffff16815260200190815260200160002060008373ffffffffffffffffffffffffffffffffffffffff1673ffffffffffffffffffffffffffffffffffffffff16815260200190815260200160002060009054906101000a900460ff16905092915050565b60007f80ac58cd000000000000000000000000000000000000000000000000000000007bffffffffffffffffffffffffffffffffffffffffffffffffffffffff1916827bffffffffffffffffffffffffffffffffffffffffffffffffffffffff19161480610ce557507f5b5e139f000000000000000000000000000000000000000000000000000000007bffffffffffffffffffffffffffffffffffffffffffffffffffffffff1916827bffffffffffffffffffffffffffffffffffffffffffffffffffffffff1916145b80610cf55750610cf482611511565b5b9050919050565b60008073ffffffffffffffffffffffffffffffffffffffff166002600084815260200190815260200160002060009054906101000a900473ffffffffffffffffffffffffffffffffffffffff1673ffffffffffffffffffffffffffffffffffffffff1614159050919050565b600033905090565b816004600083815260200190815260200160002060006101000a81548173ffffffffffffffffffffffffffffffffffffffff021916908373ffffffffffffffffffffffffffffffffffffffff160217905550808273ffffffffffffffffffffffffffffffffffffffff16610de383610818565b73ffffffffffffffffffffffffffffffffffffffff167f8c5be1e5ebec7d5bd14f71427d1e84f3dd0314c0f7b2291e5b200ac8c7c3b92560405160405180910390a45050565b6000610e3482610cfc565b610e73576040517f08c379a0000000000000000000000000000000000000000000000000000000008152600401610e6a9061241d565b60405180910390fd5b6000610e7e83610818565b90508073ffffffffffffffffffffffffffffffffffffffff168473ffffffffffffffffffffffffffffffffffffffff161480610ec05750610ebf8185610b86565b5b80610efe57508373ffffffffffffffffffffffffffffffffffffffff16610ee6846104b2565b73ffffffffffffffffffffffffffffffffffffffff16145b91505092915050565b8273ffffffffffffffffffffffffffffffffffffffff16610f2782610818565b73ffffffffffffffffffffffffffffffffffffffff1614610f7d576040517f08c379a0000000000000000000000000000000000000000000000000000000008152600401610f749061239d565b60405180910390fd5b600073ffffffffffffffffffffffffffffffffffffffff168273ffffffffffffffffffffffffffffffffffffffff161415610fed576040517f08c379a0000000000000000000000000000000000000000000000000000000008152600401610fe4906123dd565b60405180910390fd5b610ff883838361157b565b611003600082610d70565b6001600360008573ffffffffffffffffffffffffffffffffffffffff1673ffffffffffffffffffffffffffffffffffffffff1681526020019081526020016000206000828254611053919061266d565b925050819055506001600360008473ffffffffffffffffffffffffffffffffffffffff1673ffffffffffffffffffffffffffffffffffffffff16815260200190815260200160002060008282546110aa9190612617565b92505081905550816002600083815260200190815260200160002060006101000a81548173ffffffffffffffffffffffffffffffffffffffff021916908373ffffffffffffffffffffffffffffffffffffffff160217905550808273ffffffffffffffffffffffffffffffffffffffff168473ffffffffffffffffffffffffffffffffffffffff167fddf252ad1be2c89b69c2b068fc378daa952ba7f163c4a11628f55a4df523b3ef60405160405180910390a461116983838361168f565b505050565b600073ffffffffffffffffffffffffffffffffffffffff168273ffffffffffffffffffffffffffffffffffffffff1614156111de576040517f08c379a00000000000000000000000000000000000000000000000000000000081526004016111d59061249d565b60405180910390fd5b6111e781610cfc565b15611227576040517f08c379a000000000000000000000000000000000000000000000000000000000815260040161121e906123bd565b60405180910390fd5b6112336000838361157b565b6001600360008473ffffffffffffffffffffffffffffffffffffffff1673ffffffffffffffffffffffffffffffffffffffff16815260200190815260200160002060008282546112839190612617565b92505081905550816002600083815260200190815260200160002060006101000a81548173ffffffffffffffffffffffffffffffffffffffff021916908373ffffffffffffffffffffffffffffffffffffffff160217905550808273ffffffffffffffffffffffffffffffffffffffff16600073ffffffffffffffffffffffffffffffffffffffff167fddf252ad1be2c89b69c2b068fc378daa952ba7f163c4a11628f55a4df523b3ef60405160405180910390a46113446000838361168f565b5050565b8173ffffffffffffffffffffffffffffffffffffffff168373ffffffffffffffffffffffffffffffffffffffff1614156113b7576040517f08c379a00000000000000000000000000000000000000000000000000000000081526004016113ae906123fd565b60405180910390fd5b80600560008573ffffffffffffffffffffffffffffffffffffffff1673ffffffffffffffffffffffffffffffffffffffff16815260200190815260200160002060008473ffffffffffffffffffffffffffffffffffffffff1673ffffffffffffffffffffffffffffffffffffffff16815260200190815260200160002060006101000a81548160ff0219169083151502179055508173ffffffffffffffffffffffffffffffffffffffff168373ffffffffffffffffffffffffffffffffffffffff167f17307eab39ab6107e8899845ad3d59bd9653f200f220920489ca2b5937696c31836040516114a89190612320565b60405180910390a3505050565b6114c0848484610f07565b6114cc84848484611694565b61150b576040517f08c379a00000000000000000000000000000000000000000000000000000000081526004016115029061237d565b60405180910390fd5b50505050565b60007f01ffc9a7000000000000000000000000000000000000000000000000000000007bffffffffffffffffffffffffffffffffffffffffffffffffffffffff1916827bffffffffffffffffffffffffffffffffffffffffffffffffffffffff1916149050919050565b61158683838361182b565b600073ffffffffffffffffffffffffffffffffffffffff168373ffffffffffffffffffffffffffffffffffffffff1614156115c9576115c481611830565b611608565b8173ffffffffffffffffffffffffffffffffffffffff168373ffffffffffffffffffffffffffffffffffffffff1614611607576116068382611879565b5b5b600073ffffffffffffffffffffffffffffffffffffffff168273ffffffffffffffffffffffffffffffffffffffff16141561164b57611646816119e6565b61168a565b8273ffffffffffffffffffffffffffffffffffffffff168273ffffffffffffffffffffffffffffffffffffffff1614611689576116888282611b29565b5b5b505050565b505050565b60006116b58473ffffffffffffffffffffffffffffffffffffffff16611ba8565b1561181e578373ffffffffffffffffffffffffffffffffffffffff1663150b7a026116de610d68565b8786866040518563ffffffff1660e01b815260040161170094939291906122d4565b602060405180830381600087803b15801561171a57600080fd5b505af192505050801561174b57506040513d601f19601f820116820180604052508101906117489190611fbb565b60015b6117ce573d806000811461177b576040519150601f19603f3d011682016040523d82523d6000602084013e611780565b606091505b506000815114156117c6576040517f08c379a00000000000000000000000000000000000000000000000000000000081526004016117bd9061237d565b60405180910390fd5b805181602001fd5b63150b7a0260e01b7bffffffffffffffffffffffffffffffffffffffffffffffffffffffff1916817bffffffffffffffffffffffffffffffffffffffffffffffffffffffff191614915050611823565b600190505b949350505050565b505050565b6008805490506009600083815260200190815260200160002081905550600881908060018154018082558091505060019003906000526020600020016000909190919091505550565b60006001611886846108ca565b611890919061266d565b9050600060076000848152602001908152602001600020549050818114611975576000600660008673ffffffffffffffffffffffffffffffffffffffff1673ffffffffffffffffffffffffffffffffffffffff168152602001908152602001600020600084815260200190815260200160002054905080600660008773ffffffffffffffffffffffffffffffffffffffff1673ffffffffffffffffffffffffffffffffffffffff168152602001908152602001600020600084815260200190815260200160002081905550816007600083815260200190815260200160002081905550505b6007600084815260200190815260200160002060009055600660008573ffffffffffffffffffffffffffffffffffffffff1673ffffffffffffffffffffffffffffffffffffffff16815260200190815260200160002060008381526020019081526020016000206000905550505050565b600060016008805490506119fa919061266d565b9050600060096000848152602001908152602001600020549050600060088381548110611a50577f4e487b7100000000000000000000000000000000000000000000000000000000600052603260045260246000fd5b906000526020600020015490508060088381548110611a98577f4e487b7100000000000000000000000000000000000000000000000000000000600052603260045260246000fd5b906000526020600020018190555081600960008381526020019081526020016000208190555060096000858152602001908152602001600020600090556008805480611b0d577f4e487b7100000000000000000000000000000000000000000000000000000000600052603160045260246000fd5b6001900381819060005260206000200160009055905550505050565b6000611b34836108ca565b905081600660008573ffffffffffffffffffffffffffffffffffffffff1673ffffffffffffffffffffffffffffffffffffffff168152602001908152602001600020600083815260200190815260200160002081905550806007600084815260200190815260200160002081905550505050565b600080823b905060008111915050919050565b828054611bc790612757565b90600052602060002090601f016020900481019282611be95760008555611c30565b82601f10611c0257805160ff1916838001178555611c30565b82800160010185558215611c30579182015b82811115611c2f578251825591602001919060010190611c14565b5b509050611c3d9190611c41565b5090565b5b80821115611c5a576000816000905550600101611c42565b5090565b6000611c71611c6c8461257d565b612558565b905082815260208101848484011115611c8957600080fd5b611c94848285612715565b509392505050565b6000611caf611caa846125ae565b612558565b905082815260208101848484011115611cc757600080fd5b611cd2848285612715565b509392505050565b600081359050611ce981612c87565b92915050565b600081359050611cfe81612c9e565b92915050565b600081359050611d1381612cb5565b92915050565b600081519050611d2881612cb5565b92915050565b600082601f830112611d3f57600080fd5b8135611d4f848260208601611c5e565b91505092915050565b600082601f830112611d6957600080fd5b8135611d79848260208601611c9c565b91505092915050565b600081359050611d9181612ccc565b92915050565b600060208284031215611da957600080fd5b6000611db784828501611cda565b91505092915050565b60008060408385031215611dd357600080fd5b6000611de185828601611cda565b9250506020611df285828601611cda565b9150509250929050565b600080600060608486031215611e1157600080fd5b6000611e1f86828701611cda565b9350506020611e3086828701611cda565b9250506040611e4186828701611d82565b9150509250925092565b60008060008060808587031215611e6157600080fd5b6000611e6f87828801611cda565b9450506020611e8087828801611cda565b9350506040611e9187828801611d82565b925050606085013567ffffffffffffffff811115611eae57600080fd5b611eba87828801611d2e565b91505092959194509250565b60008060408385031215611ed957600080fd5b6000611ee785828601611cda565b9250506020611ef885828601611cef565b9150509250929050565b60008060408385031215611f1557600080fd5b6000611f2385828601611cda565b925050602083013567ffffffffffffffff811115611f4057600080fd5b611f4c85828601611d58565b9150509250929050565b60008060408385031215611f6957600080fd5b6000611f7785828601611cda565b9250506020611f8885828601611d82565b9150509250929050565b600060208284031215611fa457600080fd5b6000611fb284828501611d04565b91505092915050565b600060208284031215611fcd57600080fd5b6000611fdb84828501611d19565b91505092915050565b600060208284031215611ff657600080fd5b600061200484828501611d82565b91505092915050565b612016816126a1565b82525050565b612025816126b3565b82525050565b6000612036826125df565b61204081856125f5565b9350612050818560208601612724565b61205981612847565b840191505092915050565b600061206f826125ea565b6120798185612606565b9350612089818560208601612724565b61209281612847565b840191505092915050565b60006120aa602b83612606565b91506120b582612858565b604082019050919050565b60006120cd603283612606565b91506120d8826128a7565b604082019050919050565b60006120f0602583612606565b91506120fb826128f6565b604082019050919050565b6000612113601c83612606565b915061211e82612945565b602082019050919050565b6000612136602483612606565b91506121418261296e565b604082019050919050565b6000612159601983612606565b9150612164826129bd565b602082019050919050565b600061217c602c83612606565b9150612187826129e6565b604082019050919050565b600061219f603883612606565b91506121aa82612a35565b604082019050919050565b60006121c2602a83612606565b91506121cd82612a84565b604082019050919050565b60006121e5602983612606565b91506121f082612ad3565b604082019050919050565b6000612208602083612606565b915061221382612b22565b602082019050919050565b600061222b602c83612606565b915061223682612b4b565b604082019050919050565b600061224e602183612606565b915061225982612b9a565b604082019050919050565b6000612271603183612606565b915061227c82612be9565b604082019050919050565b6000612294602c83612606565b915061229f82612c38565b604082019050919050565b6122b38161270b565b82525050565b60006020820190506122ce600083018461200d565b92915050565b60006080820190506122e9600083018761200d565b6122f6602083018661200d565b61230360408301856122aa565b8181036060830152612315818461202b565b905095945050505050565b6000602082019050612335600083018461201c565b92915050565b600060208201905081810360008301526123558184612064565b905092915050565b600060208201905081810360008301526123768161209d565b9050919050565b60006020820190508181036000830152612396816120c0565b9050919050565b600060208201905081810360008301526123b6816120e3565b9050919050565b600060208201905081810360008301526123d681612106565b9050919050565b600060208201905081810360008301526123f681612129565b9050919050565b600060208201905081810360008301526124168161214c565b9050919050565b600060208201905081810360008301526124368161216f565b9050919050565b6000602082019050818103600083015261245681612192565b9050919050565b60006020820190508181036000830152612476816121b5565b9050919050565b60006020820190508181036000830152612496816121d8565b9050919050565b600060208201905081810360008301526124b6816121fb565b9050919050565b600060208201905081810360008301526124d68161221e565b9050919050565b600060208201905081810360008301526124f681612241565b9050919050565b6000602082019050818103600083015261251681612264565b9050919050565b6000602082019050818103600083015261253681612287565b9050919050565b600060208201905061255260008301846122aa565b92915050565b6000612562612573565b905061256e8282612789565b919050565b6000604051905090565b600067ffffffffffffffff82111561259857612597612818565b5b6125a182612847565b9050602081019050919050565b600067ffffffffffffffff8211156125c9576125c8612818565b5b6125d282612847565b9050602081019050919050565b600081519050919050565b600081519050919050565b600082825260208201905092915050565b600082825260208201905092915050565b60006126228261270b565b915061262d8361270b565b9250827fffffffffffffffffffffffffffffffffffffffffffffffffffffffffffffffff03821115612662576126616127ba565b5b828201905092915050565b60006126788261270b565b91506126838361270b565b925082821015612696576126956127ba565b5b828203905092915050565b60006126ac826126eb565b9050919050565b60008115159050919050565b60007fffffffff0000000000000000000000000000000000000000000000000000000082169050919050565b600073ffffffffffffffffffffffffffffffffffffffff82169050919050565b6000819050919050565b82818337600083830152505050565b60005b83811015612742578082015181840152602081019050612727565b83811115612751576000848401525b50505050565b6000600282049050600182168061276f57607f821691505b60208210811415612783576127826127e9565b5b50919050565b61279282612847565b810181811067ffffffffffffffff821117156127b1576127b0612818565b5b80604052505050565b7f4e487b7100000000000000000000000000000000000000000000000000000000600052601160045260246000fd5b7f4e487b7100000000000000000000000000000000000000000000000000000000600052602260045260246000fd5b7f4e487b7100000000000000000000000000000000000000000000000000000000600052604160045260246000fd5b6000601f19601f8301169050919050565b7f455243373231456e756d657261626c653a206f776e657220696e646578206f7560008201527f74206f6620626f756e6473000000000000000000000000000000000000000000602082015250565b7f4552433732313a207472616e7366657220746f206e6f6e20455243373231526560008201527f63656976657220696d706c656d656e7465720000000000000000000000000000602082015250565b7f4552433732313a207472616e736665722066726f6d20696e636f72726563742060008201527f6f776e6572000000000000000000000000000000000000000000000000000000602082015250565b7f4552433732313a20746f6b656e20616c7265616479206d696e74656400000000600082015250565b7f4552433732313a207472616e7366657220746f20746865207a65726f2061646460008201527f7265737300000000000000000000000000000000000000000000000000000000602082015250565b7f4552433732313a20617070726f766520746f2063616c6c657200000000000000600082015250565b7f4552433732313a206f70657261746f7220717565727920666f72206e6f6e657860008201527f697374656e7420746f6b656e0000000000000000000000000000000000000000602082015250565b7f4552433732313a20617070726f76652063616c6c6572206973206e6f74206f7760008201527f6e6572206e6f7220617070726f76656420666f7220616c6c0000000000000000602082015250565b7f4552433732313a2062616c616e636520717565727920666f7220746865207a6560008201527f726f206164647265737300000000000000000000000000000000000000000000602082015250565b7f4552433732313a206f776e657220717565727920666f72206e6f6e657869737460008201527f656e7420746f6b656e0000000000000000000000000000000000000000000000602082015250565b7f4552433732313a206d696e7420746f20746865207a65726f2061646472657373600082015250565b7f4552433732313a20617070726f76656420717565727920666f72206e6f6e657860008201527f697374656e7420746f6b656e0000000000000000000000000000000000000000602082015250565b7f4552433732313a20617070726f76616c20746f2063757272656e74206f776e6560008201527f7200000000000000000000000000000000000000000000000000000000000000602082015250565b7f4552433732313a207472616e736665722063616c6c6572206973206e6f74206f60008201527f776e6572206e6f7220617070726f766564000000000000000000000000000000602082015250565b7f455243373231456e756d657261626c653a20676c6f62616c20696e646578206f60008201527f7574206f6620626f756e64730000000000000000000000000000000000000000602082015250565b612c90816126a1565b8114612c9b57600080fd5b50565b612ca7816126b3565b8114612cb257600080fd5b50565b612cbe816126bf565b8114612cc957600080fd5b50565b612cd58161270b565b8114612ce057600080fd5b5056fea2646970667358221220abbe2e685e79582e83e05d644bf39d120def3bee47199395c23efdeaabc0999e64736f6c63430008040033",
  "linkReferences": {},
  "deployedLinkReferences": {}
}