{
  "_format": "hh-sol-artifact-1",
  "contractName": "MintTicket",
  "sourceName": "contracts/MintTicket.sol",
  "abi": [
    {
      "inputs": [
        {
          "internalType": "uint256",
          "name": "_price",
          "type": "uint256"
        }
      ],
      "stateMutability": "payable",
      "type": "constructor"
    },
    {
      "anonymous": false,
      "inputs": [
        {
          "indexed": true,
          "internalType": "address",
          "name": "owner",
          "type": "address"
        },
        {
          "indexed": true,
          "internalType": "address",
          "name": "approved",
          "type": "address"
        },
        {
          "indexed": true,
          "internalType": "uint256",
          "name": "tokenId",
          "type": "uint256"
        }
      ],
      "name": "Approval",
      "type": "event"
    },
    {
      "anonymous": false,
      "inputs": [
        {
          "indexed": true,
          "internalType": "address",
          "name": "owner",
          "type": "address"
        },
        {
          "indexed": true,
          "internalType": "address",
          "name": "operator",
          "type": "address"
        },
        {
          "indexed": false,
          "internalType": "bool",
          "name": "approved",
          "type": "bool"
        }
      ],
      "name": "ApprovalForAll",
      "type": "event"
    },
    {
      "anonymous": false,
      "inputs": [
        {
          "indexed": true,
          "internalType": "address",
          "name": "from",
          "type": "address"
        },
        {
          "indexed": true,
          "internalType": "address",
          "name": "to",
          "type": "address"
        },
        {
          "indexed": true,
          "internalType": "uint256",
          "name": "tokenId",
          "type": "uint256"
        }
      ],
      "name": "Transfer",
      "type": "event"
    },
    {
      "inputs": [
        {
          "internalType": "address",
          "name": "to",
          "type": "address"
        },
        {
          "internalType": "uint256",
          "name": "tokenId",
          "type": "uint256"
        }
      ],
      "name": "approve",
      "outputs": [],
      "stateMutability": "nonpayable",
      "type": "function"
    },
    {
      "inputs": [
        {
          "internalType": "address",
          "name": "owner",
          "type": "address"
        }
      ],
      "name": "balanceOf",
      "outputs": [
        {
          "internalType": "uint256",
          "name": "",
          "type": "uint256"
        }
      ],
      "stateMutability": "view",
      "type": "function"
    },
    {
      "inputs": [
        {
          "internalType": "string",
          "name": "_tokenURI",
          "type": "string"
        }
      ],
      "name": "buyTicket",
      "outputs": [
        {
          "internalType": "uint256",
          "name": "",
          "type": "uint256"
        }
      ],
      "stateMutability": "payable",
      "type": "function"
    },
    {
      "inputs": [
        {
          "internalType": "uint256",
          "name": "tokenId",
          "type": "uint256"
        }
      ],
      "name": "getApproved",
      "outputs": [
        {
          "internalType": "address",
          "name": "",
          "type": "address"
        }
      ],
      "stateMutability": "view",
      "type": "function"
    },
    {
      "inputs": [
        {
          "internalType": "address",
          "name": "_mintTicketOwner",
          "type": "address"
        }
      ],
      "name": "getTicketList",
      "outputs": [
        {
          "components": [
            {
              "internalType": "uint256",
              "name": "tokenId",
              "type": "uint256"
            }
          ],
          "internalType": "struct MintTicket.TicketTokenData[]",
          "name": "",
          "type": "tuple[]"
        }
      ],
      "stateMutability": "view",
      "type": "function"
    },
    {
      "inputs": [],
      "name": "getTicketPrice",
      "outputs": [
        {
          "internalType": "uint256",
          "name": "",
          "type": "uint256"
        }
      ],
      "stateMutability": "view",
      "type": "function"
    },
    {
      "inputs": [
        {
          "internalType": "address",
          "name": "owner",
          "type": "address"
        },
        {
          "internalType": "address",
          "name": "operator",
          "type": "address"
        }
      ],
      "name": "isApprovedForAll",
      "outputs": [
        {
          "internalType": "bool",
          "name": "",
          "type": "bool"
        }
      ],
      "stateMutability": "view",
      "type": "function"
    },
    {
      "inputs": [],
      "name": "name",
      "outputs": [
        {
          "internalType": "string",
          "name": "",
          "type": "string"
        }
      ],
      "stateMutability": "view",
      "type": "function"
    },
    {
      "inputs": [],
      "name": "owner",
      "outputs": [
        {
          "internalType": "address payable",
          "name": "",
          "type": "address"
        }
      ],
      "stateMutability": "view",
      "type": "function"
    },
    {
      "inputs": [
        {
          "internalType": "uint256",
          "name": "tokenId",
          "type": "uint256"
        }
      ],
      "name": "ownerOf",
      "outputs": [
        {
          "internalType": "address",
          "name": "",
          "type": "address"
        }
      ],
      "stateMutability": "view",
      "type": "function"
    },
    {
      "inputs": [
        {
          "internalType": "address",
          "name": "from",
          "type": "address"
        },
        {
          "internalType": "address",
          "name": "to",
          "type": "address"
        },
        {
          "internalType": "uint256",
          "name": "tokenId",
          "type": "uint256"
        }
      ],
      "name": "safeTransferFrom",
      "outputs": [],
      "stateMutability": "nonpayable",
      "type": "function"
    },
    {
      "inputs": [
        {
          "internalType": "address",
          "name": "from",
          "type": "address"
        },
        {
          "internalType": "address",
          "name": "to",
          "type": "address"
        },
        {
          "internalType": "uint256",
          "name": "tokenId",
          "type": "uint256"
        },
        {
          "internalType": "bytes",
          "name": "_data",
          "type": "bytes"
        }
      ],
      "name": "safeTransferFrom",
      "outputs": [],
      "stateMutability": "nonpayable",
      "type": "function"
    },
    {
      "inputs": [
        {
          "internalType": "address",
          "name": "operator",
          "type": "address"
        },
        {
          "internalType": "bool",
          "name": "approved",
          "type": "bool"
        }
      ],
      "name": "setApprovalForAll",
      "outputs": [],
      "stateMutability": "nonpayable",
      "type": "function"
    },
    {
      "inputs": [
        {
          "internalType": "bytes4",
          "name": "interfaceId",
          "type": "bytes4"
        }
      ],
      "name": "supportsInterface",
      "outputs": [
        {
          "internalType": "bool",
          "name": "",
          "type": "bool"
        }
      ],
      "stateMutability": "view",
      "type": "function"
    },
    {
      "inputs": [],
      "name": "symbol",
      "outputs": [
        {
          "internalType": "string",
          "name": "",
          "type": "string"
        }
      ],
      "stateMutability": "view",
      "type": "function"
    },
    {
      "inputs": [
        {
          "internalType": "uint256",
          "name": "index",
          "type": "uint256"
        }
      ],
      "name": "tokenByIndex",
      "outputs": [
        {
          "internalType": "uint256",
          "name": "",
          "type": "uint256"
        }
      ],
      "stateMutability": "view",
      "type": "function"
    },
    {
      "inputs": [
        {
          "internalType": "address",
          "name": "owner",
          "type": "address"
        },
        {
          "internalType": "uint256",
          "name": "index",
          "type": "uint256"
        }
      ],
      "name": "tokenOfOwnerByIndex",
      "outputs": [
        {
          "internalType": "uint256",
          "name": "",
          "type": "uint256"
        }
      ],
      "stateMutability": "view",
      "type": "function"
    },
    {
      "inputs": [
        {
          "internalType": "uint256",
          "name": "tokenId",
          "type": "uint256"
        }
      ],
      "name": "tokenURI",
      "outputs": [
        {
          "internalType": "string",
          "name": "",
          "type": "string"
        }
      ],
      "stateMutability": "view",
      "type": "function"
    },
    {
      "inputs": [],
      "name": "totalSupply",
      "outputs": [
        {
          "internalType": "uint256",
          "name": "",
          "type": "uint256"
        }
      ],
      "stateMutability": "view",
      "type": "function"
    },
    {
      "inputs": [
        {
          "internalType": "address",
          "name": "from",
          "type": "address"
        },
        {
          "internalType": "address",
          "name": "to",
          "type": "address"
        },
        {
          "internalType": "uint256",
          "name": "tokenId",
          "type": "uint256"
        }
      ],
      "name": "transferFrom",
      "outputs": [],
      "stateMutability": "nonpayable",
      "type": "function"
    },
    {
      "inputs": [],
      "name": "withdraw",
      "outputs": [],
      "stateMutability": "nonpayable",
      "type": "function"
    }
  ],
  "bytecode": "0x608060405260405162003657380380620036578339818101604052810190620000299190620001df565b6040518060400160405280600881526020017f4d494e54204e46540000000000000000000000000000000000000000000000008152506040518060400160405280600381526020017f4d4e5400000000000000000000000000000000000000000000000000000000008152508160009080519060200190620000ad92919062000118565b508060019080519060200190620000c692919062000118565b50505033600a60006101000a81548173ffffffffffffffffffffffffffffffffffffffff021916908373ffffffffffffffffffffffffffffffffffffffff16021790555080600b819055505062000294565b828054620001269062000215565b90600052602060002090601f0160209004810192826200014a576000855562000196565b82601f106200016557805160ff191683800117855562000196565b8280016001018555821562000196579182015b828111156200019557825182559160200191906001019062000178565b5b509050620001a59190620001a9565b5090565b5b80821115620001c4576000816000905550600101620001aa565b5090565b600081519050620001d9816200027a565b92915050565b600060208284031215620001f257600080fd5b60006200020284828501620001c8565b91505092915050565b6000819050919050565b600060028204905060018216806200022e57607f821691505b602082108114156200024557620002446200024b565b5b50919050565b7f4e487b7100000000000000000000000000000000000000000000000000000000600052602260045260246000fd5b62000285816200020b565b81146200029157600080fd5b50565b6133b380620002a46000396000f3fe60806040526004361061012a5760003560e01c80636352211e116100ab578063a22cb4651161006f578063a22cb46514610406578063b88d4fde1461042f578063c87b56dd14610458578063cc71e05f14610495578063e985e9c5146104d2578063fa30b2511461050f5761012a565b80636352211e1461030b57806370a082311461034857806387bb7ae0146103855780638da5cb5b146103b057806395d89b41146103db5761012a565b806323b872dd116100f257806323b872dd146102285780632f745c59146102515780633ccfd60b1461028e57806342842e0e146102a55780634f6ccce7146102ce5761012a565b806301ffc9a71461012f57806306fdde031461016c578063081812fc14610197578063095ea7b3146101d457806318160ddd146101fd575b600080fd5b34801561013b57600080fd5b506101566004803603810190610151919061234c565b61053f565b6040516101639190612886565b60405180910390f35b34801561017857600080fd5b506101816105b9565b60405161018e91906128a1565b60405180910390f35b3480156101a357600080fd5b506101be60048036038101906101b991906123df565b61064b565b6040516101cb91906127e2565b60405180910390f35b3480156101e057600080fd5b506101fb60048036038101906101f69190612310565b6106d0565b005b34801561020957600080fd5b506102126107e8565b60405161021f9190612ae3565b60405180910390f35b34801561023457600080fd5b5061024f600480360381019061024a919061220a565b6107f5565b005b34801561025d57600080fd5b5061027860048036038101906102739190612310565b610855565b6040516102859190612ae3565b60405180910390f35b34801561029a57600080fd5b506102a36108fa565b005b3480156102b157600080fd5b506102cc60048036038101906102c7919061220a565b6109d1565b005b3480156102da57600080fd5b506102f560048036038101906102f091906123df565b6109f1565b6040516103029190612ae3565b60405180910390f35b34801561031757600080fd5b50610332600480360381019061032d91906123df565b610a88565b60405161033f91906127e2565b60405180910390f35b34801561035457600080fd5b5061036f600480360381019061036a91906121a5565b610b3a565b60405161037c9190612ae3565b60405180910390f35b34801561039157600080fd5b5061039a610bf2565b6040516103a79190612ae3565b60405180910390f35b3480156103bc57600080fd5b506103c5610bfc565b6040516103d291906127fd565b60405180910390f35b3480156103e757600080fd5b506103f0610c22565b6040516103fd91906128a1565b60405180910390f35b34801561041257600080fd5b5061042d600480360381019061042891906122d4565b610cb4565b005b34801561043b57600080fd5b5061045660048036038101906104519190612259565b610cca565b005b34801561046457600080fd5b5061047f600480360381019061047a91906123df565b610d2c565b60405161048c91906128a1565b60405180910390f35b3480156104a157600080fd5b506104bc60048036038101906104b791906121a5565b610dd1565b6040516104c99190612864565b60405180910390f35b3480156104de57600080fd5b506104f960048036038101906104f491906121ce565b610f2d565b6040516105069190612886565b60405180910390f35b6105296004803603810190610524919061239e565b610fc1565b6040516105369190612ae3565b60405180910390f35b60007f780e9d63000000000000000000000000000000000000000000000000000000007bffffffffffffffffffffffffffffffffffffffffffffffffffffffff1916827bffffffffffffffffffffffffffffffffffffffffffffffffffffffff191614806105b257506105b182611015565b5b9050919050565b6060600080546105c890612d53565b80601f01602080910402602001604051908101604052809291908181526020018280546105f490612d53565b80156106415780601f1061061657610100808354040283529160200191610641565b820191906000526020600020905b81548152906001019060200180831161062457829003601f168201915b5050505050905090565b6000610656826110f7565b610695576040517f08c379a000000000000000000000000000000000000000000000000000000000815260040161068c90612a43565b60405180910390fd5b6004600083815260200190815260200160002060009054906101000a900473ffffffffffffffffffffffffffffffffffffffff169050919050565b60006106db82610a88565b90508073ffffffffffffffffffffffffffffffffffffffff168373ffffffffffffffffffffffffffffffffffffffff16141561074c576040517f08c379a000000000000000000000000000000000000000000000000000000000815260040161074390612a63565b60405180910390fd5b8073ffffffffffffffffffffffffffffffffffffffff1661076b611163565b73ffffffffffffffffffffffffffffffffffffffff16148061079a575061079981610794611163565b610f2d565b5b6107d9576040517f08c379a00000000000000000000000000000000000000000000000000000000081526004016107d0906129c3565b60405180910390fd5b6107e3838361116b565b505050565b6000600880549050905090565b610806610800611163565b82611224565b610845576040517f08c379a000000000000000000000000000000000000000000000000000000000815260040161083c90612a83565b60405180910390fd5b610850838383611302565b505050565b600061086083610b3a565b82106108a1576040517f08c379a0000000000000000000000000000000000000000000000000000000008152600401610898906128c3565b60405180910390fd5b600660008473ffffffffffffffffffffffffffffffffffffffff1673ffffffffffffffffffffffffffffffffffffffff168152602001908152602001600020600083815260200190815260200160002054905092915050565b60004790506000600a60009054906101000a900473ffffffffffffffffffffffffffffffffffffffff1673ffffffffffffffffffffffffffffffffffffffff1682604051610947906127cd565b60006040518083038185875af1925050503d8060008114610984576040519150601f19603f3d011682016040523d82523d6000602084013e610989565b606091505b50509050806109cd576040517f08c379a00000000000000000000000000000000000000000000000000000000081526004016109c490612943565b60405180910390fd5b5050565b6109ec83838360405180602001604052806000815250610cca565b505050565b60006109fb6107e8565b8210610a3c576040517f08c379a0000000000000000000000000000000000000000000000000000000008152600401610a3390612aa3565b60405180910390fd5b60088281548110610a76577f4e487b7100000000000000000000000000000000000000000000000000000000600052603260045260246000fd5b90600052602060002001549050919050565b6000806002600084815260200190815260200160002060009054906101000a900473ffffffffffffffffffffffffffffffffffffffff169050600073ffffffffffffffffffffffffffffffffffffffff168173ffffffffffffffffffffffffffffffffffffffff161415610b31576040517f08c379a0000000000000000000000000000000000000000000000000000000008152600401610b2890612a03565b60405180910390fd5b80915050919050565b60008073ffffffffffffffffffffffffffffffffffffffff168273ffffffffffffffffffffffffffffffffffffffff161415610bab576040517f08c379a0000000000000000000000000000000000000000000000000000000008152600401610ba2906129e3565b60405180910390fd5b600360008373ffffffffffffffffffffffffffffffffffffffff1673ffffffffffffffffffffffffffffffffffffffff168152602001908152602001600020549050919050565b6000600b54905090565b600a60009054906101000a900473ffffffffffffffffffffffffffffffffffffffff1681565b606060018054610c3190612d53565b80601f0160208091040260200160405190810160405280929190818152602001828054610c5d90612d53565b8015610caa5780601f10610c7f57610100808354040283529160200191610caa565b820191906000526020600020905b815481529060010190602001808311610c8d57829003601f168201915b5050505050905090565b610cc6610cbf611163565b8383611569565b5050565b610cdb610cd5611163565b83611224565b610d1a576040517f08c379a0000000000000000000000000000000000000000000000000000000008152600401610d1190612a83565b60405180910390fd5b610d26848484846116d6565b50505050565b6060600c60008381526020019081526020016000208054610d4c90612d53565b80601f0160208091040260200160405190810160405280929190818152602001828054610d7890612d53565b8015610dc55780601f10610d9a57610100808354040283529160200191610dc5565b820191906000526020600020905b815481529060010190602001808311610da857829003601f168201915b50505050509050919050565b60606000610dde83610b3a565b90506000811415610e24576040517f08c379a0000000000000000000000000000000000000000000000000000000008152600401610e1b90612ac3565b60405180910390fd5b60008167ffffffffffffffff811115610e66577f4e487b7100000000000000000000000000000000000000000000000000000000600052604160045260246000fd5b604051908082528060200260200182016040528015610e9f57816020015b610e8c611fb6565b815260200190600190039081610e845790505b50905060005b82811015610f22576000610eb98683610855565b9050604051806020016040528082815250838381518110610f03577f4e487b7100000000000000000000000000000000000000000000000000000000600052603260045260246000fd5b6020026020010181905250508080610f1a90612db6565b915050610ea5565b508092505050919050565b6000600560008473ffffffffffffffffffffffffffffffffffffffff1673ffffffffffffffffffffffffffffffffffffffff16815260200190815260200160002060008373ffffffffffffffffffffffffffffffffffffffff1673ffffffffffffffffffffffffffffffffffffffff16815260200190815260200160002060009054906101000a900460ff16905092915050565b6000806001610fce6107e8565b610fd89190612c01565b9050610fe43382611732565b82600c6000838152602001908152602001600020908051906020019061100b929190611fc9565b5080915050919050565b60007f80ac58cd000000000000000000000000000000000000000000000000000000007bffffffffffffffffffffffffffffffffffffffffffffffffffffffff1916827bffffffffffffffffffffffffffffffffffffffffffffffffffffffff191614806110e057507f5b5e139f000000000000000000000000000000000000000000000000000000007bffffffffffffffffffffffffffffffffffffffffffffffffffffffff1916827bffffffffffffffffffffffffffffffffffffffffffffffffffffffff1916145b806110f057506110ef8261190c565b5b9050919050565b60008073ffffffffffffffffffffffffffffffffffffffff166002600084815260200190815260200160002060009054906101000a900473ffffffffffffffffffffffffffffffffffffffff1673ffffffffffffffffffffffffffffffffffffffff1614159050919050565b600033905090565b816004600083815260200190815260200160002060006101000a81548173ffffffffffffffffffffffffffffffffffffffff021916908373ffffffffffffffffffffffffffffffffffffffff160217905550808273ffffffffffffffffffffffffffffffffffffffff166111de83610a88565b73ffffffffffffffffffffffffffffffffffffffff167f8c5be1e5ebec7d5bd14f71427d1e84f3dd0314c0f7b2291e5b200ac8c7c3b92560405160405180910390a45050565b600061122f826110f7565b61126e576040517f08c379a0000000000000000000000000000000000000000000000000000000008152600401611265906129a3565b60405180910390fd5b600061127983610a88565b90508073ffffffffffffffffffffffffffffffffffffffff168473ffffffffffffffffffffffffffffffffffffffff1614806112bb57506112ba8185610f2d565b5b806112f957508373ffffffffffffffffffffffffffffffffffffffff166112e18461064b565b73ffffffffffffffffffffffffffffffffffffffff16145b91505092915050565b8273ffffffffffffffffffffffffffffffffffffffff1661132282610a88565b73ffffffffffffffffffffffffffffffffffffffff1614611378576040517f08c379a000000000000000000000000000000000000000000000000000000000815260040161136f90612903565b60405180910390fd5b600073ffffffffffffffffffffffffffffffffffffffff168273ffffffffffffffffffffffffffffffffffffffff1614156113e8576040517f08c379a00000000000000000000000000000000000000000000000000000000081526004016113df90612963565b60405180910390fd5b6113f3838383611976565b6113fe60008261116b565b6001600360008573ffffffffffffffffffffffffffffffffffffffff1673ffffffffffffffffffffffffffffffffffffffff168152602001908152602001600020600082825461144e9190612c57565b925050819055506001600360008473ffffffffffffffffffffffffffffffffffffffff1673ffffffffffffffffffffffffffffffffffffffff16815260200190815260200160002060008282546114a59190612c01565b92505081905550816002600083815260200190815260200160002060006101000a81548173ffffffffffffffffffffffffffffffffffffffff021916908373ffffffffffffffffffffffffffffffffffffffff160217905550808273ffffffffffffffffffffffffffffffffffffffff168473ffffffffffffffffffffffffffffffffffffffff167fddf252ad1be2c89b69c2b068fc378daa952ba7f163c4a11628f55a4df523b3ef60405160405180910390a4611564838383611a8a565b505050565b8173ffffffffffffffffffffffffffffffffffffffff168373ffffffffffffffffffffffffffffffffffffffff1614156115d8576040517f08c379a00000000000000000000000000000000000000000000000000000000081526004016115cf90612983565b60405180910390fd5b80600560008573ffffffffffffffffffffffffffffffffffffffff1673ffffffffffffffffffffffffffffffffffffffff16815260200190815260200160002060008473ffffffffffffffffffffffffffffffffffffffff1673ffffffffffffffffffffffffffffffffffffffff16815260200190815260200160002060006101000a81548160ff0219169083151502179055508173ffffffffffffffffffffffffffffffffffffffff168373ffffffffffffffffffffffffffffffffffffffff167f17307eab39ab6107e8899845ad3d59bd9653f200f220920489ca2b5937696c31836040516116c99190612886565b60405180910390a3505050565b6116e1848484611302565b6116ed84848484611a8f565b61172c576040517f08c379a0000000000000000000000000000000000000000000000000000000008152600401611723906128e3565b60405180910390fd5b50505050565b600073ffffffffffffffffffffffffffffffffffffffff168273ffffffffffffffffffffffffffffffffffffffff1614156117a2576040517f08c379a000000000000000000000000000000000000000000000000000000000815260040161179990612a23565b60405180910390fd5b6117ab816110f7565b156117eb576040517f08c379a00000000000000000000000000000000000000000000000000000000081526004016117e290612923565b60405180910390fd5b6117f760008383611976565b6001600360008473ffffffffffffffffffffffffffffffffffffffff1673ffffffffffffffffffffffffffffffffffffffff16815260200190815260200160002060008282546118479190612c01565b92505081905550816002600083815260200190815260200160002060006101000a81548173ffffffffffffffffffffffffffffffffffffffff021916908373ffffffffffffffffffffffffffffffffffffffff160217905550808273ffffffffffffffffffffffffffffffffffffffff16600073ffffffffffffffffffffffffffffffffffffffff167fddf252ad1be2c89b69c2b068fc378daa952ba7f163c4a11628f55a4df523b3ef60405160405180910390a461190860008383611a8a565b5050565b60007f01ffc9a7000000000000000000000000000000000000000000000000000000007bffffffffffffffffffffffffffffffffffffffffffffffffffffffff1916827bffffffffffffffffffffffffffffffffffffffffffffffffffffffff1916149050919050565b611981838383611c26565b600073ffffffffffffffffffffffffffffffffffffffff168373ffffffffffffffffffffffffffffffffffffffff1614156119c4576119bf81611c2b565b611a03565b8173ffffffffffffffffffffffffffffffffffffffff168373ffffffffffffffffffffffffffffffffffffffff1614611a0257611a018382611c74565b5b5b600073ffffffffffffffffffffffffffffffffffffffff168273ffffffffffffffffffffffffffffffffffffffff161415611a4657611a4181611de1565b611a85565b8273ffffffffffffffffffffffffffffffffffffffff168273ffffffffffffffffffffffffffffffffffffffff1614611a8457611a838282611f24565b5b5b505050565b505050565b6000611ab08473ffffffffffffffffffffffffffffffffffffffff16611fa3565b15611c19578373ffffffffffffffffffffffffffffffffffffffff1663150b7a02611ad9611163565b8786866040518563ffffffff1660e01b8152600401611afb9493929190612818565b602060405180830381600087803b158015611b1557600080fd5b505af1925050508015611b4657506040513d601f19601f82011682018060405250810190611b439190612375565b60015b611bc9573d8060008114611b76576040519150601f19603f3d011682016040523d82523d6000602084013e611b7b565b606091505b50600081511415611bc1576040517f08c379a0000000000000000000000000000000000000000000000000000000008152600401611bb8906128e3565b60405180910390fd5b805181602001fd5b63150b7a0260e01b7bffffffffffffffffffffffffffffffffffffffffffffffffffffffff1916817bffffffffffffffffffffffffffffffffffffffffffffffffffffffff191614915050611c1e565b600190505b949350505050565b505050565b6008805490506009600083815260200190815260200160002081905550600881908060018154018082558091505060019003906000526020600020016000909190919091505550565b60006001611c8184610b3a565b611c8b9190612c57565b9050600060076000848152602001908152602001600020549050818114611d70576000600660008673ffffffffffffffffffffffffffffffffffffffff1673ffffffffffffffffffffffffffffffffffffffff168152602001908152602001600020600084815260200190815260200160002054905080600660008773ffffffffffffffffffffffffffffffffffffffff1673ffffffffffffffffffffffffffffffffffffffff168152602001908152602001600020600084815260200190815260200160002081905550816007600083815260200190815260200160002081905550505b6007600084815260200190815260200160002060009055600660008573ffffffffffffffffffffffffffffffffffffffff1673ffffffffffffffffffffffffffffffffffffffff16815260200190815260200160002060008381526020019081526020016000206000905550505050565b60006001600880549050611df59190612c57565b9050600060096000848152602001908152602001600020549050600060088381548110611e4b577f4e487b7100000000000000000000000000000000000000000000000000000000600052603260045260246000fd5b906000526020600020015490508060088381548110611e93577f4e487b7100000000000000000000000000000000000000000000000000000000600052603260045260246000fd5b906000526020600020018190555081600960008381526020019081526020016000208190555060096000858152602001908152602001600020600090556008805480611f08577f4e487b7100000000000000000000000000000000000000000000000000000000600052603160045260246000fd5b6001900381819060005260206000200160009055905550505050565b6000611f2f83610b3a565b905081600660008573ffffffffffffffffffffffffffffffffffffffff1673ffffffffffffffffffffffffffffffffffffffff168152602001908152602001600020600083815260200190815260200160002081905550806007600084815260200190815260200160002081905550505050565b600080823b905060008111915050919050565b6040518060200160405280600081525090565b828054611fd590612d53565b90600052602060002090601f016020900481019282611ff7576000855561203e565b82601f1061201057805160ff191683800117855561203e565b8280016001018555821561203e579182015b8281111561203d578251825591602001919060010190612022565b5b50905061204b919061204f565b5090565b5b80821115612068576000816000905550600101612050565b5090565b600061207f61207a84612b23565b612afe565b90508281526020810184848401111561209757600080fd5b6120a2848285612d11565b509392505050565b60006120bd6120b884612b54565b612afe565b9050828152602081018484840111156120d557600080fd5b6120e0848285612d11565b509392505050565b6000813590506120f781613321565b92915050565b60008135905061210c81613338565b92915050565b6000813590506121218161334f565b92915050565b6000815190506121368161334f565b92915050565b600082601f83011261214d57600080fd5b813561215d84826020860161206c565b91505092915050565b600082601f83011261217757600080fd5b81356121878482602086016120aa565b91505092915050565b60008135905061219f81613366565b92915050565b6000602082840312156121b757600080fd5b60006121c5848285016120e8565b91505092915050565b600080604083850312156121e157600080fd5b60006121ef858286016120e8565b9250506020612200858286016120e8565b9150509250929050565b60008060006060848603121561221f57600080fd5b600061222d868287016120e8565b935050602061223e868287016120e8565b925050604061224f86828701612190565b9150509250925092565b6000806000806080858703121561226f57600080fd5b600061227d878288016120e8565b945050602061228e878288016120e8565b935050604061229f87828801612190565b925050606085013567ffffffffffffffff8111156122bc57600080fd5b6122c88782880161213c565b91505092959194509250565b600080604083850312156122e757600080fd5b60006122f5858286016120e8565b9250506020612306858286016120fd565b9150509250929050565b6000806040838503121561232357600080fd5b6000612331858286016120e8565b925050602061234285828601612190565b9150509250929050565b60006020828403121561235e57600080fd5b600061236c84828501612112565b91505092915050565b60006020828403121561238757600080fd5b600061239584828501612127565b91505092915050565b6000602082840312156123b057600080fd5b600082013567ffffffffffffffff8111156123ca57600080fd5b6123d684828501612166565b91505092915050565b6000602082840312156123f157600080fd5b60006123ff84828501612190565b91505092915050565b60006124148383612793565b60208301905092915050565b61242981612c9d565b82525050565b61243881612c8b565b82525050565b600061244982612b95565b6124538185612bc3565b935061245e83612b85565b8060005b8381101561248f5781516124768882612408565b975061248183612bb6565b925050600181019050612462565b5085935050505092915050565b6124a581612caf565b82525050565b60006124b682612ba0565b6124c08185612bd4565b93506124d0818560208601612d20565b6124d981612e8c565b840191505092915050565b60006124ef82612bab565b6124f98185612bf0565b9350612509818560208601612d20565b61251281612e8c565b840191505092915050565b600061252a602b83612bf0565b915061253582612e9d565b604082019050919050565b600061254d603283612bf0565b915061255882612eec565b604082019050919050565b6000612570602583612bf0565b915061257b82612f3b565b604082019050919050565b6000612593601c83612bf0565b915061259e82612f8a565b602082019050919050565b60006125b6601483612bf0565b91506125c182612fb3565b602082019050919050565b60006125d9602483612bf0565b91506125e482612fdc565b604082019050919050565b60006125fc601983612bf0565b91506126078261302b565b602082019050919050565b600061261f602c83612bf0565b915061262a82613054565b604082019050919050565b6000612642603883612bf0565b915061264d826130a3565b604082019050919050565b6000612665602a83612bf0565b9150612670826130f2565b604082019050919050565b6000612688602983612bf0565b915061269382613141565b604082019050919050565b60006126ab602083612bf0565b91506126b682613190565b602082019050919050565b60006126ce602c83612bf0565b91506126d9826131b9565b604082019050919050565b60006126f1602183612bf0565b91506126fc82613208565b604082019050919050565b6000612714600083612be5565b915061271f82613257565b600082019050919050565b6000612737603183612bf0565b91506127428261325a565b604082019050919050565b600061275a602c83612bf0565b9150612765826132a9565b604082019050919050565b600061277d601a83612bf0565b9150612788826132f8565b602082019050919050565b6020820160008201516127a960008501826127af565b50505050565b6127b881612d07565b82525050565b6127c781612d07565b82525050565b60006127d882612707565b9150819050919050565b60006020820190506127f7600083018461242f565b92915050565b60006020820190506128126000830184612420565b92915050565b600060808201905061282d600083018761242f565b61283a602083018661242f565b61284760408301856127be565b818103606083015261285981846124ab565b905095945050505050565b6000602082019050818103600083015261287e818461243e565b905092915050565b600060208201905061289b600083018461249c565b92915050565b600060208201905081810360008301526128bb81846124e4565b905092915050565b600060208201905081810360008301526128dc8161251d565b9050919050565b600060208201905081810360008301526128fc81612540565b9050919050565b6000602082019050818103600083015261291c81612563565b9050919050565b6000602082019050818103600083015261293c81612586565b9050919050565b6000602082019050818103600083015261295c816125a9565b9050919050565b6000602082019050818103600083015261297c816125cc565b9050919050565b6000602082019050818103600083015261299c816125ef565b9050919050565b600060208201905081810360008301526129bc81612612565b9050919050565b600060208201905081810360008301526129dc81612635565b9050919050565b600060208201905081810360008301526129fc81612658565b9050919050565b60006020820190508181036000830152612a1c8161267b565b9050919050565b60006020820190508181036000830152612a3c8161269e565b9050919050565b60006020820190508181036000830152612a5c816126c1565b9050919050565b60006020820190508181036000830152612a7c816126e4565b9050919050565b60006020820190508181036000830152612a9c8161272a565b9050919050565b60006020820190508181036000830152612abc8161274d565b9050919050565b60006020820190508181036000830152612adc81612770565b9050919050565b6000602082019050612af860008301846127be565b92915050565b6000612b08612b19565b9050612b148282612d85565b919050565b6000604051905090565b600067ffffffffffffffff821115612b3e57612b3d612e5d565b5b612b4782612e8c565b9050602081019050919050565b600067ffffffffffffffff821115612b6f57612b6e612e5d565b5b612b7882612e8c565b9050602081019050919050565b6000819050602082019050919050565b600081519050919050565b600081519050919050565b600081519050919050565b6000602082019050919050565b600082825260208201905092915050565b600082825260208201905092915050565b600081905092915050565b600082825260208201905092915050565b6000612c0c82612d07565b9150612c1783612d07565b9250827fffffffffffffffffffffffffffffffffffffffffffffffffffffffffffffffff03821115612c4c57612c4b612dff565b5b828201905092915050565b6000612c6282612d07565b9150612c6d83612d07565b925082821015612c8057612c7f612dff565b5b828203905092915050565b6000612c9682612ce7565b9050919050565b6000612ca882612ce7565b9050919050565b60008115159050919050565b60007fffffffff0000000000000000000000000000000000000000000000000000000082169050919050565b600073ffffffffffffffffffffffffffffffffffffffff82169050919050565b6000819050919050565b82818337600083830152505050565b60005b83811015612d3e578082015181840152602081019050612d23565b83811115612d4d576000848401525b50505050565b60006002820490506001821680612d6b57607f821691505b60208210811415612d7f57612d7e612e2e565b5b50919050565b612d8e82612e8c565b810181811067ffffffffffffffff82111715612dad57612dac612e5d565b5b80604052505050565b6000612dc182612d07565b91507fffffffffffffffffffffffffffffffffffffffffffffffffffffffffffffffff821415612df457612df3612dff565b5b600182019050919050565b7f4e487b7100000000000000000000000000000000000000000000000000000000600052601160045260246000fd5b7f4e487b7100000000000000000000000000000000000000000000000000000000600052602260045260246000fd5b7f4e487b7100000000000000000000000000000000000000000000000000000000600052604160045260246000fd5b6000601f19601f8301169050919050565b7f455243373231456e756d657261626c653a206f776e657220696e646578206f7560008201527f74206f6620626f756e6473000000000000000000000000000000000000000000602082015250565b7f4552433732313a207472616e7366657220746f206e6f6e20455243373231526560008201527f63656976657220696d706c656d656e7465720000000000000000000000000000602082015250565b7f4552433732313a207472616e736665722066726f6d20696e636f72726563742060008201527f6f776e6572000000000000000000000000000000000000000000000000000000602082015250565b7f4552433732313a20746f6b656e20616c7265616479206d696e74656400000000600082015250565b7f4661696c656420746f2073656e64204574686572000000000000000000000000600082015250565b7f4552433732313a207472616e7366657220746f20746865207a65726f2061646460008201527f7265737300000000000000000000000000000000000000000000000000000000602082015250565b7f4552433732313a20617070726f766520746f2063616c6c657200000000000000600082015250565b7f4552433732313a206f70657261746f7220717565727920666f72206e6f6e657860008201527f697374656e7420746f6b656e0000000000000000000000000000000000000000602082015250565b7f4552433732313a20617070726f76652063616c6c6572206973206e6f74206f7760008201527f6e6572206e6f7220617070726f76656420666f7220616c6c0000000000000000602082015250565b7f4552433732313a2062616c616e636520717565727920666f7220746865207a6560008201527f726f206164647265737300000000000000000000000000000000000000000000602082015250565b7f4552433732313a206f776e657220717565727920666f72206e6f6e657869737460008201527f656e7420746f6b656e0000000000000000000000000000000000000000000000602082015250565b7f4552433732313a206d696e7420746f20746865207a65726f2061646472657373600082015250565b7f4552433732313a20617070726f76656420717565727920666f72206e6f6e657860008201527f697374656e7420746f6b656e0000000000000000000000000000000000000000602082015250565b7f4552433732313a20617070726f76616c20746f2063757272656e74206f776e6560008201527f7200000000000000000000000000000000000000000000000000000000000000602082015250565b50565b7f4552433732313a207472616e736665722063616c6c6572206973206e6f74206f60008201527f776e6572206e6f7220617070726f766564000000000000000000000000000000602082015250565b7f455243373231456e756d657261626c653a20676c6f62616c20696e646578206f60008201527f7574206f6620626f756e64730000000000000000000000000000000000000000602082015250565b7f4f776e657220646f65736e27742068617665207469636b65742e000000000000600082015250565b61332a81612c8b565b811461333557600080fd5b50565b61334181612caf565b811461334c57600080fd5b50565b61335881612cbb565b811461336357600080fd5b50565b61336f81612d07565b811461337a57600080fd5b5056fea2646970667358221220189c7505718cd5ef5ac376c7cd52dc946742cb709b08a072b68212b365164a4864736f6c63430008040033",
  "linkReferences": {},
  "deployedLinkReferences": {}
}