{
  "_format": "hh-sol-artifact-1",
  "contractName": "SaleTicket",
  "sourceName": "contracts/SaleTicket.sol",
  "abi": [
    {
      "inputs": [
        {
          "internalType": "address",
          "name": "_mintTicketAddress",
          "type": "address"
        },
        {
          "internalType": "address",
          "name": "_currencyAddress",
          "type": "address"
        }
      ],
      "stateMutability": "nonpayable",
      "type": "constructor"
    },
    {
      "inputs": [],
      "name": "erc20Contract",
      "outputs": [
        {
          "internalType": "contract IERC20",
          "name": "",
          "type": "address"
        }
      ],
      "stateMutability": "view",
      "type": "function"
    },
    {
      "inputs": [],
      "name": "getOnSaleTicketArrayLength",
      "outputs": [
        {
          "internalType": "uint256",
          "name": "",
          "type": "uint256"
        }
      ],
      "stateMutability": "view",
      "type": "function"
    },
    {
      "inputs": [
        {
          "internalType": "uint256",
          "name": "_tokenId",
          "type": "uint256"
        }
      ],
      "name": "getTicketPrice",
      "outputs": [
        {
          "internalType": "uint256",
          "name": "",
          "type": "uint256"
        }
      ],
      "stateMutability": "view",
      "type": "function"
    },
    {
      "inputs": [],
      "name": "mintTicketAddress",
      "outputs": [
        {
          "internalType": "contract MintTicket",
          "name": "",
          "type": "address"
        }
      ],
      "stateMutability": "view",
      "type": "function"
    },
    {
      "inputs": [
        {
          "internalType": "uint256",
          "name": "",
          "type": "uint256"
        }
      ],
      "name": "onSaleTicketArray",
      "outputs": [
        {
          "internalType": "uint256",
          "name": "",
          "type": "uint256"
        }
      ],
      "stateMutability": "view",
      "type": "function"
    },
    {
      "inputs": [
        {
          "internalType": "uint256",
          "name": "_tokenId",
          "type": "uint256"
        }
      ],
      "name": "purchaseTicket",
      "outputs": [],
      "stateMutability": "nonpayable",
      "type": "function"
    },
    {
      "inputs": [
        {
          "internalType": "uint256",
          "name": "_tokenId",
          "type": "uint256"
        },
        {
          "internalType": "uint256",
          "name": "_price",
          "type": "uint256"
        }
      ],
      "name": "setForSaleTicket",
      "outputs": [],
      "stateMutability": "nonpayable",
      "type": "function"
    },
    {
      "inputs": [
        {
          "internalType": "uint256",
          "name": "",
          "type": "uint256"
        }
      ],
      "name": "ticketPrices",
      "outputs": [
        {
          "internalType": "uint256",
          "name": "",
          "type": "uint256"
        }
      ],
      "stateMutability": "view",
      "type": "function"
    }
  ],
  "bytecode": "0x608060405234801561001057600080fd5b50604051610fa3380380610fa3833981810160405281019061003291906100cf565b816000806101000a81548173ffffffffffffffffffffffffffffffffffffffff021916908373ffffffffffffffffffffffffffffffffffffffff16021790555080600160006101000a81548173ffffffffffffffffffffffffffffffffffffffff021916908373ffffffffffffffffffffffffffffffffffffffff1602179055505050610154565b6000815190506100c98161013d565b92915050565b600080604083850312156100e257600080fd5b60006100f0858286016100ba565b9250506020610101858286016100ba565b9150509250929050565b60006101168261011d565b9050919050565b600073ffffffffffffffffffffffffffffffffffffffff82169050919050565b6101468161010b565b811461015157600080fd5b50565b610e40806101636000396000f3fe608060405234801561001057600080fd5b50600436106100885760003560e01c8063ba792bf81161005b578063ba792bf814610113578063e1faa97414610131578063e44d311b1461014f578063f06fc9611461017f57610088565b80633888ec4a1461008d5780633d0d5a1d146100bd578063a8f6c913146100d9578063b948348c146100f7575b600080fd5b6100a760048036038101906100a29190610933565b6101af565b6040516100b49190610b90565b60405180910390f35b6100d760048036038101906100d2919061095c565b6101d3565b005b6100e16103ce565b6040516100ee9190610aba565b60405180910390f35b610111600480360381019061010c9190610933565b6103f4565b005b61011b61083c565b6040516101289190610ad5565b60405180910390f35b610139610860565b6040516101469190610b90565b60405180910390f35b61016960048036038101906101649190610933565b61086d565b6040516101769190610b90565b60405180910390f35b61019960048036038101906101949190610933565b610885565b6040516101a69190610b90565b60405180910390f35b600381815481106101bf57600080fd5b906000526020600020016000915090505481565b60008060009054906101000a900473ffffffffffffffffffffffffffffffffffffffff1673ffffffffffffffffffffffffffffffffffffffff16636352211e846040518263ffffffff1660e01b815260040161022f9190610b90565b60206040518083038186803b15801561024757600080fd5b505afa15801561025b573d6000803e3d6000fd5b505050506040513d601f19601f8201168201806040525081019061027f91906108e1565b90503373ffffffffffffffffffffffffffffffffffffffff168173ffffffffffffffffffffffffffffffffffffffff16146102ef576040517f08c379a00000000000000000000000000000000000000000000000000000000081526004016102e690610af0565b60405180910390fd5b6000600260008581526020019081526020016000205414610345576040517f08c379a000000000000000000000000000000000000000000000000000000000815260040161033c90610b50565b60405180910390fd5b60008211610388576040517f08c379a000000000000000000000000000000000000000000000000000000000815260040161037f90610b70565b60405180910390fd5b8160026000858152602001908152602001600020819055506003839080600181540180825580915050600190039060005260206000200160009091909190915055505050565b600160009054906101000a900473ffffffffffffffffffffffffffffffffffffffff1681565b60006002600083815260200190815260200160002054905060008060009054906101000a900473ffffffffffffffffffffffffffffffffffffffff1673ffffffffffffffffffffffffffffffffffffffff16636352211e846040518263ffffffff1660e01b81526004016104689190610b90565b60206040518083038186803b15801561048057600080fd5b505afa158015610494573d6000803e3d6000fd5b505050506040513d601f19601f820116820180604052508101906104b891906108e1565b9050600082116104fd576040517f08c379a00000000000000000000000000000000000000000000000000000000081526004016104f490610b10565b60405180910390fd5b3373ffffffffffffffffffffffffffffffffffffffff168173ffffffffffffffffffffffffffffffffffffffff16141561056c576040517f08c379a000000000000000000000000000000000000000000000000000000000815260040161056390610b30565b60405180910390fd5b600160009054906101000a900473ffffffffffffffffffffffffffffffffffffffff1673ffffffffffffffffffffffffffffffffffffffff166323b872dd3383856040518463ffffffff1660e01b81526004016105cb93929190610a83565b602060405180830381600087803b1580156105e557600080fd5b505af11580156105f9573d6000803e3d6000fd5b505050506040513d601f19601f8201168201806040525081019061061d919061090a565b5060008054906101000a900473ffffffffffffffffffffffffffffffffffffffff1673ffffffffffffffffffffffffffffffffffffffff166323b872dd8233866040518463ffffffff1660e01b815260040161067b93929190610a83565b600060405180830381600087803b15801561069557600080fd5b505af11580156106a9573d6000803e3d6000fd5b505050506000600260008581526020019081526020016000208190555060005b6003805490508110156108365760006002600060038481548110610716577f4e487b7100000000000000000000000000000000000000000000000000000000600052603260045260246000fd5b90600052602060002001548152602001908152602001600020541415610823576003600160038054905061074a9190610bbc565b81548110610781577f4e487b7100000000000000000000000000000000000000000000000000000000600052603260045260246000fd5b9060005260206000200154600382815481106107c6577f4e487b7100000000000000000000000000000000000000000000000000000000600052603260045260246000fd5b9060005260206000200181905550600380548061080c577f4e487b7100000000000000000000000000000000000000000000000000000000600052603160045260246000fd5b600190038181906000526020600020016000905590555b808061082e90610c80565b9150506106c9565b50505050565b60008054906101000a900473ffffffffffffffffffffffffffffffffffffffff1681565b6000600380549050905090565b60026020528060005260406000206000915090505481565b600060026000838152602001908152602001600020549050919050565b6000815190506108b181610dc5565b92915050565b6000815190506108c681610ddc565b92915050565b6000813590506108db81610df3565b92915050565b6000602082840312156108f357600080fd5b6000610901848285016108a2565b91505092915050565b60006020828403121561091c57600080fd5b600061092a848285016108b7565b91505092915050565b60006020828403121561094557600080fd5b6000610953848285016108cc565b91505092915050565b6000806040838503121561096f57600080fd5b600061097d858286016108cc565b925050602061098e858286016108cc565b9150509250929050565b6109a181610bf0565b82525050565b6109b081610c38565b82525050565b6109bf81610c5c565b82525050565b60006109d2601b83610bab565b91506109dd82610cf8565b602082019050919050565b60006109f5601083610bab565b9150610a0082610d21565b602082019050919050565b6000610a18601783610bab565b9150610a2382610d4a565b602082019050919050565b6000610a3b601f83610bab565b9150610a4682610d73565b602082019050919050565b6000610a5e601783610bab565b9150610a6982610d9c565b602082019050919050565b610a7d81610c2e565b82525050565b6000606082019050610a986000830186610998565b610aa56020830185610998565b610ab26040830184610a74565b949350505050565b6000602082019050610acf60008301846109a7565b92915050565b6000602082019050610aea60008301846109b6565b92915050565b60006020820190508181036000830152610b09816109c5565b9050919050565b60006020820190508181036000830152610b29816109e8565b9050919050565b60006020820190508181036000830152610b4981610a0b565b9050919050565b60006020820190508181036000830152610b6981610a2e565b9050919050565b60006020820190508181036000830152610b8981610a51565b9050919050565b6000602082019050610ba56000830184610a74565b92915050565b600082825260208201905092915050565b6000610bc782610c2e565b9150610bd283610c2e565b925082821015610be557610be4610cc9565b5b828203905092915050565b6000610bfb82610c0e565b9050919050565b60008115159050919050565b600073ffffffffffffffffffffffffffffffffffffffff82169050919050565b6000819050919050565b6000610c4382610c4a565b9050919050565b6000610c5582610c0e565b9050919050565b6000610c6782610c6e565b9050919050565b6000610c7982610c0e565b9050919050565b6000610c8b82610c2e565b91507fffffffffffffffffffffffffffffffffffffffffffffffffffffffffffffffff821415610cbe57610cbd610cc9565b5b600182019050919050565b7f4e487b7100000000000000000000000000000000000000000000000000000000600052601160045260246000fd5b7f43616c6c6572206973206e6f74207469636b6574206f776e65722e0000000000600082015250565b7f5469636b6574206e6f742073616c652e00000000000000000000000000000000600082015250565b7f43616c6c6572206973207469636b6574206f776e65722e000000000000000000600082015250565b7f54686973207469636b657420697320616c7265616479206f6e2073616c652e00600082015250565b7f5072696365206973207a65726f206f72206c6f7765722e000000000000000000600082015250565b610dce81610bf0565b8114610dd957600080fd5b50565b610de581610c02565b8114610df057600080fd5b50565b610dfc81610c2e565b8114610e0757600080fd5b5056fea26469706673582212201d3ac78eb4eaa248d16ffa1545e627c7cc2492b5715c70abbe213bfaec8eca3064736f6c63430008040033",
  "linkReferences": {},
  "deployedLinkReferences": {}
}