{
  "_format": "hh-sol-artifact-1",
  "contractName": "SaleTicket",
  "sourceName": "contracts/SaleTicket.sol",
  "abi": [
    {
      "inputs": [
        {
          "internalType": "address",
          "name": "_mintTicketAddress",
          "type": "address"
        }
      ],
      "stateMutability": "nonpayable",
      "type": "constructor"
    },
    {
      "inputs": [],
      "name": "getOnSaleTicketArrayLength",
      "outputs": [
        {
          "internalType": "uint256",
          "name": "",
          "type": "uint256"
        }
      ],
      "stateMutability": "view",
      "type": "function"
    },
    {
      "inputs": [
        {
          "internalType": "uint256",
          "name": "_tokenId",
          "type": "uint256"
        }
      ],
      "name": "getTicketPrice",
      "outputs": [
        {
          "internalType": "uint256",
          "name": "",
          "type": "uint256"
        }
      ],
      "stateMutability": "view",
      "type": "function"
    },
    {
      "inputs": [],
      "name": "mintTicketAddress",
      "outputs": [
        {
          "internalType": "contract MintTicket",
          "name": "",
          "type": "address"
        }
      ],
      "stateMutability": "view",
      "type": "function"
    },
    {
      "inputs": [
        {
          "internalType": "uint256",
          "name": "",
          "type": "uint256"
        }
      ],
      "name": "onSaleTicketArray",
      "outputs": [
        {
          "internalType": "uint256",
          "name": "",
          "type": "uint256"
        }
      ],
      "stateMutability": "view",
      "type": "function"
    },
    {
      "inputs": [
        {
          "internalType": "uint256",
          "name": "_tokenId",
          "type": "uint256"
        }
      ],
      "name": "purchaseTicket",
      "outputs": [],
      "stateMutability": "payable",
      "type": "function"
    },
    {
      "inputs": [
        {
          "internalType": "uint256",
          "name": "_tokenId",
          "type": "uint256"
        },
        {
          "internalType": "uint256",
          "name": "_price",
          "type": "uint256"
        }
      ],
      "name": "setForSaleTicket",
      "outputs": [],
      "stateMutability": "nonpayable",
      "type": "function"
    },
    {
      "inputs": [
        {
          "internalType": "uint256",
          "name": "",
          "type": "uint256"
        }
      ],
      "name": "ticketPrices",
      "outputs": [
        {
          "internalType": "uint256",
          "name": "",
          "type": "uint256"
        }
      ],
      "stateMutability": "view",
      "type": "function"
    }
  ],
  "bytecode": "0x608060405234801561001057600080fd5b50604051610fc4380380610fc48339818101604052810190610032919061008d565b806000806101000a81548173ffffffffffffffffffffffffffffffffffffffff021916908373ffffffffffffffffffffffffffffffffffffffff160217905550506100ff565b600081519050610087816100e8565b92915050565b60006020828403121561009f57600080fd5b60006100ad84828501610078565b91505092915050565b60006100c1826100c8565b9050919050565b600073ffffffffffffffffffffffffffffffffffffffff82169050919050565b6100f1816100b6565b81146100fc57600080fd5b50565b610eb68061010e6000396000f3fe6080604052600436106100705760003560e01c8063ba792bf81161004e578063ba792bf8146100f7578063e1faa97414610122578063e44d311b1461014d578063f06fc9611461018a57610070565b80633888ec4a146100755780633d0d5a1d146100b2578063b948348c146100db575b600080fd5b34801561008157600080fd5b5061009c60048036038101906100979190610993565b6101c7565b6040516100a99190610c24565b60405180910390f35b3480156100be57600080fd5b506100d960048036038101906100d491906109bc565b6101eb565b005b6100f560048036038101906100f09190610993565b6103e6565b005b34801561010357600080fd5b5061010c610818565b6040516101199190610b49565b60405180910390f35b34801561012e57600080fd5b5061013761083c565b6040516101449190610c24565b60405180910390f35b34801561015957600080fd5b50610174600480360381019061016f9190610993565b610849565b6040516101819190610c24565b60405180910390f35b34801561019657600080fd5b506101b160048036038101906101ac9190610993565b610861565b6040516101be9190610c24565b60405180910390f35b600281815481106101d757600080fd5b906000526020600020016000915090505481565b60008060009054906101000a900473ffffffffffffffffffffffffffffffffffffffff1673ffffffffffffffffffffffffffffffffffffffff16636352211e846040518263ffffffff1660e01b81526004016102479190610c24565b60206040518083038186803b15801561025f57600080fd5b505afa158015610273573d6000803e3d6000fd5b505050506040513d601f19601f82011682018060405250810190610297919061096a565b90503373ffffffffffffffffffffffffffffffffffffffff168173ffffffffffffffffffffffffffffffffffffffff1614610307576040517f08c379a00000000000000000000000000000000000000000000000000000000081526004016102fe90610b64565b60405180910390fd5b600060016000858152602001908152602001600020541461035d576040517f08c379a000000000000000000000000000000000000000000000000000000000815260040161035490610bc4565b60405180910390fd5b600082116103a0576040517f08c379a000000000000000000000000000000000000000000000000000000000815260040161039790610c04565b60405180910390fd5b8160016000858152602001908152602001600020819055506002839080600181540180825580915050600190039060005260206000200160009091909190915055505050565b60006001600083815260200190815260200160002054905060008060009054906101000a900473ffffffffffffffffffffffffffffffffffffffff1673ffffffffffffffffffffffffffffffffffffffff16636352211e846040518263ffffffff1660e01b815260040161045a9190610c24565b60206040518083038186803b15801561047257600080fd5b505afa158015610486573d6000803e3d6000fd5b505050506040513d601f19601f820116820180604052508101906104aa919061096a565b9050600082116104ef576040517f08c379a00000000000000000000000000000000000000000000000000000000081526004016104e690610b84565b60405180910390fd5b34821115610532576040517f08c379a000000000000000000000000000000000000000000000000000000000815260040161052990610be4565b60405180910390fd5b3373ffffffffffffffffffffffffffffffffffffffff168173ffffffffffffffffffffffffffffffffffffffff1614156105a1576040517f08c379a000000000000000000000000000000000000000000000000000000000815260040161059890610ba4565b60405180910390fd5b6105aa8161087e565b8073ffffffffffffffffffffffffffffffffffffffff166108fc349081150290604051600060405180830381858888f193505050501580156105f0573d6000803e3d6000fd5b506105fa3361087e565b60008054906101000a900473ffffffffffffffffffffffffffffffffffffffff1673ffffffffffffffffffffffffffffffffffffffff166342842e0e8233866040518463ffffffff1660e01b815260040161065793929190610b12565b600060405180830381600087803b15801561067157600080fd5b505af1158015610685573d6000803e3d6000fd5b505050506000600160008581526020019081526020016000208190555060005b60028054905081101561081257600060016000600284815481106106f2577f4e487b7100000000000000000000000000000000000000000000000000000000600052603260045260246000fd5b906000526020600020015481526020019081526020016000205414156107ff57600260016002805490506107269190610c50565b8154811061075d577f4e487b7100000000000000000000000000000000000000000000000000000000600052603260045260246000fd5b9060005260206000200154600282815481106107a2577f4e487b7100000000000000000000000000000000000000000000000000000000600052603260045260246000fd5b906000526020600020018190555060028054806107e8577f4e487b7100000000000000000000000000000000000000000000000000000000600052603160045260246000fd5b600190038181906000526020600020016000905590555b808061080a90610ce4565b9150506106a5565b50505050565b60008054906101000a900473ffffffffffffffffffffffffffffffffffffffff1681565b6000600280549050905090565b60016020528060005260406000206000915090505481565b600060016000838152602001908152602001600020549050919050565b610914816040516024016108929190610af7565b6040516020818303038152906040527f2c2ecbc2000000000000000000000000000000000000000000000000000000007bffffffffffffffffffffffffffffffffffffffffffffffffffffffff19166020820180517bffffffffffffffffffffffffffffffffffffffffffffffffffffffff8381831617835250505050610917565b50565b60008151905060006a636f6e736f6c652e6c6f679050602083016000808483855afa5050505050565b60008151905061094f81610e52565b92915050565b60008135905061096481610e69565b92915050565b60006020828403121561097c57600080fd5b600061098a84828501610940565b91505092915050565b6000602082840312156109a557600080fd5b60006109b384828501610955565b91505092915050565b600080604083850312156109cf57600080fd5b60006109dd85828601610955565b92505060206109ee85828601610955565b9150509250929050565b610a0181610c84565b82525050565b610a1081610cc0565b82525050565b6000610a23601b83610c3f565b9150610a2e82610d5c565b602082019050919050565b6000610a46601083610c3f565b9150610a5182610d85565b602082019050919050565b6000610a69601783610c3f565b9150610a7482610dae565b602082019050919050565b6000610a8c601f83610c3f565b9150610a9782610dd7565b602082019050919050565b6000610aaf601d83610c3f565b9150610aba82610e00565b602082019050919050565b6000610ad2601783610c3f565b9150610add82610e29565b602082019050919050565b610af181610cb6565b82525050565b6000602082019050610b0c60008301846109f8565b92915050565b6000606082019050610b2760008301866109f8565b610b3460208301856109f8565b610b416040830184610ae8565b949350505050565b6000602082019050610b5e6000830184610a07565b92915050565b60006020820190508181036000830152610b7d81610a16565b9050919050565b60006020820190508181036000830152610b9d81610a39565b9050919050565b60006020820190508181036000830152610bbd81610a5c565b9050919050565b60006020820190508181036000830152610bdd81610a7f565b9050919050565b60006020820190508181036000830152610bfd81610aa2565b9050919050565b60006020820190508181036000830152610c1d81610ac5565b9050919050565b6000602082019050610c396000830184610ae8565b92915050565b600082825260208201905092915050565b6000610c5b82610cb6565b9150610c6683610cb6565b925082821015610c7957610c78610d2d565b5b828203905092915050565b6000610c8f82610c96565b9050919050565b600073ffffffffffffffffffffffffffffffffffffffff82169050919050565b6000819050919050565b6000610ccb82610cd2565b9050919050565b6000610cdd82610c96565b9050919050565b6000610cef82610cb6565b91507fffffffffffffffffffffffffffffffffffffffffffffffffffffffffffffffff821415610d2257610d21610d2d565b5b600182019050919050565b7f4e487b7100000000000000000000000000000000000000000000000000000000600052601160045260246000fd5b7f43616c6c6572206973206e6f74207469636b6574206f776e65722e0000000000600082015250565b7f5469636b6574206e6f742073616c652e00000000000000000000000000000000600082015250565b7f43616c6c6572206973207469636b6574206f776e65722e000000000000000000600082015250565b7f54686973207469636b657420697320616c7265616479206f6e2073616c652e00600082015250565b7f43616c6c65722073656e74206c6f776572207468616e2070726963652e000000600082015250565b7f5072696365206973207a65726f206f72206c6f7765722e000000000000000000600082015250565b610e5b81610c84565b8114610e6657600080fd5b50565b610e7281610cb6565b8114610e7d57600080fd5b5056fea2646970667358221220a40d86aa3009af4dbcbee9b59a1e47b4217388e3487ac8aed4dadf529be1bfdf64736f6c63430008040033",
  "linkReferences": {},
  "deployedLinkReferences": {}
}