{
  "_format": "hh-sol-artifact-1",
  "contractName": "SaleTicket",
  "sourceName": "contracts/SaleTicket.sol",
  "abi": [
    {
      "inputs": [
        {
          "internalType": "address",
          "name": "_mintTicketAddress",
          "type": "address"
        },
        {
          "internalType": "address",
          "name": "_currencyAddress",
          "type": "address"
        }
      ],
      "stateMutability": "nonpayable",
      "type": "constructor"
    },
    {
      "inputs": [],
      "name": "erc20Contract",
      "outputs": [
        {
          "internalType": "contract IERC20",
          "name": "",
          "type": "address"
        }
      ],
      "stateMutability": "view",
      "type": "function"
    },
    {
      "inputs": [],
      "name": "getOnSaleTicketArrayLength",
      "outputs": [
        {
          "internalType": "uint256",
          "name": "",
          "type": "uint256"
        }
      ],
      "stateMutability": "view",
      "type": "function"
    },
    {
      "inputs": [],
      "name": "getSaleList",
      "outputs": [
        {
          "internalType": "uint256[]",
          "name": "",
          "type": "uint256[]"
        }
      ],
      "stateMutability": "view",
      "type": "function"
    },
    {
      "inputs": [
        {
          "internalType": "uint256",
          "name": "_tokenId",
          "type": "uint256"
        }
      ],
      "name": "getTicketPrice",
      "outputs": [
        {
          "internalType": "uint256",
          "name": "",
          "type": "uint256"
        }
      ],
      "stateMutability": "view",
      "type": "function"
    },
    {
      "inputs": [],
      "name": "mintTicketAddress",
      "outputs": [
        {
          "internalType": "contract MintTicket",
          "name": "",
          "type": "address"
        }
      ],
      "stateMutability": "view",
      "type": "function"
    },
    {
      "inputs": [
        {
          "internalType": "uint256",
          "name": "",
          "type": "uint256"
        }
      ],
      "name": "onSaleTicketArray",
      "outputs": [
        {
          "internalType": "uint256",
          "name": "",
          "type": "uint256"
        }
      ],
      "stateMutability": "view",
      "type": "function"
    },
    {
      "inputs": [
        {
          "internalType": "uint256",
          "name": "_tokenId",
          "type": "uint256"
        }
      ],
      "name": "purchaseTicket",
      "outputs": [],
      "stateMutability": "nonpayable",
      "type": "function"
    },
    {
      "inputs": [
        {
          "internalType": "uint256",
          "name": "_tokenId",
          "type": "uint256"
        },
        {
          "internalType": "uint256",
          "name": "_price",
          "type": "uint256"
        }
      ],
      "name": "setForSaleTicket",
      "outputs": [],
      "stateMutability": "nonpayable",
      "type": "function"
    },
    {
      "inputs": [
        {
          "internalType": "uint256",
          "name": "",
          "type": "uint256"
        }
      ],
      "name": "ticketPrices",
      "outputs": [
        {
          "internalType": "uint256",
          "name": "",
          "type": "uint256"
        }
      ],
      "stateMutability": "view",
      "type": "function"
    }
  ],
  "bytecode": "0x608060405234801561001057600080fd5b50604051610e0a380380610e0a833981810160405281019061003291906100cf565b816000806101000a81548173ffffffffffffffffffffffffffffffffffffffff021916908373ffffffffffffffffffffffffffffffffffffffff16021790555080600160006101000a81548173ffffffffffffffffffffffffffffffffffffffff021916908373ffffffffffffffffffffffffffffffffffffffff1602179055505050610154565b6000815190506100c98161013d565b92915050565b600080604083850312156100e257600080fd5b60006100f0858286016100ba565b9250506020610101858286016100ba565b9150509250929050565b60006101168261011d565b9050919050565b600073ffffffffffffffffffffffffffffffffffffffff82169050919050565b6101468161010b565b811461015157600080fd5b50565b610ca7806101636000396000f3fe608060405234801561001057600080fd5b50600436106100935760003560e01c8063b948348c11610066578063b948348c14610120578063ba792bf81461013c578063e1faa9741461015a578063e44d311b14610178578063f06fc961146101a857610093565b80630546deac146100985780633888ec4a146100b65780633d0d5a1d146100e6578063a8f6c91314610102575b600080fd5b6100a06101d8565b6040516100ad91906109a1565b60405180910390f35b6100d060048036038101906100cb91906107fe565b610230565b6040516100dd9190610a39565b60405180910390f35b61010060048036038101906100fb9190610827565b610254565b005b61010a610299565b60405161011791906109c3565b60405180910390f35b61013a600480360381019061013591906107fe565b6102bf565b005b610144610707565b60405161015191906109de565b60405180910390f35b61016261072b565b60405161016f9190610a39565b60405180910390f35b610192600480360381019061018d91906107fe565b610738565b60405161019f9190610a39565b60405180910390f35b6101c260048036038101906101bd91906107fe565b610750565b6040516101cf9190610a39565b60405180910390f35b6060600380548060200260200160405190810160405280929190818152602001828054801561022657602002820191906000526020600020905b815481526020019060010190808311610212575b5050505050905090565b6003818154811061024057600080fd5b906000526020600020016000915090505481565b80600260008481526020019081526020016000208190555060038290806001815401808255809150506001900390600052602060002001600090919091909150555050565b600160009054906101000a900473ffffffffffffffffffffffffffffffffffffffff1681565b60006002600083815260200190815260200160002054905060008060009054906101000a900473ffffffffffffffffffffffffffffffffffffffff1673ffffffffffffffffffffffffffffffffffffffff16636352211e846040518263ffffffff1660e01b81526004016103339190610a39565b60206040518083038186803b15801561034b57600080fd5b505afa15801561035f573d6000803e3d6000fd5b505050506040513d601f19601f8201168201806040525081019061038391906107ac565b9050600082116103c8576040517f08c379a00000000000000000000000000000000000000000000000000000000081526004016103bf906109f9565b60405180910390fd5b3373ffffffffffffffffffffffffffffffffffffffff168173ffffffffffffffffffffffffffffffffffffffff161415610437576040517f08c379a000000000000000000000000000000000000000000000000000000000815260040161042e90610a19565b60405180910390fd5b600160009054906101000a900473ffffffffffffffffffffffffffffffffffffffff1673ffffffffffffffffffffffffffffffffffffffff166323b872dd3383856040518463ffffffff1660e01b81526004016104969392919061096a565b602060405180830381600087803b1580156104b057600080fd5b505af11580156104c4573d6000803e3d6000fd5b505050506040513d601f19601f820116820180604052508101906104e891906107d5565b5060008054906101000a900473ffffffffffffffffffffffffffffffffffffffff1673ffffffffffffffffffffffffffffffffffffffff166342842e0e8233866040518463ffffffff1660e01b81526004016105469392919061096a565b600060405180830381600087803b15801561056057600080fd5b505af1158015610574573d6000803e3d6000fd5b505050506000600260008581526020019081526020016000208190555060005b60038054905081101561070157600060026000600384815481106105e1577f4e487b7100000000000000000000000000000000000000000000000000000000600052603260045260246000fd5b906000526020600020015481526020019081526020016000205414156106ee57600360016003805490506106159190610a9e565b8154811061064c577f4e487b7100000000000000000000000000000000000000000000000000000000600052603260045260246000fd5b906000526020600020015460038281548110610691577f4e487b7100000000000000000000000000000000000000000000000000000000600052603260045260246000fd5b906000526020600020018190555060038054806106d7577f4e487b7100000000000000000000000000000000000000000000000000000000600052603160045260246000fd5b600190038181906000526020600020016000905590555b80806106f990610b62565b915050610594565b50505050565b60008054906101000a900473ffffffffffffffffffffffffffffffffffffffff1681565b6000600380549050905090565b60026020528060005260406000206000915090505481565b600060026000838152602001908152602001600020549050919050565b60008151905061077c81610c2c565b92915050565b60008151905061079181610c43565b92915050565b6000813590506107a681610c5a565b92915050565b6000602082840312156107be57600080fd5b60006107cc8482850161076d565b91505092915050565b6000602082840312156107e757600080fd5b60006107f584828501610782565b91505092915050565b60006020828403121561081057600080fd5b600061081e84828501610797565b91505092915050565b6000806040838503121561083a57600080fd5b600061084885828601610797565b925050602061085985828601610797565b9150509250929050565b600061086f838361094c565b60208301905092915050565b61088481610ad2565b82525050565b600061089582610a64565b61089f8185610a7c565b93506108aa83610a54565b8060005b838110156108db5781516108c28882610863565b97506108cd83610a6f565b9250506001810190506108ae565b5085935050505092915050565b6108f181610b1a565b82525050565b61090081610b3e565b82525050565b6000610913601083610a8d565b915061091e82610bda565b602082019050919050565b6000610936601783610a8d565b915061094182610c03565b602082019050919050565b61095581610b10565b82525050565b61096481610b10565b82525050565b600060608201905061097f600083018661087b565b61098c602083018561087b565b610999604083018461095b565b949350505050565b600060208201905081810360008301526109bb818461088a565b905092915050565b60006020820190506109d860008301846108e8565b92915050565b60006020820190506109f360008301846108f7565b92915050565b60006020820190508181036000830152610a1281610906565b9050919050565b60006020820190508181036000830152610a3281610929565b9050919050565b6000602082019050610a4e600083018461095b565b92915050565b6000819050602082019050919050565b600081519050919050565b6000602082019050919050565b600082825260208201905092915050565b600082825260208201905092915050565b6000610aa982610b10565b9150610ab483610b10565b925082821015610ac757610ac6610bab565b5b828203905092915050565b6000610add82610af0565b9050919050565b60008115159050919050565b600073ffffffffffffffffffffffffffffffffffffffff82169050919050565b6000819050919050565b6000610b2582610b2c565b9050919050565b6000610b3782610af0565b9050919050565b6000610b4982610b50565b9050919050565b6000610b5b82610af0565b9050919050565b6000610b6d82610b10565b91507fffffffffffffffffffffffffffffffffffffffffffffffffffffffffffffffff821415610ba057610b9f610bab565b5b600182019050919050565b7f4e487b7100000000000000000000000000000000000000000000000000000000600052601160045260246000fd5b7f5469636b6574206e6f742073616c652e00000000000000000000000000000000600082015250565b7f43616c6c6572206973207469636b6574206f776e65722e000000000000000000600082015250565b610c3581610ad2565b8114610c4057600080fd5b50565b610c4c81610ae4565b8114610c5757600080fd5b50565b610c6381610b10565b8114610c6e57600080fd5b5056fea26469706673582212203baa7a21fe2d9a9601f93518f486d1cd122c77d5f3feb9c5979ecae26cdb29cb64736f6c63430008040033",
  "linkReferences": {},
  "deployedLinkReferences": {}
}