{
  "_format": "hh-sol-artifact-1",
  "contractName": "SaleTicket",
  "sourceName": "contracts/SaleTicket.sol",
  "abi": [
    {
      "inputs": [
        {
          "internalType": "address",
          "name": "_mintTicketAddress",
          "type": "address"
        },
        {
          "internalType": "address",
          "name": "_currencyAddress",
          "type": "address"
        }
      ],
      "stateMutability": "nonpayable",
      "type": "constructor"
    },
    {
      "inputs": [],
      "name": "erc20Contract",
      "outputs": [
        {
          "internalType": "contract IERC20",
          "name": "",
          "type": "address"
        }
      ],
      "stateMutability": "view",
      "type": "function"
    },
    {
      "inputs": [],
      "name": "getLinkedContract",
      "outputs": [
        {
          "internalType": "address",
          "name": "",
          "type": "address"
        }
      ],
      "stateMutability": "view",
      "type": "function"
    },
    {
      "inputs": [],
      "name": "getOnSaleTicketArrayLength",
      "outputs": [
        {
          "internalType": "uint256",
          "name": "",
          "type": "uint256"
        }
      ],
      "stateMutability": "view",
      "type": "function"
    },
    {
      "inputs": [],
      "name": "getSaleList",
      "outputs": [
        {
          "internalType": "uint256[]",
          "name": "",
          "type": "uint256[]"
        }
      ],
      "stateMutability": "view",
      "type": "function"
    },
    {
      "inputs": [
        {
          "internalType": "uint256",
          "name": "_tokenId",
          "type": "uint256"
        }
      ],
      "name": "getTicketPrice",
      "outputs": [
        {
          "internalType": "uint256",
          "name": "",
          "type": "uint256"
        }
      ],
      "stateMutability": "view",
      "type": "function"
    },
    {
      "inputs": [],
      "name": "linkedContract",
      "outputs": [
        {
          "internalType": "address",
          "name": "",
          "type": "address"
        }
      ],
      "stateMutability": "view",
      "type": "function"
    },
    {
      "inputs": [],
      "name": "mintTicketAddress",
      "outputs": [
        {
          "internalType": "contract MintTicket",
          "name": "",
          "type": "address"
        }
      ],
      "stateMutability": "view",
      "type": "function"
    },
    {
      "inputs": [
        {
          "internalType": "uint256",
          "name": "",
          "type": "uint256"
        }
      ],
      "name": "onSaleTicketArray",
      "outputs": [
        {
          "internalType": "uint256",
          "name": "",
          "type": "uint256"
        }
      ],
      "stateMutability": "view",
      "type": "function"
    },
    {
      "inputs": [
        {
          "internalType": "uint256",
          "name": "_tokenId",
          "type": "uint256"
        }
      ],
      "name": "purchaseTicket",
      "outputs": [],
      "stateMutability": "nonpayable",
      "type": "function"
    },
    {
      "inputs": [
        {
          "internalType": "uint256",
          "name": "_tokenId",
          "type": "uint256"
        },
        {
          "internalType": "uint256",
          "name": "_price",
          "type": "uint256"
        }
      ],
      "name": "setForSaleTicket",
      "outputs": [],
      "stateMutability": "nonpayable",
      "type": "function"
    },
    {
      "inputs": [
        {
          "internalType": "uint256",
          "name": "",
          "type": "uint256"
        }
      ],
      "name": "ticketPrices",
      "outputs": [
        {
          "internalType": "uint256",
          "name": "",
          "type": "uint256"
        }
      ],
      "stateMutability": "view",
      "type": "function"
    }
  ],
  "bytecode": "0x60806040523480156200001157600080fd5b506040516200121538038062001215833981810160405281019062000037919062000118565b816000806101000a81548173ffffffffffffffffffffffffffffffffffffffff021916908373ffffffffffffffffffffffffffffffffffffffff16021790555080600160006101000a81548173ffffffffffffffffffffffffffffffffffffffff021916908373ffffffffffffffffffffffffffffffffffffffff16021790555081600260006101000a81548173ffffffffffffffffffffffffffffffffffffffff021916908373ffffffffffffffffffffffffffffffffffffffff1602179055505050620001a7565b60008151905062000112816200018d565b92915050565b600080604083850312156200012c57600080fd5b60006200013c8582860162000101565b92505060206200014f8582860162000101565b9150509250929050565b600062000166826200016d565b9050919050565b600073ffffffffffffffffffffffffffffffffffffffff82169050919050565b620001988162000159565b8114620001a457600080fd5b50565b61105e80620001b76000396000f3fe608060405234801561001057600080fd5b50600436106100a95760003560e01c8063ba792bf811610071578063ba792bf814610152578063e11527d414610170578063e1faa9741461018e578063e44d311b146101ac578063e83a6888146101dc578063f06fc961146101fa576100a9565b80630546deac146100ae5780633888ec4a146100cc5780633d0d5a1d146100fc578063a8f6c91314610118578063b948348c14610136575b600080fd5b6100b661022a565b6040516100c39190610c7d565b60405180910390f35b6100e660048036038101906100e19190610a56565b610282565b6040516100f39190610d75565b60405180910390f35b61011660048036038101906101119190610a7f565b6102a6565b005b6101206104a1565b60405161012d9190610c9f565b60405180910390f35b610150600480360381019061014b9190610a56565b6104c7565b005b61015a61090f565b6040516101679190610cba565b60405180910390f35b610178610933565b6040516101859190610c2b565b60405180910390f35b610196610959565b6040516101a39190610d75565b60405180910390f35b6101c660048036038101906101c19190610a56565b610966565b6040516101d39190610d75565b60405180910390f35b6101e461097e565b6040516101f19190610c2b565b60405180910390f35b610214600480360381019061020f9190610a56565b6109a8565b6040516102219190610d75565b60405180910390f35b6060600480548060200260200160405190810160405280929190818152602001828054801561027857602002820191906000526020600020905b815481526020019060010190808311610264575b5050505050905090565b6004818154811061029257600080fd5b906000526020600020016000915090505481565b60008060009054906101000a900473ffffffffffffffffffffffffffffffffffffffff1673ffffffffffffffffffffffffffffffffffffffff16636352211e846040518263ffffffff1660e01b81526004016103029190610d75565b60206040518083038186803b15801561031a57600080fd5b505afa15801561032e573d6000803e3d6000fd5b505050506040513d601f19601f820116820180604052508101906103529190610a04565b90503373ffffffffffffffffffffffffffffffffffffffff168173ffffffffffffffffffffffffffffffffffffffff16146103c2576040517f08c379a00000000000000000000000000000000000000000000000000000000081526004016103b990610cd5565b60405180910390fd5b6000600360008581526020019081526020016000205414610418576040517f08c379a000000000000000000000000000000000000000000000000000000000815260040161040f90610d35565b60405180910390fd5b6000821161045b576040517f08c379a000000000000000000000000000000000000000000000000000000000815260040161045290610d55565b60405180910390fd5b8160036000858152602001908152602001600020819055506004839080600181540180825580915050600190039060005260206000200160009091909190915055505050565b600160009054906101000a900473ffffffffffffffffffffffffffffffffffffffff1681565b60006003600083815260200190815260200160002054905060008060009054906101000a900473ffffffffffffffffffffffffffffffffffffffff1673ffffffffffffffffffffffffffffffffffffffff16636352211e846040518263ffffffff1660e01b815260040161053b9190610d75565b60206040518083038186803b15801561055357600080fd5b505afa158015610567573d6000803e3d6000fd5b505050506040513d601f19601f8201168201806040525081019061058b9190610a04565b9050600082116105d0576040517f08c379a00000000000000000000000000000000000000000000000000000000081526004016105c790610cf5565b60405180910390fd5b3373ffffffffffffffffffffffffffffffffffffffff168173ffffffffffffffffffffffffffffffffffffffff16141561063f576040517f08c379a000000000000000000000000000000000000000000000000000000000815260040161063690610d15565b60405180910390fd5b600160009054906101000a900473ffffffffffffffffffffffffffffffffffffffff1673ffffffffffffffffffffffffffffffffffffffff166323b872dd3383856040518463ffffffff1660e01b815260040161069e93929190610c46565b602060405180830381600087803b1580156106b857600080fd5b505af11580156106cc573d6000803e3d6000fd5b505050506040513d601f19601f820116820180604052508101906106f09190610a2d565b5060008054906101000a900473ffffffffffffffffffffffffffffffffffffffff1673ffffffffffffffffffffffffffffffffffffffff166342842e0e8233866040518463ffffffff1660e01b815260040161074e93929190610c46565b600060405180830381600087803b15801561076857600080fd5b505af115801561077c573d6000803e3d6000fd5b505050506000600360008581526020019081526020016000208190555060005b60048054905081101561090957600060036000600484815481106107e9577f4e487b7100000000000000000000000000000000000000000000000000000000600052603260045260246000fd5b906000526020600020015481526020019081526020016000205414156108f6576004600160048054905061081d9190610dda565b81548110610854577f4e487b7100000000000000000000000000000000000000000000000000000000600052603260045260246000fd5b906000526020600020015460048281548110610899577f4e487b7100000000000000000000000000000000000000000000000000000000600052603260045260246000fd5b906000526020600020018190555060048054806108df577f4e487b7100000000000000000000000000000000000000000000000000000000600052603160045260246000fd5b600190038181906000526020600020016000905590555b808061090190610e9e565b91505061079c565b50505050565b60008054906101000a900473ffffffffffffffffffffffffffffffffffffffff1681565b600260009054906101000a900473ffffffffffffffffffffffffffffffffffffffff1681565b6000600480549050905090565b60036020528060005260406000206000915090505481565b6000600260009054906101000a900473ffffffffffffffffffffffffffffffffffffffff16905090565b600060036000838152602001908152602001600020549050919050565b6000815190506109d481610fe3565b92915050565b6000815190506109e981610ffa565b92915050565b6000813590506109fe81611011565b92915050565b600060208284031215610a1657600080fd5b6000610a24848285016109c5565b91505092915050565b600060208284031215610a3f57600080fd5b6000610a4d848285016109da565b91505092915050565b600060208284031215610a6857600080fd5b6000610a76848285016109ef565b91505092915050565b60008060408385031215610a9257600080fd5b6000610aa0858286016109ef565b9250506020610ab1858286016109ef565b9150509250929050565b6000610ac78383610c0d565b60208301905092915050565b610adc81610e0e565b82525050565b6000610aed82610da0565b610af78185610db8565b9350610b0283610d90565b8060005b83811015610b33578151610b1a8882610abb565b9750610b2583610dab565b925050600181019050610b06565b5085935050505092915050565b610b4981610e56565b82525050565b610b5881610e7a565b82525050565b6000610b6b601b83610dc9565b9150610b7682610f16565b602082019050919050565b6000610b8e601083610dc9565b9150610b9982610f3f565b602082019050919050565b6000610bb1601783610dc9565b9150610bbc82610f68565b602082019050919050565b6000610bd4601f83610dc9565b9150610bdf82610f91565b602082019050919050565b6000610bf7601783610dc9565b9150610c0282610fba565b602082019050919050565b610c1681610e4c565b82525050565b610c2581610e4c565b82525050565b6000602082019050610c406000830184610ad3565b92915050565b6000606082019050610c5b6000830186610ad3565b610c686020830185610ad3565b610c756040830184610c1c565b949350505050565b60006020820190508181036000830152610c978184610ae2565b905092915050565b6000602082019050610cb46000830184610b40565b92915050565b6000602082019050610ccf6000830184610b4f565b92915050565b60006020820190508181036000830152610cee81610b5e565b9050919050565b60006020820190508181036000830152610d0e81610b81565b9050919050565b60006020820190508181036000830152610d2e81610ba4565b9050919050565b60006020820190508181036000830152610d4e81610bc7565b9050919050565b60006020820190508181036000830152610d6e81610bea565b9050919050565b6000602082019050610d8a6000830184610c1c565b92915050565b6000819050602082019050919050565b600081519050919050565b6000602082019050919050565b600082825260208201905092915050565b600082825260208201905092915050565b6000610de582610e4c565b9150610df083610e4c565b925082821015610e0357610e02610ee7565b5b828203905092915050565b6000610e1982610e2c565b9050919050565b60008115159050919050565b600073ffffffffffffffffffffffffffffffffffffffff82169050919050565b6000819050919050565b6000610e6182610e68565b9050919050565b6000610e7382610e2c565b9050919050565b6000610e8582610e8c565b9050919050565b6000610e9782610e2c565b9050919050565b6000610ea982610e4c565b91507fffffffffffffffffffffffffffffffffffffffffffffffffffffffffffffffff821415610edc57610edb610ee7565b5b600182019050919050565b7f4e487b7100000000000000000000000000000000000000000000000000000000600052601160045260246000fd5b7f43616c6c6572206973206e6f74207469636b6574206f776e65722e0000000000600082015250565b7f5469636b6574206e6f742073616c652e00000000000000000000000000000000600082015250565b7f43616c6c6572206973207469636b6574206f776e65722e000000000000000000600082015250565b7f54686973207469636b657420697320616c7265616479206f6e2073616c652e00600082015250565b7f5072696365206973207a65726f206f72206c6f7765722e000000000000000000600082015250565b610fec81610e0e565b8114610ff757600080fd5b50565b61100381610e20565b811461100e57600080fd5b50565b61101a81610e4c565b811461102557600080fd5b5056fea2646970667358221220f804c938ee48076bee93aa73150f8dc6e0ee85c2d8e8de408400d275e75292ab64736f6c63430008040033",
  "linkReferences": {},
  "deployedLinkReferences": {}
}