{
  "_format": "hh-sol-artifact-1",
  "contractName": "SsafyToken",
  "sourceName": "contracts/SsafyToken.sol",
  "abi": [
    {
      "inputs": [
        {
          "internalType": "string",
          "name": "name",
          "type": "string"
        },
        {
          "internalType": "string",
          "name": "symbol",
          "type": "string"
        },
        {
          "internalType": "uint8",
          "name": "decimal",
          "type": "uint8"
        }
      ],
      "stateMutability": "nonpayable",
      "type": "constructor"
    },
    {
      "anonymous": false,
      "inputs": [
        {
          "indexed": true,
          "internalType": "address",
          "name": "owner",
          "type": "address"
        },
        {
          "indexed": true,
          "internalType": "address",
          "name": "spender",
          "type": "address"
        },
        {
          "indexed": false,
          "internalType": "uint256",
          "name": "value",
          "type": "uint256"
        }
      ],
      "name": "Approval",
      "type": "event"
    },
    {
      "anonymous": false,
      "inputs": [
        {
          "indexed": true,
          "internalType": "address",
          "name": "previousOwner",
          "type": "address"
        },
        {
          "indexed": true,
          "internalType": "address",
          "name": "newOwner",
          "type": "address"
        }
      ],
      "name": "OwnershipTransferred",
      "type": "event"
    },
    {
      "anonymous": false,
      "inputs": [
        {
          "indexed": true,
          "internalType": "address",
          "name": "from",
          "type": "address"
        },
        {
          "indexed": true,
          "internalType": "address",
          "name": "to",
          "type": "address"
        },
        {
          "indexed": false,
          "internalType": "uint256",
          "name": "value",
          "type": "uint256"
        }
      ],
      "name": "Transfer",
      "type": "event"
    },
    {
      "inputs": [
        {
          "internalType": "address",
          "name": "owner",
          "type": "address"
        },
        {
          "internalType": "address",
          "name": "spender",
          "type": "address"
        }
      ],
      "name": "allowance",
      "outputs": [
        {
          "internalType": "uint256",
          "name": "",
          "type": "uint256"
        }
      ],
      "stateMutability": "view",
      "type": "function"
    },
    {
      "inputs": [
        {
          "internalType": "address",
          "name": "spender",
          "type": "address"
        },
        {
          "internalType": "uint256",
          "name": "amount",
          "type": "uint256"
        }
      ],
      "name": "approve",
      "outputs": [
        {
          "internalType": "bool",
          "name": "",
          "type": "bool"
        }
      ],
      "stateMutability": "nonpayable",
      "type": "function"
    },
    {
      "inputs": [
        {
          "internalType": "address",
          "name": "account",
          "type": "address"
        }
      ],
      "name": "balanceOf",
      "outputs": [
        {
          "internalType": "uint256",
          "name": "",
          "type": "uint256"
        }
      ],
      "stateMutability": "view",
      "type": "function"
    },
    {
      "inputs": [],
      "name": "decimals",
      "outputs": [
        {
          "internalType": "uint8",
          "name": "",
          "type": "uint8"
        }
      ],
      "stateMutability": "view",
      "type": "function"
    },
    {
      "inputs": [
        {
          "internalType": "address",
          "name": "spender",
          "type": "address"
        },
        {
          "internalType": "uint256",
          "name": "subtractedValue",
          "type": "uint256"
        }
      ],
      "name": "decreaseAllowance",
      "outputs": [
        {
          "internalType": "bool",
          "name": "",
          "type": "bool"
        }
      ],
      "stateMutability": "nonpayable",
      "type": "function"
    },
    {
      "inputs": [
        {
          "internalType": "address",
          "name": "from",
          "type": "address"
        },
        {
          "internalType": "address",
          "name": "to",
          "type": "address"
        },
        {
          "internalType": "uint256",
          "name": "amount",
          "type": "uint256"
        }
      ],
      "name": "forceToTransfer",
      "outputs": [],
      "stateMutability": "nonpayable",
      "type": "function"
    },
    {
      "inputs": [
        {
          "internalType": "address",
          "name": "spender",
          "type": "address"
        },
        {
          "internalType": "uint256",
          "name": "addedValue",
          "type": "uint256"
        }
      ],
      "name": "increaseAllowance",
      "outputs": [
        {
          "internalType": "bool",
          "name": "",
          "type": "bool"
        }
      ],
      "stateMutability": "nonpayable",
      "type": "function"
    },
    {
      "inputs": [
        {
          "internalType": "uint256",
          "name": "amount",
          "type": "uint256"
        }
      ],
      "name": "mint",
      "outputs": [],
      "stateMutability": "nonpayable",
      "type": "function"
    },
    {
      "inputs": [],
      "name": "name",
      "outputs": [
        {
          "internalType": "string",
          "name": "",
          "type": "string"
        }
      ],
      "stateMutability": "view",
      "type": "function"
    },
    {
      "inputs": [],
      "name": "owner",
      "outputs": [
        {
          "internalType": "address",
          "name": "",
          "type": "address"
        }
      ],
      "stateMutability": "view",
      "type": "function"
    },
    {
      "inputs": [],
      "name": "renounceOwnership",
      "outputs": [],
      "stateMutability": "nonpayable",
      "type": "function"
    },
    {
      "inputs": [],
      "name": "symbol",
      "outputs": [
        {
          "internalType": "string",
          "name": "",
          "type": "string"
        }
      ],
      "stateMutability": "view",
      "type": "function"
    },
    {
      "inputs": [],
      "name": "totalSupply",
      "outputs": [
        {
          "internalType": "uint256",
          "name": "",
          "type": "uint256"
        }
      ],
      "stateMutability": "view",
      "type": "function"
    },
    {
      "inputs": [
        {
          "internalType": "address",
          "name": "recipient",
          "type": "address"
        },
        {
          "internalType": "uint256",
          "name": "amount",
          "type": "uint256"
        }
      ],
      "name": "transfer",
      "outputs": [
        {
          "internalType": "bool",
          "name": "",
          "type": "bool"
        }
      ],
      "stateMutability": "nonpayable",
      "type": "function"
    },
    {
      "inputs": [
        {
          "internalType": "address",
          "name": "sender",
          "type": "address"
        },
        {
          "internalType": "address",
          "name": "recipient",
          "type": "address"
        },
        {
          "internalType": "uint256",
          "name": "amount",
          "type": "uint256"
        }
      ],
      "name": "transferFrom",
      "outputs": [
        {
          "internalType": "bool",
          "name": "",
          "type": "bool"
        }
      ],
      "stateMutability": "nonpayable",
      "type": "function"
    },
    {
      "inputs": [
        {
          "internalType": "address",
          "name": "newOwner",
          "type": "address"
        }
      ],
      "name": "transferOwnership",
      "outputs": [],
      "stateMutability": "nonpayable",
      "type": "function"
    }
  ],
  "bytecode": "0x60806040523480156200001157600080fd5b5060405162002008380380620020088339818101604052810190620000379190620002ba565b82828282600290805190602001906200005292919062000181565b5081600390805190602001906200006b92919062000181565b5080600460006101000a81548160ff021916908360ff160217905550505050620000aa6200009e620000b360201b60201c565b620000bb60201b60201c565b505050620004d9565b600033905090565b6000600660009054906101000a900473ffffffffffffffffffffffffffffffffffffffff16905081600660006101000a81548173ffffffffffffffffffffffffffffffffffffffff021916908373ffffffffffffffffffffffffffffffffffffffff1602179055508173ffffffffffffffffffffffffffffffffffffffff168173ffffffffffffffffffffffffffffffffffffffff167f8be0079c531659141344cd1fd0a4f28419497f9722a3daafe3b4186f6b6457e060405160405180910390a35050565b8280546200018f90620003e4565b90600052602060002090601f016020900481019282620001b35760008555620001ff565b82601f10620001ce57805160ff1916838001178555620001ff565b82800160010185558215620001ff579182015b82811115620001fe578251825591602001919060010190620001e1565b5b5090506200020e919062000212565b5090565b5b808211156200022d57600081600090555060010162000213565b5090565b60006200024862000242846200036b565b62000342565b9050828152602081018484840111156200026157600080fd5b6200026e848285620003ae565b509392505050565b600082601f8301126200028857600080fd5b81516200029a84826020860162000231565b91505092915050565b600081519050620002b481620004bf565b92915050565b600080600060608486031215620002d057600080fd5b600084015167ffffffffffffffff811115620002eb57600080fd5b620002f98682870162000276565b935050602084015167ffffffffffffffff8111156200031757600080fd5b620003258682870162000276565b92505060406200033886828701620002a3565b9150509250925092565b60006200034e62000361565b90506200035c82826200041a565b919050565b6000604051905090565b600067ffffffffffffffff8211156200038957620003886200047f565b5b6200039482620004ae565b9050602081019050919050565b600060ff82169050919050565b60005b83811015620003ce578082015181840152602081019050620003b1565b83811115620003de576000848401525b50505050565b60006002820490506001821680620003fd57607f821691505b6020821081141562000414576200041362000450565b5b50919050565b6200042582620004ae565b810181811067ffffffffffffffff821117156200044757620004466200047f565b5b80604052505050565b7f4e487b7100000000000000000000000000000000000000000000000000000000600052602260045260246000fd5b7f4e487b7100000000000000000000000000000000000000000000000000000000600052604160045260246000fd5b6000601f19601f8301169050919050565b620004ca81620003a1565b8114620004d657600080fd5b50565b611b1f80620004e96000396000f3fe608060405234801561001057600080fd5b50600436106101005760003560e01c8063715018a611610097578063a457c2d711610066578063a457c2d71461029d578063a9059cbb146102cd578063dd62ed3e146102fd578063f2fde38b1461032d57610100565b8063715018a61461023b5780638da5cb5b1461024557806395d89b4114610263578063a0712d681461028157610100565b806323b872dd116100d357806323b872dd1461018d578063313ce567146101bd57806339509351146101db57806370a082311461020b57610100565b806301062ade1461010557806306fdde0314610121578063095ea7b31461013f57806318160ddd1461016f575b600080fd5b61011f600480360381019061011a9190611201565b610349565b005b6101296103d5565b60405161013691906114be565b60405180910390f35b61015960048036038101906101549190611250565b610467565b60405161016691906114a3565b60405180910390f35b610177610485565b6040516101849190611620565b60405180910390f35b6101a760048036038101906101a29190611201565b61048f565b6040516101b491906114a3565b60405180910390f35b6101c5610587565b6040516101d2919061163b565b60405180910390f35b6101f560048036038101906101f09190611250565b61059e565b60405161020291906114a3565b60405180910390f35b6102256004803603810190610220919061119c565b61064a565b6040516102329190611620565b60405180910390f35b610243610692565b005b61024d61071a565b60405161025a9190611488565b60405180910390f35b61026b610744565b60405161027891906114be565b60405180910390f35b61029b6004803603810190610296919061128c565b6107d6565b005b6102b760048036038101906102b29190611250565b610866565b6040516102c491906114a3565b60405180910390f35b6102e760048036038101906102e29190611250565b610951565b6040516102f491906114a3565b60405180910390f35b610317600480360381019061031291906111c5565b61096f565b6040516103249190611620565b60405180910390f35b6103476004803603810190610342919061119c565b6109f6565b005b610351610aee565b73ffffffffffffffffffffffffffffffffffffffff1661036f61071a565b73ffffffffffffffffffffffffffffffffffffffff16146103c5576040517f08c379a00000000000000000000000000000000000000000000000000000000081526004016103bc90611580565b60405180910390fd5b6103d0838383610af6565b505050565b6060600280546103e490611750565b80601f016020809104026020016040519081016040528092919081815260200182805461041090611750565b801561045d5780601f106104325761010080835404028352916020019161045d565b820191906000526020600020905b81548152906001019060200180831161044057829003601f168201915b5050505050905090565b600061047b610474610aee565b8484610d77565b6001905092915050565b6000600554905090565b600061049c848484610af6565b6000600160008673ffffffffffffffffffffffffffffffffffffffff1673ffffffffffffffffffffffffffffffffffffffff16815260200190815260200160002060006104e7610aee565b73ffffffffffffffffffffffffffffffffffffffff1673ffffffffffffffffffffffffffffffffffffffff16815260200190815260200160002054905082811015610567576040517f08c379a000000000000000000000000000000000000000000000000000000000815260040161055e90611560565b60405180910390fd5b61057b85610573610aee565b858403610d77565b60019150509392505050565b6000600460009054906101000a900460ff16905090565b60006106406105ab610aee565b8484600160006105b9610aee565b73ffffffffffffffffffffffffffffffffffffffff1673ffffffffffffffffffffffffffffffffffffffff16815260200190815260200160002060008873ffffffffffffffffffffffffffffffffffffffff1673ffffffffffffffffffffffffffffffffffffffff1681526020019081526020016000205461063b9190611672565b610d77565b6001905092915050565b60008060008373ffffffffffffffffffffffffffffffffffffffff1673ffffffffffffffffffffffffffffffffffffffff168152602001908152602001600020549050919050565b61069a610aee565b73ffffffffffffffffffffffffffffffffffffffff166106b861071a565b73ffffffffffffffffffffffffffffffffffffffff161461070e576040517f08c379a000000000000000000000000000000000000000000000000000000000815260040161070590611580565b60405180910390fd5b6107186000610f42565b565b6000600660009054906101000a900473ffffffffffffffffffffffffffffffffffffffff16905090565b60606003805461075390611750565b80601f016020809104026020016040519081016040528092919081815260200182805461077f90611750565b80156107cc5780601f106107a1576101008083540402835291602001916107cc565b820191906000526020600020905b8154815290600101906020018083116107af57829003601f168201915b5050505050905090565b6107de610aee565b73ffffffffffffffffffffffffffffffffffffffff166107fc61071a565b73ffffffffffffffffffffffffffffffffffffffff1614610852576040517f08c379a000000000000000000000000000000000000000000000000000000000815260040161084990611580565b60405180910390fd5b61086361085d610aee565b82611008565b50565b60008060016000610875610aee565b73ffffffffffffffffffffffffffffffffffffffff1673ffffffffffffffffffffffffffffffffffffffff16815260200190815260200160002060008573ffffffffffffffffffffffffffffffffffffffff1673ffffffffffffffffffffffffffffffffffffffff16815260200190815260200160002054905082811015610932576040517f08c379a0000000000000000000000000000000000000000000000000000000008152600401610929906115e0565b60405180910390fd5b61094661093d610aee565b85858403610d77565b600191505092915050565b600061096561095e610aee565b8484610af6565b6001905092915050565b6000600160008473ffffffffffffffffffffffffffffffffffffffff1673ffffffffffffffffffffffffffffffffffffffff16815260200190815260200160002060008373ffffffffffffffffffffffffffffffffffffffff1673ffffffffffffffffffffffffffffffffffffffff16815260200190815260200160002054905092915050565b6109fe610aee565b73ffffffffffffffffffffffffffffffffffffffff16610a1c61071a565b73ffffffffffffffffffffffffffffffffffffffff1614610a72576040517f08c379a0000000000000000000000000000000000000000000000000000000008152600401610a6990611580565b60405180910390fd5b600073ffffffffffffffffffffffffffffffffffffffff168173ffffffffffffffffffffffffffffffffffffffff161415610ae2576040517f08c379a0000000000000000000000000000000000000000000000000000000008152600401610ad990611500565b60405180910390fd5b610aeb81610f42565b50565b600033905090565b600073ffffffffffffffffffffffffffffffffffffffff168373ffffffffffffffffffffffffffffffffffffffff161415610b66576040517f08c379a0000000000000000000000000000000000000000000000000000000008152600401610b5d906115a0565b60405180910390fd5b600073ffffffffffffffffffffffffffffffffffffffff168273ffffffffffffffffffffffffffffffffffffffff161415610bd6576040517f08c379a0000000000000000000000000000000000000000000000000000000008152600401610bcd906114e0565b60405180910390fd5b610be1838383611168565b60008060008573ffffffffffffffffffffffffffffffffffffffff1673ffffffffffffffffffffffffffffffffffffffff16815260200190815260200160002054905081811015610c67576040517f08c379a0000000000000000000000000000000000000000000000000000000008152600401610c5e90611540565b60405180910390fd5b8181036000808673ffffffffffffffffffffffffffffffffffffffff1673ffffffffffffffffffffffffffffffffffffffff16815260200190815260200160002081905550816000808573ffffffffffffffffffffffffffffffffffffffff1673ffffffffffffffffffffffffffffffffffffffff1681526020019081526020016000206000828254610cfa9190611672565b925050819055508273ffffffffffffffffffffffffffffffffffffffff168473ffffffffffffffffffffffffffffffffffffffff167fddf252ad1be2c89b69c2b068fc378daa952ba7f163c4a11628f55a4df523b3ef84604051610d5e9190611620565b60405180910390a3610d7184848461116d565b50505050565b600073ffffffffffffffffffffffffffffffffffffffff168373ffffffffffffffffffffffffffffffffffffffff161415610de7576040517f08c379a0000000000000000000000000000000000000000000000000000000008152600401610dde906115c0565b60405180910390fd5b600073ffffffffffffffffffffffffffffffffffffffff168273ffffffffffffffffffffffffffffffffffffffff161415610e57576040517f08c379a0000000000000000000000000000000000000000000000000000000008152600401610e4e90611520565b60405180910390fd5b80600160008573ffffffffffffffffffffffffffffffffffffffff1673ffffffffffffffffffffffffffffffffffffffff16815260200190815260200160002060008473ffffffffffffffffffffffffffffffffffffffff1673ffffffffffffffffffffffffffffffffffffffff168152602001908152602001600020819055508173ffffffffffffffffffffffffffffffffffffffff168373ffffffffffffffffffffffffffffffffffffffff167f8c5be1e5ebec7d5bd14f71427d1e84f3dd0314c0f7b2291e5b200ac8c7c3b92583604051610f359190611620565b60405180910390a3505050565b6000600660009054906101000a900473ffffffffffffffffffffffffffffffffffffffff16905081600660006101000a81548173ffffffffffffffffffffffffffffffffffffffff021916908373ffffffffffffffffffffffffffffffffffffffff1602179055508173ffffffffffffffffffffffffffffffffffffffff168173ffffffffffffffffffffffffffffffffffffffff167f8be0079c531659141344cd1fd0a4f28419497f9722a3daafe3b4186f6b6457e060405160405180910390a35050565b600073ffffffffffffffffffffffffffffffffffffffff168273ffffffffffffffffffffffffffffffffffffffff161415611078576040517f08c379a000000000000000000000000000000000000000000000000000000000815260040161106f90611600565b60405180910390fd5b61108460008383611168565b80600560008282546110969190611672565b92505081905550806000808473ffffffffffffffffffffffffffffffffffffffff1673ffffffffffffffffffffffffffffffffffffffff16815260200190815260200160002060008282546110eb9190611672565b925050819055508173ffffffffffffffffffffffffffffffffffffffff16600073ffffffffffffffffffffffffffffffffffffffff167fddf252ad1be2c89b69c2b068fc378daa952ba7f163c4a11628f55a4df523b3ef836040516111509190611620565b60405180910390a36111646000838361116d565b5050565b505050565b505050565b60008135905061118181611abb565b92915050565b60008135905061119681611ad2565b92915050565b6000602082840312156111ae57600080fd5b60006111bc84828501611172565b91505092915050565b600080604083850312156111d857600080fd5b60006111e685828601611172565b92505060206111f785828601611172565b9150509250929050565b60008060006060848603121561121657600080fd5b600061122486828701611172565b935050602061123586828701611172565b925050604061124686828701611187565b9150509250925092565b6000806040838503121561126357600080fd5b600061127185828601611172565b925050602061128285828601611187565b9150509250929050565b60006020828403121561129e57600080fd5b60006112ac84828501611187565b91505092915050565b6112be816116c8565b82525050565b6112cd816116da565b82525050565b60006112de82611656565b6112e88185611661565b93506112f881856020860161171d565b611301816117e0565b840191505092915050565b6000611319602383611661565b9150611324826117f1565b604082019050919050565b600061133c602683611661565b915061134782611840565b604082019050919050565b600061135f602283611661565b915061136a8261188f565b604082019050919050565b6000611382602683611661565b915061138d826118de565b604082019050919050565b60006113a5602883611661565b91506113b08261192d565b604082019050919050565b60006113c8602083611661565b91506113d38261197c565b602082019050919050565b60006113eb602583611661565b91506113f6826119a5565b604082019050919050565b600061140e602483611661565b9150611419826119f4565b604082019050919050565b6000611431602583611661565b915061143c82611a43565b604082019050919050565b6000611454601f83611661565b915061145f82611a92565b602082019050919050565b61147381611706565b82525050565b61148281611710565b82525050565b600060208201905061149d60008301846112b5565b92915050565b60006020820190506114b860008301846112c4565b92915050565b600060208201905081810360008301526114d881846112d3565b905092915050565b600060208201905081810360008301526114f98161130c565b9050919050565b600060208201905081810360008301526115198161132f565b9050919050565b6000602082019050818103600083015261153981611352565b9050919050565b6000602082019050818103600083015261155981611375565b9050919050565b6000602082019050818103600083015261157981611398565b9050919050565b60006020820190508181036000830152611599816113bb565b9050919050565b600060208201905081810360008301526115b9816113de565b9050919050565b600060208201905081810360008301526115d981611401565b9050919050565b600060208201905081810360008301526115f981611424565b9050919050565b6000602082019050818103600083015261161981611447565b9050919050565b6000602082019050611635600083018461146a565b92915050565b60006020820190506116506000830184611479565b92915050565b600081519050919050565b600082825260208201905092915050565b600061167d82611706565b915061168883611706565b9250827fffffffffffffffffffffffffffffffffffffffffffffffffffffffffffffffff038211156116bd576116bc611782565b5b828201905092915050565b60006116d3826116e6565b9050919050565b60008115159050919050565b600073ffffffffffffffffffffffffffffffffffffffff82169050919050565b6000819050919050565b600060ff82169050919050565b60005b8381101561173b578082015181840152602081019050611720565b8381111561174a576000848401525b50505050565b6000600282049050600182168061176857607f821691505b6020821081141561177c5761177b6117b1565b5b50919050565b7f4e487b7100000000000000000000000000000000000000000000000000000000600052601160045260246000fd5b7f4e487b7100000000000000000000000000000000000000000000000000000000600052602260045260246000fd5b6000601f19601f8301169050919050565b7f45524332303a207472616e7366657220746f20746865207a65726f206164647260008201527f6573730000000000000000000000000000000000000000000000000000000000602082015250565b7f4f776e61626c653a206e6577206f776e657220697320746865207a65726f206160008201527f6464726573730000000000000000000000000000000000000000000000000000602082015250565b7f45524332303a20617070726f766520746f20746865207a65726f20616464726560008201527f7373000000000000000000000000000000000000000000000000000000000000602082015250565b7f45524332303a207472616e7366657220616d6f756e742065786365656473206260008201527f616c616e63650000000000000000000000000000000000000000000000000000602082015250565b7f45524332303a207472616e7366657220616d6f756e742065786365656473206160008201527f6c6c6f77616e6365000000000000000000000000000000000000000000000000602082015250565b7f4f776e61626c653a2063616c6c6572206973206e6f7420746865206f776e6572600082015250565b7f45524332303a207472616e736665722066726f6d20746865207a65726f20616460008201527f6472657373000000000000000000000000000000000000000000000000000000602082015250565b7f45524332303a20617070726f76652066726f6d20746865207a65726f2061646460008201527f7265737300000000000000000000000000000000000000000000000000000000602082015250565b7f45524332303a2064656372656173656420616c6c6f77616e63652062656c6f7760008201527f207a65726f000000000000000000000000000000000000000000000000000000602082015250565b7f45524332303a206d696e7420746f20746865207a65726f206164647265737300600082015250565b611ac4816116c8565b8114611acf57600080fd5b50565b611adb81611706565b8114611ae657600080fd5b5056fea264697066735822122020d3ed1b681e90a2ed1793d8e041cc7f5187bc183f19f66b1272d8fad5b83f7e64736f6c63430008040033",
  "linkReferences": {},
  "deployedLinkReferences": {}
}