{
  "_format": "hh-sol-artifact-1",
  "contractName": "MintTicket",
  "sourceName": "contracts/MintTicket.sol",
  "abi": [
    {
      "inputs": [
        {
          "internalType": "uint256",
          "name": "_price",
          "type": "uint256"
        },
        {
          "internalType": "address",
          "name": "_currencyAddress",
          "type": "address"
        }
      ],
      "stateMutability": "nonpayable",
      "type": "constructor"
    },
    {
      "anonymous": false,
      "inputs": [
        {
          "indexed": true,
          "internalType": "address",
          "name": "owner",
          "type": "address"
        },
        {
          "indexed": true,
          "internalType": "address",
          "name": "approved",
          "type": "address"
        },
        {
          "indexed": true,
          "internalType": "uint256",
          "name": "tokenId",
          "type": "uint256"
        }
      ],
      "name": "Approval",
      "type": "event"
    },
    {
      "anonymous": false,
      "inputs": [
        {
          "indexed": true,
          "internalType": "address",
          "name": "owner",
          "type": "address"
        },
        {
          "indexed": true,
          "internalType": "address",
          "name": "operator",
          "type": "address"
        },
        {
          "indexed": false,
          "internalType": "bool",
          "name": "approved",
          "type": "bool"
        }
      ],
      "name": "ApprovalForAll",
      "type": "event"
    },
    {
      "anonymous": false,
      "inputs": [
        {
          "indexed": true,
          "internalType": "address",
          "name": "previousOwner",
          "type": "address"
        },
        {
          "indexed": true,
          "internalType": "address",
          "name": "newOwner",
          "type": "address"
        }
      ],
      "name": "OwnershipTransferred",
      "type": "event"
    },
    {
      "anonymous": false,
      "inputs": [
        {
          "indexed": true,
          "internalType": "address",
          "name": "from",
          "type": "address"
        },
        {
          "indexed": true,
          "internalType": "address",
          "name": "to",
          "type": "address"
        },
        {
          "indexed": true,
          "internalType": "uint256",
          "name": "tokenId",
          "type": "uint256"
        }
      ],
      "name": "Transfer",
      "type": "event"
    },
    {
      "inputs": [
        {
          "internalType": "address",
          "name": "to",
          "type": "address"
        },
        {
          "internalType": "uint256",
          "name": "tokenId",
          "type": "uint256"
        }
      ],
      "name": "approve",
      "outputs": [],
      "stateMutability": "nonpayable",
      "type": "function"
    },
    {
      "inputs": [
        {
          "internalType": "address",
          "name": "owner",
          "type": "address"
        }
      ],
      "name": "balanceOf",
      "outputs": [
        {
          "internalType": "uint256",
          "name": "",
          "type": "uint256"
        }
      ],
      "stateMutability": "view",
      "type": "function"
    },
    {
      "inputs": [
        {
          "internalType": "string",
          "name": "_tokenURI",
          "type": "string"
        }
      ],
      "name": "buyTicket",
      "outputs": [
        {
          "internalType": "uint256",
          "name": "",
          "type": "uint256"
        }
      ],
      "stateMutability": "nonpayable",
      "type": "function"
    },
    {
      "inputs": [
        {
          "internalType": "uint256",
          "name": "_tokenId",
          "type": "uint256"
        }
      ],
      "name": "cancelTicket",
      "outputs": [],
      "stateMutability": "nonpayable",
      "type": "function"
    },
    {
      "inputs": [],
      "name": "erc20Contract",
      "outputs": [
        {
          "internalType": "contract IERC20",
          "name": "",
          "type": "address"
        }
      ],
      "stateMutability": "view",
      "type": "function"
    },
    {
      "inputs": [
        {
          "internalType": "uint256",
          "name": "tokenId",
          "type": "uint256"
        }
      ],
      "name": "getApproved",
      "outputs": [
        {
          "internalType": "address",
          "name": "",
          "type": "address"
        }
      ],
      "stateMutability": "view",
      "type": "function"
    },
    {
      "inputs": [],
      "name": "getCurrencyAmount",
      "outputs": [
        {
          "internalType": "uint256",
          "name": "",
          "type": "uint256"
        }
      ],
      "stateMutability": "view",
      "type": "function"
    },
    {
      "inputs": [
        {
          "internalType": "address",
          "name": "_mintTicketOwner",
          "type": "address"
        }
      ],
      "name": "getTicketList",
      "outputs": [
        {
          "components": [
            {
              "internalType": "uint256",
              "name": "tokenId",
              "type": "uint256"
            }
          ],
          "internalType": "struct MintTicket.TicketTokenData[]",
          "name": "",
          "type": "tuple[]"
        }
      ],
      "stateMutability": "view",
      "type": "function"
    },
    {
      "inputs": [],
      "name": "getTicketPrice",
      "outputs": [
        {
          "internalType": "uint256",
          "name": "",
          "type": "uint256"
        }
      ],
      "stateMutability": "view",
      "type": "function"
    },
    {
      "inputs": [
        {
          "internalType": "address",
          "name": "owner",
          "type": "address"
        },
        {
          "internalType": "address",
          "name": "operator",
          "type": "address"
        }
      ],
      "name": "isApprovedForAll",
      "outputs": [
        {
          "internalType": "bool",
          "name": "",
          "type": "bool"
        }
      ],
      "stateMutability": "view",
      "type": "function"
    },
    {
      "inputs": [],
      "name": "name",
      "outputs": [
        {
          "internalType": "string",
          "name": "",
          "type": "string"
        }
      ],
      "stateMutability": "view",
      "type": "function"
    },
    {
      "inputs": [],
      "name": "owner",
      "outputs": [
        {
          "internalType": "address",
          "name": "",
          "type": "address"
        }
      ],
      "stateMutability": "view",
      "type": "function"
    },
    {
      "inputs": [
        {
          "internalType": "uint256",
          "name": "tokenId",
          "type": "uint256"
        }
      ],
      "name": "ownerOf",
      "outputs": [
        {
          "internalType": "address",
          "name": "",
          "type": "address"
        }
      ],
      "stateMutability": "view",
      "type": "function"
    },
    {
      "inputs": [],
      "name": "renounceOwnership",
      "outputs": [],
      "stateMutability": "nonpayable",
      "type": "function"
    },
    {
      "inputs": [
        {
          "internalType": "address",
          "name": "from",
          "type": "address"
        },
        {
          "internalType": "address",
          "name": "to",
          "type": "address"
        },
        {
          "internalType": "uint256",
          "name": "tokenId",
          "type": "uint256"
        }
      ],
      "name": "safeTransferFrom",
      "outputs": [],
      "stateMutability": "nonpayable",
      "type": "function"
    },
    {
      "inputs": [
        {
          "internalType": "address",
          "name": "from",
          "type": "address"
        },
        {
          "internalType": "address",
          "name": "to",
          "type": "address"
        },
        {
          "internalType": "uint256",
          "name": "tokenId",
          "type": "uint256"
        },
        {
          "internalType": "bytes",
          "name": "_data",
          "type": "bytes"
        }
      ],
      "name": "safeTransferFrom",
      "outputs": [],
      "stateMutability": "nonpayable",
      "type": "function"
    },
    {
      "inputs": [],
      "name": "saleContractAddress",
      "outputs": [
        {
          "internalType": "address",
          "name": "",
          "type": "address"
        }
      ],
      "stateMutability": "view",
      "type": "function"
    },
    {
      "inputs": [],
      "name": "saleTicket",
      "outputs": [
        {
          "internalType": "contract SaleTicket",
          "name": "",
          "type": "address"
        }
      ],
      "stateMutability": "view",
      "type": "function"
    },
    {
      "inputs": [
        {
          "internalType": "address",
          "name": "operator",
          "type": "address"
        },
        {
          "internalType": "bool",
          "name": "approved",
          "type": "bool"
        }
      ],
      "name": "setApprovalForAll",
      "outputs": [],
      "stateMutability": "nonpayable",
      "type": "function"
    },
    {
      "inputs": [
        {
          "internalType": "address",
          "name": "_setSaleTicket",
          "type": "address"
        }
      ],
      "name": "setSaleTicket",
      "outputs": [],
      "stateMutability": "nonpayable",
      "type": "function"
    },
    {
      "inputs": [
        {
          "internalType": "bytes4",
          "name": "interfaceId",
          "type": "bytes4"
        }
      ],
      "name": "supportsInterface",
      "outputs": [
        {
          "internalType": "bool",
          "name": "",
          "type": "bool"
        }
      ],
      "stateMutability": "view",
      "type": "function"
    },
    {
      "inputs": [],
      "name": "symbol",
      "outputs": [
        {
          "internalType": "string",
          "name": "",
          "type": "string"
        }
      ],
      "stateMutability": "view",
      "type": "function"
    },
    {
      "inputs": [
        {
          "internalType": "uint256",
          "name": "index",
          "type": "uint256"
        }
      ],
      "name": "tokenByIndex",
      "outputs": [
        {
          "internalType": "uint256",
          "name": "",
          "type": "uint256"
        }
      ],
      "stateMutability": "view",
      "type": "function"
    },
    {
      "inputs": [
        {
          "internalType": "address",
          "name": "owner",
          "type": "address"
        },
        {
          "internalType": "uint256",
          "name": "index",
          "type": "uint256"
        }
      ],
      "name": "tokenOfOwnerByIndex",
      "outputs": [
        {
          "internalType": "uint256",
          "name": "",
          "type": "uint256"
        }
      ],
      "stateMutability": "view",
      "type": "function"
    },
    {
      "inputs": [
        {
          "internalType": "uint256",
          "name": "tokenId",
          "type": "uint256"
        }
      ],
      "name": "tokenURI",
      "outputs": [
        {
          "internalType": "string",
          "name": "",
          "type": "string"
        }
      ],
      "stateMutability": "view",
      "type": "function"
    },
    {
      "inputs": [],
      "name": "totalSupply",
      "outputs": [
        {
          "internalType": "uint256",
          "name": "",
          "type": "uint256"
        }
      ],
      "stateMutability": "view",
      "type": "function"
    },
    {
      "inputs": [
        {
          "internalType": "address",
          "name": "from",
          "type": "address"
        },
        {
          "internalType": "address",
          "name": "to",
          "type": "address"
        },
        {
          "internalType": "uint256",
          "name": "tokenId",
          "type": "uint256"
        }
      ],
      "name": "transferFrom",
      "outputs": [],
      "stateMutability": "nonpayable",
      "type": "function"
    },
    {
      "inputs": [
        {
          "internalType": "address",
          "name": "newOwner",
          "type": "address"
        }
      ],
      "name": "transferOwnership",
      "outputs": [],
      "stateMutability": "nonpayable",
      "type": "function"
    },
    {
      "inputs": [],
      "name": "withdraw",
      "outputs": [],
      "stateMutability": "nonpayable",
      "type": "function"
    }
  ],
  "bytecode": "0x60806040523480156200001157600080fd5b506040516200470038038062004700833981810160405281019062000037919062000375565b6040518060400160405280600881526020017f4d494e54204e46540000000000000000000000000000000000000000000000008152506040518060400160405280600381526020017f4d4e5400000000000000000000000000000000000000000000000000000000008152508160009080519060200190620000bb92919062000297565b508060019080519060200190620000d492919062000297565b505050620000f7620000eb620001c960201b60201c565b620001d160201b60201c565b30600d60006101000a81548173ffffffffffffffffffffffffffffffffffffffff021916908373ffffffffffffffffffffffffffffffffffffffff16021790555033600e60006101000a81548173ffffffffffffffffffffffffffffffffffffffff021916908373ffffffffffffffffffffffffffffffffffffffff16021790555081600f8190555080601060006101000a81548173ffffffffffffffffffffffffffffffffffffffff021916908373ffffffffffffffffffffffffffffffffffffffff16021790555050506200048d565b600033905090565b6000600a60009054906101000a900473ffffffffffffffffffffffffffffffffffffffff16905081600a60006101000a81548173ffffffffffffffffffffffffffffffffffffffff021916908373ffffffffffffffffffffffffffffffffffffffff1602179055508173ffffffffffffffffffffffffffffffffffffffff168173ffffffffffffffffffffffffffffffffffffffff167f8be0079c531659141344cd1fd0a4f28419497f9722a3daafe3b4186f6b6457e060405160405180910390a35050565b828054620002a590620003f4565b90600052602060002090601f016020900481019282620002c9576000855562000315565b82601f10620002e457805160ff191683800117855562000315565b8280016001018555821562000315579182015b8281111562000314578251825591602001919060010190620002f7565b5b50905062000324919062000328565b5090565b5b808211156200034357600081600090555060010162000329565b5090565b600081519050620003588162000459565b92915050565b6000815190506200036f8162000473565b92915050565b600080604083850312156200038957600080fd5b600062000399858286016200035e565b9250506020620003ac8582860162000347565b9150509250929050565b6000620003c382620003ca565b9050919050565b600073ffffffffffffffffffffffffffffffffffffffff82169050919050565b6000819050919050565b600060028204905060018216806200040d57607f821691505b602082108114156200042457620004236200042a565b5b50919050565b7f4e487b7100000000000000000000000000000000000000000000000000000000600052602260045260246000fd5b6200046481620003b6565b81146200047057600080fd5b50565b6200047e81620003ea565b81146200048a57600080fd5b50565b614263806200049d6000396000f3fe608060405234801561001057600080fd5b50600436106101cf5760003560e01c806370a0823111610104578063b88d4fde116100a2578063e985e9c511610071578063e985e9c51461051e578063ee355b1f1461054e578063f2fde38b1461056a578063fa30b25114610586576101cf565b8063b88d4fde14610484578063c87b56dd146104a0578063cc71e05f146104d0578063d274eb8b14610500576101cf565b80638da5cb5b116100de5780638da5cb5b1461040e57806395d89b411461042c578063a22cb4651461044a578063a8f6c91314610466576101cf565b806370a08231146103b6578063715018a6146103e657806387bb7ae0146103f0576101cf565b80632f745c59116101715780633f31545c1161014b5780633f31545c1461031c57806342842e0e1461033a5780634f6ccce7146103565780636352211e14610386576101cf565b80632f745c59146102c4578063321328f6146102f45780633ccfd60b14610312576101cf565b8063095ea7b3116101ad578063095ea7b31461025257806318160ddd1461026e57806323b872dd1461028c57806326dbb3e0146102a8576101cf565b806301ffc9a7146101d457806306fdde0314610204578063081812fc14610222575b600080fd5b6101ee60048036038101906101e99190612f17565b6105b6565b6040516101fb9190613545565b60405180910390f35b61020c610630565b6040516102199190613596565b60405180910390f35b61023c60048036038101906102379190612faa565b6106c2565b604051610249919061345c565b60405180910390f35b61026c60048036038101906102679190612eb2565b610747565b005b61027661085f565b6040516102839190613878565b60405180910390f35b6102a660048036038101906102a19190612dac565b61086c565b005b6102c260048036038101906102bd9190612d47565b6108cc565b005b6102de60048036038101906102d99190612eb2565b610951565b6040516102eb9190613878565b60405180910390f35b6102fc6109f6565b604051610309919061345c565b60405180910390f35b61031a610a1c565b005b610324610d8b565b6040516103319190613878565b60405180910390f35b610354600480360381019061034f9190612dac565b610e3d565b005b610370600480360381019061036b9190612faa565b610e5d565b60405161037d9190613878565b60405180910390f35b6103a0600480360381019061039b9190612faa565b610ef4565b6040516103ad919061345c565b60405180910390f35b6103d060048036038101906103cb9190612d47565b610fa6565b6040516103dd9190613878565b60405180910390f35b6103ee61105e565b005b6103f86110e6565b6040516104059190613878565b60405180910390f35b6104166110f0565b604051610423919061345c565b60405180910390f35b61043461111a565b6040516104419190613596565b60405180910390f35b610464600480360381019061045f9190612e76565b6111ac565b005b61046e6111c2565b60405161047b9190613560565b60405180910390f35b61049e60048036038101906104999190612dfb565b6111e8565b005b6104ba60048036038101906104b59190612faa565b61124a565b6040516104c79190613596565b60405180910390f35b6104ea60048036038101906104e59190612d47565b6112ef565b6040516104f79190613523565b60405180910390f35b61050861144b565b604051610515919061357b565b60405180910390f35b61053860048036038101906105339190612d70565b611471565b6040516105459190613545565b60405180910390f35b61056860048036038101906105639190612faa565b611505565b005b610584600480360381019061057f9190612d47565b611737565b005b6105a0600480360381019061059b9190612f69565b61182f565b6040516105ad9190613878565b60405180910390f35b60007f780e9d63000000000000000000000000000000000000000000000000000000007bffffffffffffffffffffffffffffffffffffffffffffffffffffffff1916827bffffffffffffffffffffffffffffffffffffffffffffffffffffffff191614806106295750610628826119aa565b5b9050919050565b60606000805461063f90613b13565b80601f016020809104026020016040519081016040528092919081815260200182805461066b90613b13565b80156106b85780601f1061068d576101008083540402835291602001916106b8565b820191906000526020600020905b81548152906001019060200180831161069b57829003601f168201915b5050505050905090565b60006106cd82611a8c565b61070c576040517f08c379a000000000000000000000000000000000000000000000000000000000815260040161070390613778565b60405180910390fd5b6004600083815260200190815260200160002060009054906101000a900473ffffffffffffffffffffffffffffffffffffffff169050919050565b600061075282610ef4565b90508073ffffffffffffffffffffffffffffffffffffffff168373ffffffffffffffffffffffffffffffffffffffff1614156107c3576040517f08c379a00000000000000000000000000000000000000000000000000000000081526004016107ba906137b8565b60405180910390fd5b8073ffffffffffffffffffffffffffffffffffffffff166107e2611af8565b73ffffffffffffffffffffffffffffffffffffffff16148061081157506108108161080b611af8565b611471565b5b610850576040517f08c379a0000000000000000000000000000000000000000000000000000000008152600401610847906136f8565b60405180910390fd5b61085a8383611b00565b505050565b6000600880549050905090565b61087d610877611af8565b82611bb9565b6108bc576040517f08c379a00000000000000000000000000000000000000000000000000000000081526004016108b3906137d8565b60405180910390fd5b6108c7838383611c97565b505050565b80600b60006101000a81548173ffffffffffffffffffffffffffffffffffffffff021916908373ffffffffffffffffffffffffffffffffffffffff16021790555080600c60006101000a81548173ffffffffffffffffffffffffffffffffffffffff021916908373ffffffffffffffffffffffffffffffffffffffff16021790555050565b600061095c83610fa6565b821061099d576040517f08c379a0000000000000000000000000000000000000000000000000000000008152600401610994906135d8565b60405180910390fd5b600660008473ffffffffffffffffffffffffffffffffffffffff1673ffffffffffffffffffffffffffffffffffffffff168152602001908152602001600020600083815260200190815260200160002054905092915050565b600c60009054906101000a900473ffffffffffffffffffffffffffffffffffffffff1681565b6000601060009054906101000a900473ffffffffffffffffffffffffffffffffffffffff1673ffffffffffffffffffffffffffffffffffffffff166370a08231600d60009054906101000a900473ffffffffffffffffffffffffffffffffffffffff166040518263ffffffff1660e01b8152600401610a9b919061345c565b60206040518083038186803b158015610ab357600080fd5b505afa158015610ac7573d6000803e3d6000fd5b505050506040513d601f19601f82011682018060405250810190610aeb9190612fd3565b90503373ffffffffffffffffffffffffffffffffffffffff16600e60009054906101000a900473ffffffffffffffffffffffffffffffffffffffff1673ffffffffffffffffffffffffffffffffffffffff1614610b7d576040517f08c379a0000000000000000000000000000000000000000000000000000000008152600401610b7490613858565b60405180910390fd5b60008111610bc0576040517f08c379a0000000000000000000000000000000000000000000000000000000008152600401610bb790613838565b60405180910390fd5b601060009054906101000a900473ffffffffffffffffffffffffffffffffffffffff1673ffffffffffffffffffffffffffffffffffffffff1663095ea7b3600d60009054906101000a900473ffffffffffffffffffffffffffffffffffffffff16836040518363ffffffff1660e01b8152600401610c3f9291906134fa565b602060405180830381600087803b158015610c5957600080fd5b505af1158015610c6d573d6000803e3d6000fd5b505050506040513d601f19601f82011682018060405250810190610c919190612eee565b50601060009054906101000a900473ffffffffffffffffffffffffffffffffffffffff1673ffffffffffffffffffffffffffffffffffffffff166323b872dd600d60009054906101000a900473ffffffffffffffffffffffffffffffffffffffff16600e60009054906101000a900473ffffffffffffffffffffffffffffffffffffffff16846040518463ffffffff1660e01b8152600401610d3593929190613477565b602060405180830381600087803b158015610d4f57600080fd5b505af1158015610d63573d6000803e3d6000fd5b505050506040513d601f19601f82011682018060405250810190610d879190612eee565b5050565b6000601060009054906101000a900473ffffffffffffffffffffffffffffffffffffffff1673ffffffffffffffffffffffffffffffffffffffff166370a08231336040518263ffffffff1660e01b8152600401610de8919061345c565b60206040518083038186803b158015610e0057600080fd5b505afa158015610e14573d6000803e3d6000fd5b505050506040513d601f19601f82011682018060405250810190610e389190612fd3565b905090565b610e58838383604051806020016040528060008152506111e8565b505050565b6000610e6761085f565b8210610ea8576040517f08c379a0000000000000000000000000000000000000000000000000000000008152600401610e9f906137f8565b60405180910390fd5b60088281548110610ee2577f4e487b7100000000000000000000000000000000000000000000000000000000600052603260045260246000fd5b90600052602060002001549050919050565b6000806002600084815260200190815260200160002060009054906101000a900473ffffffffffffffffffffffffffffffffffffffff169050600073ffffffffffffffffffffffffffffffffffffffff168173ffffffffffffffffffffffffffffffffffffffff161415610f9d576040517f08c379a0000000000000000000000000000000000000000000000000000000008152600401610f9490613738565b60405180910390fd5b80915050919050565b60008073ffffffffffffffffffffffffffffffffffffffff168273ffffffffffffffffffffffffffffffffffffffff161415611017576040517f08c379a000000000000000000000000000000000000000000000000000000000815260040161100e90613718565b60405180910390fd5b600360008373ffffffffffffffffffffffffffffffffffffffff1673ffffffffffffffffffffffffffffffffffffffff168152602001908152602001600020549050919050565b611066611af8565b73ffffffffffffffffffffffffffffffffffffffff166110846110f0565b73ffffffffffffffffffffffffffffffffffffffff16146110da576040517f08c379a00000000000000000000000000000000000000000000000000000000081526004016110d190613798565b60405180910390fd5b6110e46000611efe565b565b6000600f54905090565b6000600a60009054906101000a900473ffffffffffffffffffffffffffffffffffffffff16905090565b60606001805461112990613b13565b80601f016020809104026020016040519081016040528092919081815260200182805461115590613b13565b80156111a25780601f10611177576101008083540402835291602001916111a2565b820191906000526020600020905b81548152906001019060200180831161118557829003601f168201915b5050505050905090565b6111be6111b7611af8565b8383611fc4565b5050565b601060009054906101000a900473ffffffffffffffffffffffffffffffffffffffff1681565b6111f96111f3611af8565b83611bb9565b611238576040517f08c379a000000000000000000000000000000000000000000000000000000000815260040161122f906137d8565b60405180910390fd5b61124484848484612131565b50505050565b606060116000838152602001908152602001600020805461126a90613b13565b80601f016020809104026020016040519081016040528092919081815260200182805461129690613b13565b80156112e35780601f106112b8576101008083540402835291602001916112e3565b820191906000526020600020905b8154815290600101906020018083116112c657829003601f168201915b50505050509050919050565b606060006112fc83610fa6565b90506000811415611342576040517f08c379a000000000000000000000000000000000000000000000000000000000815260040161133990613818565b60405180910390fd5b60008167ffffffffffffffff811115611384577f4e487b7100000000000000000000000000000000000000000000000000000000600052604160045260246000fd5b6040519080825280602002602001820160405280156113bd57816020015b6113aa612b2e565b8152602001906001900390816113a25790505b50905060005b828110156114405760006113d78683610951565b9050604051806020016040528082815250838381518110611421577f4e487b7100000000000000000000000000000000000000000000000000000000600052603260045260246000fd5b602002602001018190525050808061143890613b76565b9150506113c3565b508092505050919050565b600b60009054906101000a900473ffffffffffffffffffffffffffffffffffffffff1681565b6000600560008473ffffffffffffffffffffffffffffffffffffffff1673ffffffffffffffffffffffffffffffffffffffff16815260200190815260200160002060008373ffffffffffffffffffffffffffffffffffffffff1673ffffffffffffffffffffffffffffffffffffffff16815260200190815260200160002060009054906101000a900460ff16905092915050565b600061151082610ef4565b90503373ffffffffffffffffffffffffffffffffffffffff168173ffffffffffffffffffffffffffffffffffffffff1614611580576040517f08c379a000000000000000000000000000000000000000000000000000000000815260040161157790613638565b60405180910390fd5b6115898261218d565b601060009054906101000a900473ffffffffffffffffffffffffffffffffffffffff1673ffffffffffffffffffffffffffffffffffffffff1663095ea7b3600d60009054906101000a900473ffffffffffffffffffffffffffffffffffffffff16600f546040518363ffffffff1660e01b815260040161160a9291906134fa565b602060405180830381600087803b15801561162457600080fd5b505af1158015611638573d6000803e3d6000fd5b505050506040513d601f19601f8201168201806040525081019061165c9190612eee565b50601060009054906101000a900473ffffffffffffffffffffffffffffffffffffffff1673ffffffffffffffffffffffffffffffffffffffff166323b872dd600d60009054906101000a900473ffffffffffffffffffffffffffffffffffffffff1633600f546040518463ffffffff1660e01b81526004016116e093929190613477565b602060405180830381600087803b1580156116fa57600080fd5b505af115801561170e573d6000803e3d6000fd5b505050506040513d601f19601f820116820180604052508101906117329190612eee565b505050565b61173f611af8565b73ffffffffffffffffffffffffffffffffffffffff1661175d6110f0565b73ffffffffffffffffffffffffffffffffffffffff16146117b3576040517f08c379a00000000000000000000000000000000000000000000000000000000081526004016117aa90613798565b60405180910390fd5b600073ffffffffffffffffffffffffffffffffffffffff168173ffffffffffffffffffffffffffffffffffffffff161415611823576040517f08c379a000000000000000000000000000000000000000000000000000000000815260040161181a90613618565b60405180910390fd5b61182c81611efe565b50565b600080600161183c61085f565b611846919061398b565b9050600061185333610fa6565b905060008114611898576040517f08c379a000000000000000000000000000000000000000000000000000000000815260040161188f906135b8565b60405180910390fd5b601060009054906101000a900473ffffffffffffffffffffffffffffffffffffffff1673ffffffffffffffffffffffffffffffffffffffff166323b872dd33600d60009054906101000a900473ffffffffffffffffffffffffffffffffffffffff16600f546040518463ffffffff1660e01b815260040161191b93929190613477565b602060405180830381600087803b15801561193557600080fd5b505af1158015611949573d6000803e3d6000fd5b505050506040513d601f19601f8201168201806040525081019061196d9190612eee565b5061197833836122aa565b8360116000848152602001908152602001600020908051906020019061199f929190612b41565b508192505050919050565b60007f80ac58cd000000000000000000000000000000000000000000000000000000007bffffffffffffffffffffffffffffffffffffffffffffffffffffffff1916827bffffffffffffffffffffffffffffffffffffffffffffffffffffffff19161480611a7557507f5b5e139f000000000000000000000000000000000000000000000000000000007bffffffffffffffffffffffffffffffffffffffffffffffffffffffff1916827bffffffffffffffffffffffffffffffffffffffffffffffffffffffff1916145b80611a855750611a8482612484565b5b9050919050565b60008073ffffffffffffffffffffffffffffffffffffffff166002600084815260200190815260200160002060009054906101000a900473ffffffffffffffffffffffffffffffffffffffff1673ffffffffffffffffffffffffffffffffffffffff1614159050919050565b600033905090565b816004600083815260200190815260200160002060006101000a81548173ffffffffffffffffffffffffffffffffffffffff021916908373ffffffffffffffffffffffffffffffffffffffff160217905550808273ffffffffffffffffffffffffffffffffffffffff16611b7383610ef4565b73ffffffffffffffffffffffffffffffffffffffff167f8c5be1e5ebec7d5bd14f71427d1e84f3dd0314c0f7b2291e5b200ac8c7c3b92560405160405180910390a45050565b6000611bc482611a8c565b611c03576040517f08c379a0000000000000000000000000000000000000000000000000000000008152600401611bfa906136d8565b60405180910390fd5b6000611c0e83610ef4565b90508073ffffffffffffffffffffffffffffffffffffffff168473ffffffffffffffffffffffffffffffffffffffff161480611c505750611c4f8185611471565b5b80611c8e57508373ffffffffffffffffffffffffffffffffffffffff16611c76846106c2565b73ffffffffffffffffffffffffffffffffffffffff16145b91505092915050565b8273ffffffffffffffffffffffffffffffffffffffff16611cb782610ef4565b73ffffffffffffffffffffffffffffffffffffffff1614611d0d576040517f08c379a0000000000000000000000000000000000000000000000000000000008152600401611d0490613658565b60405180910390fd5b600073ffffffffffffffffffffffffffffffffffffffff168273ffffffffffffffffffffffffffffffffffffffff161415611d7d576040517f08c379a0000000000000000000000000000000000000000000000000000000008152600401611d7490613698565b60405180910390fd5b611d888383836124ee565b611d93600082611b00565b6001600360008573ffffffffffffffffffffffffffffffffffffffff1673ffffffffffffffffffffffffffffffffffffffff1681526020019081526020016000206000828254611de391906139e1565b925050819055506001600360008473ffffffffffffffffffffffffffffffffffffffff1673ffffffffffffffffffffffffffffffffffffffff1681526020019081526020016000206000828254611e3a919061398b565b92505081905550816002600083815260200190815260200160002060006101000a81548173ffffffffffffffffffffffffffffffffffffffff021916908373ffffffffffffffffffffffffffffffffffffffff160217905550808273ffffffffffffffffffffffffffffffffffffffff168473ffffffffffffffffffffffffffffffffffffffff167fddf252ad1be2c89b69c2b068fc378daa952ba7f163c4a11628f55a4df523b3ef60405160405180910390a4611ef9838383612602565b505050565b6000600a60009054906101000a900473ffffffffffffffffffffffffffffffffffffffff16905081600a60006101000a81548173ffffffffffffffffffffffffffffffffffffffff021916908373ffffffffffffffffffffffffffffffffffffffff1602179055508173ffffffffffffffffffffffffffffffffffffffff168173ffffffffffffffffffffffffffffffffffffffff167f8be0079c531659141344cd1fd0a4f28419497f9722a3daafe3b4186f6b6457e060405160405180910390a35050565b8173ffffffffffffffffffffffffffffffffffffffff168373ffffffffffffffffffffffffffffffffffffffff161415612033576040517f08c379a000000000000000000000000000000000000000000000000000000000815260040161202a906136b8565b60405180910390fd5b80600560008573ffffffffffffffffffffffffffffffffffffffff1673ffffffffffffffffffffffffffffffffffffffff16815260200190815260200160002060008473ffffffffffffffffffffffffffffffffffffffff1673ffffffffffffffffffffffffffffffffffffffff16815260200190815260200160002060006101000a81548160ff0219169083151502179055508173ffffffffffffffffffffffffffffffffffffffff168373ffffffffffffffffffffffffffffffffffffffff167f17307eab39ab6107e8899845ad3d59bd9653f200f220920489ca2b5937696c31836040516121249190613545565b60405180910390a3505050565b61213c848484611c97565b61214884848484612607565b612187576040517f08c379a000000000000000000000000000000000000000000000000000000000815260040161217e906135f8565b60405180910390fd5b50505050565b600061219882610ef4565b90506121a6816000846124ee565b6121b1600083611b00565b6001600360008373ffffffffffffffffffffffffffffffffffffffff1673ffffffffffffffffffffffffffffffffffffffff168152602001908152602001600020600082825461220191906139e1565b925050819055506002600083815260200190815260200160002060006101000a81549073ffffffffffffffffffffffffffffffffffffffff021916905581600073ffffffffffffffffffffffffffffffffffffffff168273ffffffffffffffffffffffffffffffffffffffff167fddf252ad1be2c89b69c2b068fc378daa952ba7f163c4a11628f55a4df523b3ef60405160405180910390a46122a681600084612602565b5050565b600073ffffffffffffffffffffffffffffffffffffffff168273ffffffffffffffffffffffffffffffffffffffff16141561231a576040517f08c379a000000000000000000000000000000000000000000000000000000000815260040161231190613758565b60405180910390fd5b61232381611a8c565b15612363576040517f08c379a000000000000000000000000000000000000000000000000000000000815260040161235a90613678565b60405180910390fd5b61236f600083836124ee565b6001600360008473ffffffffffffffffffffffffffffffffffffffff1673ffffffffffffffffffffffffffffffffffffffff16815260200190815260200160002060008282546123bf919061398b565b92505081905550816002600083815260200190815260200160002060006101000a81548173ffffffffffffffffffffffffffffffffffffffff021916908373ffffffffffffffffffffffffffffffffffffffff160217905550808273ffffffffffffffffffffffffffffffffffffffff16600073ffffffffffffffffffffffffffffffffffffffff167fddf252ad1be2c89b69c2b068fc378daa952ba7f163c4a11628f55a4df523b3ef60405160405180910390a461248060008383612602565b5050565b60007f01ffc9a7000000000000000000000000000000000000000000000000000000007bffffffffffffffffffffffffffffffffffffffffffffffffffffffff1916827bffffffffffffffffffffffffffffffffffffffffffffffffffffffff1916149050919050565b6124f983838361279e565b600073ffffffffffffffffffffffffffffffffffffffff168373ffffffffffffffffffffffffffffffffffffffff16141561253c57612537816127a3565b61257b565b8173ffffffffffffffffffffffffffffffffffffffff168373ffffffffffffffffffffffffffffffffffffffff161461257a5761257983826127ec565b5b5b600073ffffffffffffffffffffffffffffffffffffffff168273ffffffffffffffffffffffffffffffffffffffff1614156125be576125b981612959565b6125fd565b8273ffffffffffffffffffffffffffffffffffffffff168273ffffffffffffffffffffffffffffffffffffffff16146125fc576125fb8282612a9c565b5b5b505050565b505050565b60006126288473ffffffffffffffffffffffffffffffffffffffff16612b1b565b15612791578373ffffffffffffffffffffffffffffffffffffffff1663150b7a02612651611af8565b8786866040518563ffffffff1660e01b815260040161267394939291906134ae565b602060405180830381600087803b15801561268d57600080fd5b505af19250505080156126be57506040513d601f19601f820116820180604052508101906126bb9190612f40565b60015b612741573d80600081146126ee576040519150601f19603f3d011682016040523d82523d6000602084013e6126f3565b606091505b50600081511415612739576040517f08c379a0000000000000000000000000000000000000000000000000000000008152600401612730906135f8565b60405180910390fd5b805181602001fd5b63150b7a0260e01b7bffffffffffffffffffffffffffffffffffffffffffffffffffffffff1916817bffffffffffffffffffffffffffffffffffffffffffffffffffffffff191614915050612796565b600190505b949350505050565b505050565b6008805490506009600083815260200190815260200160002081905550600881908060018154018082558091505060019003906000526020600020016000909190919091505550565b600060016127f984610fa6565b61280391906139e1565b90506000600760008481526020019081526020016000205490508181146128e8576000600660008673ffffffffffffffffffffffffffffffffffffffff1673ffffffffffffffffffffffffffffffffffffffff168152602001908152602001600020600084815260200190815260200160002054905080600660008773ffffffffffffffffffffffffffffffffffffffff1673ffffffffffffffffffffffffffffffffffffffff168152602001908152602001600020600084815260200190815260200160002081905550816007600083815260200190815260200160002081905550505b6007600084815260200190815260200160002060009055600660008573ffffffffffffffffffffffffffffffffffffffff1673ffffffffffffffffffffffffffffffffffffffff16815260200190815260200160002060008381526020019081526020016000206000905550505050565b6000600160088054905061296d91906139e1565b90506000600960008481526020019081526020016000205490506000600883815481106129c3577f4e487b7100000000000000000000000000000000000000000000000000000000600052603260045260246000fd5b906000526020600020015490508060088381548110612a0b577f4e487b7100000000000000000000000000000000000000000000000000000000600052603260045260246000fd5b906000526020600020018190555081600960008381526020019081526020016000208190555060096000858152602001908152602001600020600090556008805480612a80577f4e487b7100000000000000000000000000000000000000000000000000000000600052603160045260246000fd5b6001900381819060005260206000200160009055905550505050565b6000612aa783610fa6565b905081600660008573ffffffffffffffffffffffffffffffffffffffff1673ffffffffffffffffffffffffffffffffffffffff168152602001908152602001600020600083815260200190815260200160002081905550806007600084815260200190815260200160002081905550505050565b600080823b905060008111915050919050565b6040518060200160405280600081525090565b828054612b4d90613b13565b90600052602060002090601f016020900481019282612b6f5760008555612bb6565b82601f10612b8857805160ff1916838001178555612bb6565b82800160010185558215612bb6579182015b82811115612bb5578251825591602001919060010190612b9a565b5b509050612bc39190612bc7565b5090565b5b80821115612be0576000816000905550600101612bc8565b5090565b6000612bf7612bf2846138b8565b613893565b905082815260208101848484011115612c0f57600080fd5b612c1a848285613ad1565b509392505050565b6000612c35612c30846138e9565b613893565b905082815260208101848484011115612c4d57600080fd5b612c58848285613ad1565b509392505050565b600081359050612c6f816141d1565b92915050565b600081359050612c84816141e8565b92915050565b600081519050612c99816141e8565b92915050565b600081359050612cae816141ff565b92915050565b600081519050612cc3816141ff565b92915050565b600082601f830112612cda57600080fd5b8135612cea848260208601612be4565b91505092915050565b600082601f830112612d0457600080fd5b8135612d14848260208601612c22565b91505092915050565b600081359050612d2c81614216565b92915050565b600081519050612d4181614216565b92915050565b600060208284031215612d5957600080fd5b6000612d6784828501612c60565b91505092915050565b60008060408385031215612d8357600080fd5b6000612d9185828601612c60565b9250506020612da285828601612c60565b9150509250929050565b600080600060608486031215612dc157600080fd5b6000612dcf86828701612c60565b9350506020612de086828701612c60565b9250506040612df186828701612d1d565b9150509250925092565b60008060008060808587031215612e1157600080fd5b6000612e1f87828801612c60565b9450506020612e3087828801612c60565b9350506040612e4187828801612d1d565b925050606085013567ffffffffffffffff811115612e5e57600080fd5b612e6a87828801612cc9565b91505092959194509250565b60008060408385031215612e8957600080fd5b6000612e9785828601612c60565b9250506020612ea885828601612c75565b9150509250929050565b60008060408385031215612ec557600080fd5b6000612ed385828601612c60565b9250506020612ee485828601612d1d565b9150509250929050565b600060208284031215612f0057600080fd5b6000612f0e84828501612c8a565b91505092915050565b600060208284031215612f2957600080fd5b6000612f3784828501612c9f565b91505092915050565b600060208284031215612f5257600080fd5b6000612f6084828501612cb4565b91505092915050565b600060208284031215612f7b57600080fd5b600082013567ffffffffffffffff811115612f9557600080fd5b612fa184828501612cf3565b91505092915050565b600060208284031215612fbc57600080fd5b6000612fca84828501612d1d565b91505092915050565b600060208284031215612fe557600080fd5b6000612ff384828501612d32565b91505092915050565b60006130088383613422565b60208301905092915050565b61301d81613a15565b82525050565b600061302e8261392a565b6130388185613958565b93506130438361391a565b8060005b8381101561307457815161305b8882612ffc565b97506130668361394b565b925050600181019050613047565b5085935050505092915050565b61308a81613a27565b82525050565b600061309b82613935565b6130a58185613969565b93506130b5818560208601613ae0565b6130be81613c4c565b840191505092915050565b6130d281613a89565b82525050565b6130e181613aad565b82525050565b60006130f282613940565b6130fc818561397a565b935061310c818560208601613ae0565b61311581613c4c565b840191505092915050565b600061312d601c8361397a565b915061313882613c5d565b602082019050919050565b6000613150602b8361397a565b915061315b82613c86565b604082019050919050565b600061317360328361397a565b915061317e82613cd5565b604082019050919050565b600061319660268361397a565b91506131a182613d24565b604082019050919050565b60006131b9601b8361397a565b91506131c482613d73565b602082019050919050565b60006131dc60258361397a565b91506131e782613d9c565b604082019050919050565b60006131ff601c8361397a565b915061320a82613deb565b602082019050919050565b600061322260248361397a565b915061322d82613e14565b604082019050919050565b600061324560198361397a565b915061325082613e63565b602082019050919050565b6000613268602c8361397a565b915061327382613e8c565b604082019050919050565b600061328b60388361397a565b915061329682613edb565b604082019050919050565b60006132ae602a8361397a565b91506132b982613f2a565b604082019050919050565b60006132d160298361397a565b91506132dc82613f79565b604082019050919050565b60006132f460208361397a565b91506132ff82613fc8565b602082019050919050565b6000613317602c8361397a565b915061332282613ff1565b604082019050919050565b600061333a60208361397a565b915061334582614040565b602082019050919050565b600061335d60218361397a565b915061336882614069565b604082019050919050565b600061338060318361397a565b915061338b826140b8565b604082019050919050565b60006133a3602c8361397a565b91506133ae82614107565b604082019050919050565b60006133c6601a8361397a565b91506133d182614156565b602082019050919050565b60006133e9601e8361397a565b91506133f48261417f565b602082019050919050565b600061340c60148361397a565b9150613417826141a8565b602082019050919050565b602082016000820151613438600085018261343e565b50505050565b61344781613a7f565b82525050565b61345681613a7f565b82525050565b60006020820190506134716000830184613014565b92915050565b600060608201905061348c6000830186613014565b6134996020830185613014565b6134a6604083018461344d565b949350505050565b60006080820190506134c36000830187613014565b6134d06020830186613014565b6134dd604083018561344d565b81810360608301526134ef8184613090565b905095945050505050565b600060408201905061350f6000830185613014565b61351c602083018461344d565b9392505050565b6000602082019050818103600083015261353d8184613023565b905092915050565b600060208201905061355a6000830184613081565b92915050565b600060208201905061357560008301846130c9565b92915050565b600060208201905061359060008301846130d8565b92915050565b600060208201905081810360008301526135b081846130e7565b905092915050565b600060208201905081810360008301526135d181613120565b9050919050565b600060208201905081810360008301526135f181613143565b9050919050565b6000602082019050818103600083015261361181613166565b9050919050565b6000602082019050818103600083015261363181613189565b9050919050565b60006020820190508181036000830152613651816131ac565b9050919050565b60006020820190508181036000830152613671816131cf565b9050919050565b60006020820190508181036000830152613691816131f2565b9050919050565b600060208201905081810360008301526136b181613215565b9050919050565b600060208201905081810360008301526136d181613238565b9050919050565b600060208201905081810360008301526136f18161325b565b9050919050565b600060208201905081810360008301526137118161327e565b9050919050565b60006020820190508181036000830152613731816132a1565b9050919050565b60006020820190508181036000830152613751816132c4565b9050919050565b60006020820190508181036000830152613771816132e7565b9050919050565b600060208201905081810360008301526137918161330a565b9050919050565b600060208201905081810360008301526137b18161332d565b9050919050565b600060208201905081810360008301526137d181613350565b9050919050565b600060208201905081810360008301526137f181613373565b9050919050565b6000602082019050818103600083015261381181613396565b9050919050565b60006020820190508181036000830152613831816133b9565b9050919050565b60006020820190508181036000830152613851816133dc565b9050919050565b60006020820190508181036000830152613871816133ff565b9050919050565b600060208201905061388d600083018461344d565b92915050565b600061389d6138ae565b90506138a98282613b45565b919050565b6000604051905090565b600067ffffffffffffffff8211156138d3576138d2613c1d565b5b6138dc82613c4c565b9050602081019050919050565b600067ffffffffffffffff82111561390457613903613c1d565b5b61390d82613c4c565b9050602081019050919050565b6000819050602082019050919050565b600081519050919050565b600081519050919050565b600081519050919050565b6000602082019050919050565b600082825260208201905092915050565b600082825260208201905092915050565b600082825260208201905092915050565b600061399682613a7f565b91506139a183613a7f565b9250827fffffffffffffffffffffffffffffffffffffffffffffffffffffffffffffffff038211156139d6576139d5613bbf565b5b828201905092915050565b60006139ec82613a7f565b91506139f783613a7f565b925082821015613a0a57613a09613bbf565b5b828203905092915050565b6000613a2082613a5f565b9050919050565b60008115159050919050565b60007fffffffff0000000000000000000000000000000000000000000000000000000082169050919050565b600073ffffffffffffffffffffffffffffffffffffffff82169050919050565b6000819050919050565b6000613a9482613a9b565b9050919050565b6000613aa682613a5f565b9050919050565b6000613ab882613abf565b9050919050565b6000613aca82613a5f565b9050919050565b82818337600083830152505050565b60005b83811015613afe578082015181840152602081019050613ae3565b83811115613b0d576000848401525b50505050565b60006002820490506001821680613b2b57607f821691505b60208210811415613b3f57613b3e613bee565b5b50919050565b613b4e82613c4c565b810181811067ffffffffffffffff82111715613b6d57613b6c613c1d565b5b80604052505050565b6000613b8182613a7f565b91507fffffffffffffffffffffffffffffffffffffffffffffffffffffffffffffffff821415613bb457613bb3613bbf565b5b600182019050919050565b7f4e487b7100000000000000000000000000000000000000000000000000000000600052601160045260246000fd5b7f4e487b7100000000000000000000000000000000000000000000000000000000600052602260045260246000fd5b7f4e487b7100000000000000000000000000000000000000000000000000000000600052604160045260246000fd5b6000601f19601f8301169050919050565b7f43616c6c657220616c7265616479206861732061207469636b65742e00000000600082015250565b7f455243373231456e756d657261626c653a206f776e657220696e646578206f7560008201527f74206f6620626f756e6473000000000000000000000000000000000000000000602082015250565b7f4552433732313a207472616e7366657220746f206e6f6e20455243373231526560008201527f63656976657220696d706c656d656e7465720000000000000000000000000000602082015250565b7f4f776e61626c653a206e6577206f776e657220697320746865207a65726f206160008201527f6464726573730000000000000000000000000000000000000000000000000000602082015250565b7f43616c6c6572206973206e6f74207469636b6574206f776e65722e0000000000600082015250565b7f4552433732313a207472616e736665722066726f6d20696e636f72726563742060008201527f6f776e6572000000000000000000000000000000000000000000000000000000602082015250565b7f4552433732313a20746f6b656e20616c7265616479206d696e74656400000000600082015250565b7f4552433732313a207472616e7366657220746f20746865207a65726f2061646460008201527f7265737300000000000000000000000000000000000000000000000000000000602082015250565b7f4552433732313a20617070726f766520746f2063616c6c657200000000000000600082015250565b7f4552433732313a206f70657261746f7220717565727920666f72206e6f6e657860008201527f697374656e7420746f6b656e0000000000000000000000000000000000000000602082015250565b7f4552433732313a20617070726f76652063616c6c6572206973206e6f74206f7760008201527f6e6572206e6f7220617070726f76656420666f7220616c6c0000000000000000602082015250565b7f4552433732313a2062616c616e636520717565727920666f7220746865207a6560008201527f726f206164647265737300000000000000000000000000000000000000000000602082015250565b7f4552433732313a206f776e657220717565727920666f72206e6f6e657869737460008201527f656e7420746f6b656e0000000000000000000000000000000000000000000000602082015250565b7f4552433732313a206d696e7420746f20746865207a65726f2061646472657373600082015250565b7f4552433732313a20617070726f76656420717565727920666f72206e6f6e657860008201527f697374656e7420746f6b656e0000000000000000000000000000000000000000602082015250565b7f4f776e61626c653a2063616c6c6572206973206e6f7420746865206f776e6572600082015250565b7f4552433732313a20617070726f76616c20746f2063757272656e74206f776e6560008201527f7200000000000000000000000000000000000000000000000000000000000000602082015250565b7f4552433732313a207472616e736665722063616c6c6572206973206e6f74206f60008201527f776e6572206e6f7220617070726f766564000000000000000000000000000000602082015250565b7f455243373231456e756d657261626c653a20676c6f62616c20696e646578206f60008201527f7574206f6620626f756e64730000000000000000000000000000000000000000602082015250565b7f4f776e657220646f65736e27742068617665207469636b65742e000000000000600082015250565b7f5468657265206973206e6f2072656d61696e696e672062616c616e63652e0000600082015250565b7f43616c6c6572206973206e6f742061646d696e2e000000000000000000000000600082015250565b6141da81613a15565b81146141e557600080fd5b50565b6141f181613a27565b81146141fc57600080fd5b50565b61420881613a33565b811461421357600080fd5b50565b61421f81613a7f565b811461422a57600080fd5b5056fea26469706673582212206ae44e9bb552b02f552b715a3227957d12a0a65004a86a8e7caf2881f7e7b37664736f6c63430008040033",
  "linkReferences": {},
  "deployedLinkReferences": {}
}